:1000000045C069C068C067C066C065C064C063C0E1
:1000100062C013C460C05FC05EC05DC05CC05BC036
:100020005AC059C058C000000000380035003200E6
:1000300000000000370034003100000000003600EE
:100040003300300004040404040404040202020225
:100050000202030303030303020203010204081064
:1000600020408001020408102001020408102040F2
:1000700080400000000000000000000405070000B0
:10008000000000000000000000003B0C11241FBE17
:10009000CFE5D4E0DEBFCDBF10E0A0E6B0E0E6E102
:1000A000FBE102C005900D92AA39B107D9F721E012
:1000B000AAE9B0E001C01D92A532B207E1F710E055
:1000C000C6E4D0E003C02197FE0119DDC534D10795
:1000D000D1F7FDD31ECD94CFE7E7F0E08491E0E6C1
:1000E000F0E09491E9E4F0E0E491EE2301F188235B
:1000F00049F08530A9F08730B1F0843019F48FB51C
:100100008F778FBDF0E0EE0FFF1FE65CFF4FA591EC
:10011000B491EC91E92381E090E059F480E00895F6
:100120008FB58F7DEECF85B58F7D85BDEBCF80E020
:1001300090E0089580E991E008953FB7F8948091A8
:100140009D0090919E00A0919F00B091A00022B7C9
:1001500008B600FE05C02F3F19F00196A11DB11D84
:100160003FBFBA2FA92F982F8827BC01CD01620F5E
:10017000711D811D911D43E0660F771F881F991F18
:100180004A95D1F708958F929F92AF92BF92CF92E6
:10019000DF92EF92FF924B015C01CFDF6B017C019C
:1001A000CCDF6C197D098E099F09683E734081057B
:1001B0009105B0F321E0821A9108A108B10888EEF8
:1001C000C80E83E0D81EE11CF11C81149104A10427
:1001D000B10431F7FF90EF90DF90CF90BF90AF90D8
:1001E0009F908F9008950F931F93CF93DF9320914B
:1001F0009B002F5F322F377030939B0020FF2AC067
:1002000020E831FD2064347009F02062205FFC0199
:10021000EC01239600E011E06485662321F070E094
:10022000C80140DC6F5F6187322F369F030E30E0DC
:10023000311D1124311110C01682662311F0615056
:1002400061873196EC17FD0739F7DF91CF911F9148
:100250000F91089520E0D5CF31503683EECF4F92E5
:100260005F927F928F929F92AF92BF92CF92DF92D6
:10027000EF92FF920F931F93CF93DF932C01EB012B
:100280005CDFF20127853089621B730B6A307105D0
:10029000B8F3F8948A819B81181619060CF040C1B6
:1002A000E881F98168B3862E689483F838B3377F84
:1002B00038BBDA848F812D2D281B822F2F834F8509
:1002C000042E000C550BAA81BB817D85FC84EE8435
:1002D0007F5FF394E3949E819884B984AB84118109
:1002E000C12C6C2D0C2D2C2D2181112788942111CE
:1002F000280F08F42FEF8195889470FD120F179541
:10030000889471FD120F1795889472FD120F17953E
:10031000889473FD120F1795889474FD120F17952A
:10032000889475FD120F1795889476FD120F179516
:10033000889477FD120F17958894622F7111612FA1
:100340008D0D162F002C88BA17FF38BB2081662729
:10035000889438BB2111290F88BA16FF38BB08F4DE
:100360002FEF9195889438BBF0FC620F88BA15FF87
:1003700038BB67958894F1FC620F38BB6795889409
:1003800088BA14FF38BBF2FC620F6795889438BBBB
:10039000F3FC620F88BA13FF38BB67958894F4FCAE
:1003A000620F38BB6795889488BA12FF38BBF5FC9A
:1003B000620F6795889438BBF6FC620F88BA11FF0C
:1003C00038BB67958894F7FC620F38BB67958894B3
:1003D00088BA10FF38BB122FF110162F9B0D38BBB7
:1003E00000C088BA17FF38BB22816627889438BBC3
:1003F0002111290D88BA16FF38BB08F42FEFE40F3E
:10040000F51F38BBE0FC620F88BA15FF38BB679553
:100410008894E1FC620F38BB6795889488BA14FF12
:1004200038BBE2FC620F6795889438BBE3FC620F2F
:1004300088BA13FF38BB67958894E4FC620F38BB19
:100440006795889488BA12FF38BBE5FC620F679500
:10045000889438BBE6FC620F88BA11FF38BB6795F9
:100460008894E7FC620F38BB6795889488BA10FFC0
:1004700038BB122FE110162F919438BB9A0C002C28
:1004800088BA17FF38BB21816627889438BB2111B1
:10049000280F88BA16FF38BB08F42FEF819588948F
:1004A00038BB70FD620F88BA15FF38BB679588941A
:1004B00071FD620F38BB6795889488BA14FF38BB0A
:1004C00072FD620F6795889438BB73FD620F88BA1E
:1004D00013FF38BB6795889474FD620F38BB67952E
:1004E000889488BA12FF38BB75FD620F67958894AF
:1004F00038BB76FD620F88BA11FF38BB67958894C8
:1005000077FD620F38BB6795889488BA10FF38BBB7
:10051000122F7111162F8D0D38BB119709F013CFC3
:10052000EA81FB8120EF30E0DF01CFDA6B017C0153
:10053000A3E0F694E794D794C794AA95D1F730E056
:1005400020E0A9018AE9E89F0E0E411DF89F400DA9
:10055000511D11244F0F511DCA01B0E0A0E0880FBA
:10056000991FAA1FBB1F8C0D9D1DAE1DBF1D893E6F
:1005700043E09407A105B10508F434C0885E9340B8
:10058000A109B10942E0B695A795979587954A9537
:10059000D1F747E0849F080E211D949F200D311D47
:1005A0001124290F311D60919A0070E0860F971F6A
:1005B000820F931F4091BC005091BD006091BE001E
:1005C0007091BF00292F3327420F531F611D711DEA
:1005D0004093BC005093BD006093BE007093BF0079
:1005E00080939A007894A9DDF201708B6787DF9180
:1005F000CF911F910F91FF90EF90DF90CF90BF9020
:10060000AF909F908F907F905F904F90089581E082
:1006100090E00895BB9A08956F927F928F92CF9247
:10062000DF92EF92FF920F931F93CF93DF93CDB79B
:10063000DEB762970FB6F894DEBF0FBECDBF6C0178
:100640007A013801822EDC011C962C91CA0157FFD9
:1006500004C088279927841B950B7A8369839C8320
:100660008B839E838D836D867E868F86213041F5B8
:10067000CE010196B8DD83E0888B1A8A198AF7FECD
:1006800002C08DEF888BD601ED91FC910684F78531
:10069000E02DBE016F5F7F4FC601099562960FB6D0
:1006A000F894DEBF0FBECDBFDF91CF911F910F91A8
:1006B000FF90EF90DF90CF908F907F906F90089594
:1006C0001C861B861A86198618861F82D4CFEF9245
:1006D000FF920F931F93CF93DF93CDB7DEB762974F
:1006E0000FB6F894DEBF0FBECDBF7C01DC011C96B7
:1006F0008C917A8369835C834B835E834D830D8702
:100700001E872F878130F1F4CE0101966CDD188AA7
:100710001A8A198AD701ED91FC910684F785E02D9C
:10072000BE016F5F7F4FC701099562960FB6F894BF
:10073000DEBF0FBECDBFDF91CF911F910F91FF9014
:10074000EF9008951C861B861A86198618861F82CC
:10075000DECF10920E01EEE0F1E08191815F8083A7
:1007600081E0ED31F807C9F70895ECECF0E0619312
:100770007193819390E0EC3FF907C9F70895CF9307
:100780005091220160911E0170911F01ACECB0E00C
:1007900020E0C0EFE52FE20F9E2F92959F709C9F67
:1007A000E00D1124E60FF72FF11D9081813049F003
:1007B0008230B9F030E04FEF833031F43FEF40E06A
:1007C00003C0492F30E090E09C9311964C93119711
:1007D00012963C9312972F5F13962031D9F6CF9142
:1007E0000895392F40E0EFCF90E080E00895FC01BC
:1007F0008585968508950F931F93CF93DF9300D03F
:100800001F92CDB7DEB7AB0119821A821B82DC01C1
:10081000ED91FC910190F081E02D00E010E020E0EE
:10082000BE016F5F7F4F09950F900F900F90DF9182
:10083000CF911F910F91089568D91F920F920FB613
:100840000F9211242F933F938F939F93AF93BF9356
:100850008091BC009091BD00A091BE00B091BF00FE
:1008600030919C0026E0230F2D3768F129E8230FF3
:100870000396A11DB11D20939C008093BC00909312
:10088000BD00A093BE00B093BF0080919D009091E9
:100890009E00A0919F00B091A0000196A11DB11DE6
:1008A00080939D0090939E00A0939F00B093A00022
:1008B000BF91AF919F918F913F912F910F900FBE5C
:1008C0000F901F9018950296A11DB11DD4CFCF9304
:1008D000DF93CDB7DEB72A970FB6F894DEBF0FBE11
:1008E000CDBF789483B7836083BF89B7816089BFA8
:1008F00082E08EBD8EB581608EBD8FB581608FBD6B
:1009000085B5846085BD85B5806485BD86E886B97A
:100910001AB8E0E6F0E02491E9E4F0E0849188235D
:10092000C9F090E0880F991FFC01E05DFF4F4591F1
:100930005491FC01EA5DFF4FA591B4919FB7F894E3
:10094000FA013081822F809583238083EC91E22B02
:10095000EC939FBF8091B400811145C01092A60016
:100960001092A5008FEF8093A9008093AA00809336
:10097000AB008093AC008093AD008093AE0081E02B
:100980008093AF001092B1001092B0001092A800B6
:100990001092A7008091C6009091C700892B31F476
:1009A00083EA90E09093C7008093C600E091A10095
:1009B000F091A200309721F083EA90E09583848340
:1009C00083EA90E09093A2008093A1001092B3007C
:1009D0001092B2008AE890E09093A4008093A30064
:1009E00081E08093B400BB9A8CEC90E09093A600D9
:1009F0008093A50080E190E09093B1008093B000D7
:100A00008091040190910501A0910601B091070128
:100A1000843CF9E09F07A105B10520F484EC99E03E
:100A2000A0E0B0E08093040190930501A09306013B
:100A3000B09307018AE5809301011FBA1EBAE09ABC
:100A40008DB38093230110922201109221018EE038
:100A500091E090931F0180931E0180E1882E912CDC
:100A6000A12CB12C412C512C32014A940FE0202EA4
:100A7000312C10E0809124011817D0F52DDB892B43
:100A800009F081C06EE170E080E090E07CDB24DB67
:100A9000892B09F078C0809123018F5F8093230117
:100AA0001092220110922101109220012EE031E0DB
:100AB00030931F0120931E018AE58093010181E09C
:100AC000809300012FB7F8948091BC009091BD00F5
:100AD000A091BE00B091BF002FBF8093FC00909307
:100AE000FD00A093FE00B093FF00F6DA892BE9F336
:100AF00080910001813029F52FB7F8948091BC00D6
:100B00009091BD00A091BE00B091BF002FBF409159
:100B1000FC005091FD006091FE007091FF00841B6D
:100B2000950BA60BB70B80339547A105B10548F08F
:100B30001FBA1EBA809123018DBBE29AE19A1092EE
:100B40000001809123018430B0F56FEF70E08823BD
:100B500029F08130F9F460E070E880E006DE8091F1
:100B60002201809301018A35F9F491E090932001EC
:100B70009091200191111DC08F5F8093220185E02B
:100B80008093240192C065E070E080E090E0FBDAA1
:100B90001F5F70CF823021F460E070E08FEFDECF16
:100BA00060E870E080E8DACF8111E2CF1092200196
:100BB000DFCF8150E2CF6FEF70E0843021F08530DD
:100BC00031F460E070E880E0D0DD8FEFD9CF86307F
:100BD00021F460E070E08FEFF7CF873021F460E818
:100BE00070E080E8F1CF883009F046C1D090220152
:100BF000ECECF0E03D2D50E040E0B5E5FB2EA0E050
:100C0000BBEA1AEAE12E1FE0932F990F990F990F73
:100C1000292F6F2D269F020E20E0211D1124822FE7
:100C2000632F6074232F207237FD04C16111EFC060
:100C3000211106C0982F9095382F892F90E004C07D
:100C400035E5380F90E08BEA6A2F112329F0119FC8
:100C5000612D112411116F5F062F0095282F209F01
:100C6000020E20E0211D309F030E30E0311D792F50
:100C7000709F070E70E0711D972F1124862F820F31
:100C80008083360F3183960F92834150504F3396B5
:100C90003D2D350F403F8FEF580709F0B5CF7AE073
:100CA0007D0D7093220110932401D0900101809159
:100CB000040190910501A0910601B0910701892BD3
:100CC0008A2B8B2BD1F039DA0091C8001091C90022
:100CD0002091CA003091CB00601B710B820B930BEB
:100CE0000091040110910501209106013091070146
:100CF0006017710782079307D0F21FDA6093C8006C
:100D00007093C9008093CA009093CB00E0910C01CE
:100D1000F0910D01309759F040910801509109016F
:100D200060910A0170910B018D2D0995D82EE090EC
:100D3000C600F090C7002D2D30E050E040E02F833A
:100D4000388749875A87E114F10409F436C5D70179
:100D50001C96BC91BC838091020190910301843662
:100D6000910510F4F7011486D701ED91FC912281D1
:100D700033813E832D8319821A821B82DD2079F113
:100D8000F701369610E000E02191222319F1C2808C
:100D9000CC2001F130E050E040E02F5F3F4F4F4F5B
:100DA0005F4F6F81788589859A856DD69B01AC01EF
:100DB0008C2D90E0B0E0A0E0BC01CD016F5F7F4FD3
:100DC0008F4F9F4F60D6A1E0B0E0AC0FBD1FA00FCA
:100DD000B11F8C930F5F1F4F03301105A9F60981D6
:100DE0001A812B81D7011D964D915C911E97129609
:100DF0006D917C91C701ED81FE810995EC81D70150
:100E00001C96EC931C971496ED90FC909CCF2111AE
:100E10000CC0392F7E2D379F030E30E0311D112479
:100E20009B2F931B3AEA380F08CF382F3095982F15
:100E300080E00ACF611112C021110CC0292F3E2D74
:100E4000239F020E20E0211D1124922F3B2F321BE5
:100E50009B5AEECF982F909530E0F6CE211106C028
:100E600035E5380F9B2F981B832FF6CF2AEA280FE2
:100E70009F2D981B822FF0CF893071F560E070E0D4
:100E80008FEF73DC20912201822F90E00496322FA5
:100E90004FEFE32FF0E08E179F07A4F0BF01303132
:100EA00058F4660F771FE60FF71FE453FF4F408398
:100EB000418312823F5FEDCF60517109FB01EE0F5C
:100EC000FF1FF1CF2F3021F4109222018FE058CE76
:100ED0002F5F20932201FACF8A3009F580912201F9
:100EE000811103C060E070E040DC1ED56B017C0125
:100EF0001BD5A50194016DD58B01000F111F060FA5
:100F0000171F04531F4FD8011C92C701B601A3013C
:100F100092015FD5F801618312828AE031CE8B3075
:100F200059F480912201811103C060E070E01DDC62
:100F300081E080932201D9CF8C3009F052C0ECECD3
:100F4000F0E0108211821282339620E0EC3FF2072B
:100F5000C1F780912201982F282F30E0A9014F5F1F
:100F60005F4FA0E8692F70E04617570764F0FB0158
:100F7000EE0FFF1FE60FF71FE453FF4F1082A18310
:100F800012829F5FEFCF9FE0981B4DE050E0421B25
:100F9000530B9A0160E8492F50E02417350764F499
:100FA000FA01EE0FFF1FE40FF51FE453FF4F10820D
:100FB000618312829150EFCF863061F491E090937B
:100FC00020019091200191110AC08F5F809322012E
:100FD00084E1D6CD8111F5CF10922001F2CF81505E
:100FE000F5CF8D3009F09BC0909121019F3FA9F46E
:100FF000ECECF0E08FEF80838183128233966CEF0C
:1010000070E06E177F07B9F781E08093200110929E
:1010100021018FE08093220180CF9031A1F4ECEC8C
:10102000F0E08FEF1082118282833396ACEFB0E054
:10103000AE17BF07B9F7109220018FE0809321010E
:10104000109222016ACF8091220120912001ECECC4
:10105000F0E0981331C090E03FEF891310C0B3E087
:101060008B9FF0011124E453FF4F382F4FEF3031A5
:1010700061F04083418312823F5F3396F8CF108244
:10108000118232839F5F3396E8CF211104C09150C3
:1010900090932101D5CF282F30E0F901EE0FFF1FEB
:1010A000E20FF31FE453FF4F108211828FEF828310
:1010B0009F5F90932101ADCF222351F09FE02FEF4E
:1010C00033978917E8F420AB21AB12AA9150F8CFDF
:1010D0009FEF821731F01082118292832F5F339637
:1010E000F8CF282F30E0F901EE0FFF1FE20FF31FBA
:1010F000E453FF4F9FEF9083918312828F5F8ACFDB
:10110000282F30E0F901EE0FFF1FE20FF31FE45329
:10111000FF4F108211829FEF928381507BCF8E30E0
:1011200089F4E0E6F0E0F0931F01E0931E0181E016
:1011300026DB809122018F3009F4C6CE8F5F809329
:101140002201C4CE8F3011F404DBF1CF803109F0DD
:1011500049C2FFDA80912101811114C0209122013E
:10116000ECECF0E08FE09FEF3397281728F410AAFB
:1011700091AB12AA8150F8CF81E0809321011092A7
:1011800022015DC0813079F580912201ECECF0E024
:101190009FE02FEF3397891708F1982F803108F0DF
:1011A0009FE0282F30E053E04FEFF901E91BF109F0
:1011B000E25FFE4F6081959FF0011124E453FF4FE1
:1011C000108241836283915080F78F3009F0BEC254
:1011D0001092220182E08093210131C010AA21AB3C
:1011E00012AA9150D7CF823061F580912201A82FA9
:1011F000B0E0A25FBE4FECECF0E09FE03FEF339732
:10120000891730F42D9110AA31AB22AB9150F7CF52
:10121000982F803108F09FE023E03FEF929FF0018C
:101220001124E453FF4F1082318332839150B0F781
:101230008F3009F08BC2109222012093210189E1A5
:101240009FCC833071F580912201ECECF0E09FE0BF
:101250002FEF3397891700F1982F803108F09FE026
:101260009101281B3109225F3E4F63E04FEFF901E6
:10127000E90FF11D5081969FF0011124E453FF4FB7
:10128000108251834283915090F78F3009F05EC2F3
:101290001092220184E09FCF10AA21AB22AB915083
:1012A000D8CF843061F580912201A0E1B0E0A81B85
:1012B000B109A25FBE4FECECF0E09FE02FEF339757
:1012C000891730F43E9110AA31AB22AB9150F7CF81
:1012D000982F803108F09FE033E02FEF939FF001CB
:1012E0001124E453FF4F1082118222839150B0F7F2
:1012F0008F3009F02BC21092220185E06CCF85302F
:1013000069F580912201ECECF0E09FE02FEF33973C
:101310008917F8F0982F803108F09FE063E0482F9C
:1013200050E02FEF969FF0011124E453FF4FDA01B4
:10133000A91BB109A25FBE4F3C9130831182228369
:10134000915080F78F3009F001C21092220186E09F
:1013500042CF10AA11AA22AB9150D9CF863051F5B5
:1013600080912201A82FB0E0A25FBE4FECECF0E02C
:101370009FE02FEF3397891730F43D9130AB11AADE
:1013800022AB9150F7CF982F803108F09FE033E0E7
:101390002FEF939FF0011124E453FF4F208311821C
:1013A00022839150B0F78F3009F0D0C11092220102
:1013B00087E011CF873071F580912201ECECF0E0ED
:1013C0009FE02FEF3397891700F1982F803108F0B5
:1013D0009FE09101281B3109225F3E4F63E05FEFE0
:1013E000F901E90FF11D4081969FF0011124E453AA
:1013F000FF4F508311824283915090F78F3009F054
:10140000A5C11092220188E0E6CE20AB11AA22AB42
:101410009150D8CF883061F580912201A0E1B0E0F1
:10142000A81BB109A25FBE4FECECF0E09FE03FEFDC
:101430003397891730F42E9130AB11AA22AB91501B
:10144000F7CF982F803108F09FE033E02FEF939F84
:10145000F0011124E453FF4F208311821282915036
:10146000B0F78F3009F072C11092220189E0B3CE3B
:10147000893069F580912201ECECF0E09FE02FEFDC
:1014800033978917F8F0982F803108F09FE0282FC4
:1014900030E053E04FEFF901E91BF109E25FFE4F45
:1014A0006081959FF0011124E453FF4F40836183D5
:1014B0001282915080F78F3009F048C110922201BA
:1014C0008AE089CE20AB11AA12AA9150D9CF8A30D6
:1014D00051F580912201A82FB0E0A25FBE4FECEC45
:1014E000F0E09FE03FEF3397891730F42D9130AB58
:1014F00021AB12AA9150F7CF982F803108F09FE0CE
:1015000033E02FEF939FF0011124E453FF4F20832A
:10151000218312829150B0F78F3009F017C11092D9
:1015200022018BE058CE8B3071F580912201ECECDA
:10153000F0E09FE02FEF3397891700F1982F80316B
:1015400008F09FE063E09101281B3109225F3E4FC4
:101550004FEF969FF0011124E453FF4FD901A90FDB
:10156000B11D5C91508341831282915090F78F306E
:1015700009F0ECC0109222018CE02DCE20AB21AB03
:1015800012AA9150D8CF8C3009F059CE8091220107
:10159000A0E1B0E0A81BB109A25FBE4FECECF0E007
:1015A0009FE02FEF3397891730F43E9130AB21AB9A
:1015B00012AA9150F7CF982F803108F09FE033E0C6
:1015C0002FEF939FF0011124E453FF4F10822183EA
:1015D00012829150B0F78F3009F0B8C010922201FA
:1015E00081E0F9CD813139F5EEE0F1E011922EE1A3
:1015F00031E02E173F07D1F78FEF80930E018093D4
:101600000F01809310018093110180931601809344
:101610001701809318018093190181E0B0D880915F
:101620002201811104C084E08093220102C0109243
:10163000220180E5A5CA8231C9F4EEE0F1E0119201
:1016400031E0EE31F307D9F78FEF80930E018093ED
:101650000F018093100180931101809316018093F4
:101660001701809318018093190161CD833149F5E9
:10167000EEE0F1E0119241E0EE31F407D9F78FEF9F
:1016800080931D0180931C0180931B0180931A019C
:1016900081E075D8809122018C3061F491E09093C3
:1016A00020019091200191110AC08F5F8093220147
:1016B00088E066CA8111F5CF10922001F2CF8150E7
:1016C000F5CF8431A1F5EEE0F1E0119251E0EE3179
:1016D000F507D9F78FEF80931D0180931C0180934C
:1016E0001B0180931A0181E04AD8809122018F303A
:1016F000D1F48091210110922201883069F491E0A7
:10170000909320019091200191110BC08F5F8093E5
:1017100021018091210134CA8130A1F7109220016A
:10172000F1CF8150F4CF8F5F80932201F2CF8531CA
:1017300089F460E670E070931F0160931E0183E0FE
:101740001ED8809122018F3009F419CD8F5F8093CC
:10175000220175CD863141F480E690E090931F011F
:1017600080931E0184E0ECCF873121F560E2609325
:101770000E0150E450930F0140E64093100130E811
:101780003093110120EA2093120190EC9093130101
:1017900080EE8093140160931501509316014093DD
:1017A0001701309318012093190190931A01809327
:1017B0001B01BDCC1092230178CA8091C400909186
:1017C000C5009C012F5F3F4F3093C5002093C4009C
:1017D00049970CF449C08FB7F8942091BC00309120
:1017E000BD004091BE005091BF008FBF8091C000EE
:1017F0009091C100A091C200B091C300281B390B89
:101800004A0B5B0B21F421E030E040E050E0809196
:10181000C4009091C500A8EEB3E08A9FB0018B9FF1
:10182000700D9A9F700D1124072E000C880B990BD8
:10183000FCD030930301209302011092C500109256
:10184000C4002FB7F8948091BC009091BD00A09186
:10185000BE00B091BF002FBF8093C0009093C10025
:10186000A093C200B093C30080E090E0892B09F4FC
:1018700000C9C6D3FBC8E1E0F1E08FEF808312829C
:101880001182148613868FEF9FEFDC018783908788
:10189000A187B28708958F929F92AF92BF92CF9205
:1018A000DF92EF92FF92CF93DF93EC016881798111
:1018B0008A819B81611571058105910521F464E29E
:1018C00079ED8BE597E02DE133EF41E050E081D0F9
:1018D00049015A019B01AC01A7EAB1E496D06B0122
:1018E0007C01ACEEB4EFA50194019BD0C60ED71ECF
:1018F000E81EF91EF7FE06C081E0C81AD108E1080B
:1019000080E8F80AC882D982EA82FB82C701B60160
:101910009F77DF91CF91FF90EF90DF90CF90BF90B6
:10192000AF909F908F9008958F929F92AF92BF92A9
:10193000CF92DF92EF92FF926091700070917100F0
:101940008091720090917300611571058105910578
:1019500021F464E279ED8BE597E02DE133EF41E08E
:1019600050E037D049015A019B01AC01A7EAB1E42C
:101970004CD06B017C01ACEEB4EFA501940151D0C9
:10198000C60ED71EE81EF91EF7FE06C081E0C81A73
:10199000D108E10880E8F80AC0927000D092710086
:1019A000E0927200F0927300C701B6019F77FF903A
:1019B000EF90DF90CF90BF90AF909F908F90089561
:1019C0006093700070937100809372009093730025
:1019D0000895052E97FB16F400940FD057FD05D0FF
:1019E00024D007FC02D046F408C0509540953095AD
:1019F00021953F4F4F4F5F4F08959095809570957B
:101A000061957F4F8F4F9F4F089531D0A59F900DC7
:101A1000B49F900DA49F800D911D11240895B7FFD0
:101A2000F4CFF3DF821B930B0895A1E21A2EAA1BB9
:101A3000BB1BFD010DC0AA1FBB1FEE1FFF1FA2177E
:101A4000B307E407F50720F0A21BB30BE40BF50B7B
:101A5000661F771F881F991F1A9469F76095709504
:101A6000809590959B01AC01BD01CF010895A29F87
:101A7000B001B39FC001A39F01D0B29F700D811D23
:101A80001124911D0895DB018F939F93BEDFBF91B9
:101A9000AF91A29F800D911DA39F900DB29F900DBD
:101AA0001124089597FB072E16F4009406D077FDB5
:101AB00008D011D007FC05D03EF4909581959F4F3A
:101AC0000895709561957F4F0895D1DFB7FF089510
:101AD000821B930B0895AA1BBB1B51E107C0AA1FD1
:101AE000BB1FA617B70710F0A61BB70B881F991FBF
:101AF0005A95A9F780959095BC01CD010895EE0FF8
:101B0000FF1F0590F491E02D099481E090E0F89496
:061B100000C0F894FFCFB5
:101B16001E3C5A7896B4D2F0D2B496785A3C1E142B
:101B260001000000000000001C041C041C04FB0350
:101B3600F7030703F4030000000067030C030A031E
:0A1B4600FB03F70307039A002F01C9
:00000001FF
