:1000000045C069C068C067C066C065C064C063C0E1
:1000100062C004C460C05FC05EC05DC05CC05BC045
:100020005AC059C058C000000000380035003200E6
:1000300000000000370034003100000000003600EE
:100040003300300004040404040404040202020225
:100050000202030303030303020203010204081064
:1000600020408001020408102001020408102040F2
:1000700080400000000000000000000405070000B0
:1000800000000000000000000000E90B11241FBE6A
:10009000CFE5D4E0DEBFCDBF10E0A0E6B0E0E2E700
:1000A000FAE102C005900D92A63AB107D9F721E016
:1000B000A6EAB0E001C01D92AF35B207E1F710E04B
:1000C000C6E4D0E003C02197FE01C7DCC534D107E8
:1000D000D1F7EED3CCCC94CFE0E8F0E08491E9E620
:1000E000F0E09491E2E5F0E0E491EE2301F1882361
:1000F00049F08530A9F08730B1F0843019F48FB51C
:100100008F778FBDF0E0EE0FFF1FE65CFF4FA591EC
:10011000B491EC91E92381E090E059F480E00895F6
:100120008FB58F7DEECF85B58F7D85BDEBCF80E020
:1001300090E0089580E991E008953FB7F8948091A8
:10014000A9009091AA00A091AB00B091AC0022B799
:1001500008B600FE05C02F3F19F00196A11DB11D84
:100160003FBFBA2FA92F982F8827BC01CD01620F5E
:10017000711D811D911D43E0660F771F881F991F18
:100180004A95D1F708958F929F92AF92BF92CF92E6
:10019000DF92EF92FF924B015C01CFDF6B017C019C
:1001A000CCDF6C197D098E099F09683E734081057B
:1001B0009105B0F321E0821A9108A108B10888EEF8
:1001C000C80E83E0D81EE11CF11C81149104A10427
:1001D000B10431F7FF90EF90DF90CF90BF90AF90D8
:1001E0009F908F9008950F931F93CF93DF9320914B
:1001F000A7002F5F322F37703093A70020FF2AC04F
:1002000020E831FD2064347009F02062205FFC0199
:10021000EC01239600E011E06485662321F070E094
:10022000C801EEDB6F5F6187322F369F030E30E02F
:10023000311D1124311110C01682662311F0615056
:1002400061873196EC17FD0739F7DF91CF911F9148
:100250000F91089520E0D5CF31503683EECF4F92E5
:100260005F927F928F929F92AF92BF92CF92DF92D6
:10027000EF92FF920F931F93CF93DF932C01EB012B
:100280005CDFF20127853089621B730B6A307105D0
:10029000B8F3F8948A819B81181619060CF040C1B6
:1002A000E881F98168B3862E689483F838B3377F84
:1002B00038BBDA848F812D2D281B822F2F834F8509
:1002C000042E000C550BAA81BB817D85FC84EE8435
:1002D0007F5FF394E3949E819884B984AB84118109
:1002E000C12C6C2D0C2D2C2D2181112788942111CE
:1002F000280F08F42FEF8195889470FD120F179541
:10030000889471FD120F1795889472FD120F17953E
:10031000889473FD120F1795889474FD120F17952A
:10032000889475FD120F1795889476FD120F179516
:10033000889477FD120F17958894622F7111612FA1
:100340008D0D162F002C88BA17FF38BB2081662729
:10035000889438BB2111290F88BA16FF38BB08F4DE
:100360002FEF9195889438BBF0FC620F88BA15FF87
:1003700038BB67958894F1FC620F38BB6795889409
:1003800088BA14FF38BBF2FC620F6795889438BBBB
:10039000F3FC620F88BA13FF38BB67958894F4FCAE
:1003A000620F38BB6795889488BA12FF38BBF5FC9A
:1003B000620F6795889438BBF6FC620F88BA11FF0C
:1003C00038BB67958894F7FC620F38BB67958894B3
:1003D00088BA10FF38BB122FF110162F9B0D38BBB7
:1003E00000C088BA17FF38BB22816627889438BBC3
:1003F0002111290D88BA16FF38BB08F42FEFE40F3E
:10040000F51F38BBE0FC620F88BA15FF38BB679553
:100410008894E1FC620F38BB6795889488BA14FF12
:1004200038BBE2FC620F6795889438BBE3FC620F2F
:1004300088BA13FF38BB67958894E4FC620F38BB19
:100440006795889488BA12FF38BBE5FC620F679500
:10045000889438BBE6FC620F88BA11FF38BB6795F9
:100460008894E7FC620F38BB6795889488BA10FFC0
:1004700038BB122FE110162F919438BB9A0C002C28
:1004800088BA17FF38BB21816627889438BB2111B1
:10049000280F88BA16FF38BB08F42FEF819588948F
:1004A00038BB70FD620F88BA15FF38BB679588941A
:1004B00071FD620F38BB6795889488BA14FF38BB0A
:1004C00072FD620F6795889438BB73FD620F88BA1E
:1004D00013FF38BB6795889474FD620F38BB67952E
:1004E000889488BA12FF38BB75FD620F67958894AF
:1004F00038BB76FD620F88BA11FF38BB67958894C8
:1005000077FD620F38BB6795889488BA10FF38BBB7
:10051000122F7111162F8D0D38BB119709F013CFC3
:10052000EA81FB8120EF30E0DF017DDA6B017C01A5
:10053000A3E0F694E794D794C794AA95D1F730E056
:1005400020E0A9018AE9E89F0E0E411DF89F400DA9
:10055000511D11244F0F511DCA01B0E0A0E0880FBA
:10056000991FAA1FBB1F8C0D9D1DAE1DBF1D893E6F
:1005700043E09407A105B10508F434C0885E9340B8
:10058000A109B10942E0B695A795979587954A9537
:10059000D1F747E0849F080E211D949F200D311D47
:1005A0001124290F311D6091A60070E0860F971F5E
:1005B000820F931F4091C8005091C9006091CA00FA
:1005C0007091CB00292F3327420F531F611D711DDE
:1005D0004093C8005093C9006093CA007093CB0049
:1005E0008093A6007894A9DDF201708B6787DF9174
:1005F000CF911F910F91FF90EF90DF90CF90BF9020
:10060000AF909F908F907F905F904F90089581E082
:1006100090E00895BB9A08956F927F928F92CF9247
:10062000DF92EF92FF920F931F93CF93DF93CDB79B
:10063000DEB762970FB6F894DEBF0FBECDBF6C0178
:100640007A013801822EDC011C962C91CA0157FFD9
:1006500004C088279927841B950B7A8369839C8320
:100660008B839E838D836D867E868F86213041F5B8
:10067000CE010196B8DD83E0888B1A8A198AF7FECD
:1006800002C08DEF888BD601ED91FC910684F78531
:10069000E02DBE016F5F7F4FC601099562960FB6D0
:1006A000F894DEBF0FBECDBFDF91CF911F910F91A8
:1006B000FF90EF90DF90CF908F907F906F90089594
:1006C0001C861B861A86198618861F82D4CFEF9245
:1006D000FF920F931F93CF93DF93CDB7DEB762974F
:1006E0000FB6F894DEBF0FBECDBF7C01DC011C96B7
:1006F0008C917A8369835C834B835E834D830D8702
:100700001E872F878130F1F4CE0101966CDD188AA7
:100710001A8A198AD701ED91FC910684F785E02D9C
:10072000BE016F5F7F4FC701099562960FB6F894BF
:10073000DEBF0FBECDBFDF91CF911F910F91FF9014
:10074000EF9008951C861B861A86198618861F82CC
:10075000DECF1092D800E8EDF0E08191875F8083D2
:1007600080E0E33FF807C9F70895E4EFF0E0619314
:100770007193819391E0E834F907C9F70895509196
:100780005C01A4EFB0E020E0E52FE20FEC3110F0C7
:10079000EC51FCCFF0E0E852FF4F908130E040E0B8
:1007A000882339F0392F40E0813011F4492F30E0AF
:1007B00090E09C9311964C93119712963C9312974C
:1007C0002F5F13962C3101F7089590E080E0089593
:1007D000FC018585968508950F931F93CF93DF9332
:1007E00000D01F92CDB7DEB7AB0119821A821B82EF
:1007F000DC01ED91FC910190F081E02D00E010E032
:1008000020E0BE016F5F7F4F09950F900F900F9012
:10081000DF91CF911F910F91089525D91F920F92CB
:100820000FB60F9211242F933F938F939F93AF9303
:10083000BF938091C8009091C900A091CA00B09167
:10084000CB003091A80026E0230F2D3768F129E86E
:10085000230F0396A11DB11D2093A8008093C8000B
:100860009093C900A093CA00B093CB008091A900D7
:100870009091AA00A091AB00B091AC000196A11D8F
:10088000B11D8093A9009093AA00A093AB00B093F0
:10089000AC00BF91AF919F918F913F912F910F909D
:1008A0000FBE0F901F9018950296A11DB11DD4CFB9
:1008B000CF93DF93CDB7DEB72A970FB6F894DEBF9C
:1008C0000FBECDBF789483B7836083BF89B7816043
:1008D00089BF82E08EBD8EB581608EBD8FB581608F
:1008E0008FBD85B5846085BD85B5806485BD86E88E
:1008F00086B91AB8E9E6F0E02491E2E5F0E08491E7
:100900008823C9F090E0880F991FFC01E05DFF4F3C
:1009100045915491FC01EA5DFF4FA591B4919FB7B9
:10092000F894FA013081822F809583238083EC91A3
:10093000E22BEC939FBF8091C000811145C01092C3
:10094000B2001092B1008FEF8093B5008093B60093
:100950008093B7008093B8008093B9008093BA0069
:1009600081E08093BB001092BD001092BC001092F9
:10097000B4001092B3008091D2009091D300892BE3
:1009800031F48FEA90E09093D3008093D200E0910D
:10099000AD00F091AE00309721F08FEA90E09583A2
:1009A00084838FEA90E09093AE008093AD00109224
:1009B000BF001092BE008AE790E09093B000809351
:1009C000AF0081E08093C000BB9A84EF90E09093E9
:1009D000B2008093B1008CE190E09093BD008093D1
:1009E000BC008091500190915101A0915201B091B1
:1009F0005301843CF9E09F07A105B10520F484EC84
:100A000099E0A0E0B0E08093500190935101A09351
:100A10005201B093530182E380934D011FBA1EBA75
:100A2000E09A8DB380935D010CE1202E312C8CE196
:100A3000482E512C612C712C812C912C54018A94BC
:100A400010E080915E011817A0F546DB892B09F0B4
:100A500076C06EE170E080E090E095DB3DDB892BB5
:100A600009F06DC080915D018F5F80935D011092F0
:100A70005C0110925B0110925A0182E380934D0158
:100A800081E080934C012FB7F8948091C800909139
:100A9000C900A091CA00B091CB002FBF809348013C
:100AA00090934901A0934A01B0934B0115DB892B28
:100AB000E9F380914C01813029F52FB7F8948091AA
:100AC000C8009091C900A091CA00B091CB002FBF7F
:100AD000409148015091490160914A0170914B0148
:100AE000841B950BA60BB70B80339547A105B10569
:100AF00048F01FBA1EBA80915D018DBBE29AE19A5F
:100B000010924C0180915D01843078F56FEF70E0B8
:100B1000882329F08130D1F460E070E880E025DEA0
:100B200080915C0180934D018233D1F491E09093E8
:100B30005A0190915A019111CAC28F5FC9C265E0F2
:100B400070E080E090E01FDB1F5F7BCF823021F4FC
:100B500060E070E08FEFE3CF60E870E080E8DFCF27
:100B60008111E7CF10925A01E4CF6FEF70E084302B
:100B700029F0853009F0BDC060E070E880E0F5DD67
:100B80008FEF80935E01D0904D0180915001909144
:100B90005101A0915201B0915301892B8A2B8B2BCB
:100BA000D1F0CBDA0091D4001091D5002091D6007D
:100BB0003091D700601B710B820B930B0091500199
:100BC000109151012091520130915301601771072A
:100BD00082079307D0F2B1DA6093D4007093D50006
:100BE0008093D6009093D700E0915801F09159017D
:100BF000309759F040915401509155016091560140
:100C0000709157018D2D0995D82EE090D200F0906B
:100C1000D3008D2D90E0B0E0A0E08F839887A98766
:100C2000BA87E114F10409F474C5D7011C96CC907D
:100C30001C9780914E0190914F018436910510F4DC
:100C40001C961C92D701ED91FC91028113811E83A9
:100C50000D8319821A821B82DD20A1F187010A5FB0
:100C60001F4FF0E0E0E0D8012D918D01222331F1FA
:100C70001296BC91BC83BB2309F130E050E040E008
:100C80002F5F3F4F4F4F5F4F6F81788589859A85E2
:100C9000A8D69B01AC016C81862F90E0B0E0A0E06B
:100CA000BC01CD016F5F7F4F8F4F9F4F9AD6A1E060
:100CB000B0E0AC0FBD1FAE0FBF1F8C933196E33079
:100CC000F10589F609811A812B81D7011D964D9175
:100CD0005C911E9712966D917C91C701ED81FE810A
:100CE0000995D7011C96CC921C971496ED90FC9018
:100CF00098CF863021F460E070E08FEF40CF8730EE
:100D000021F460E870E080E83ACF883009F08CC0C8
:100D100060915C01E4EFF0E0262F50E040E0B5E5A3
:100D2000FB2E70E01FE0E12E922F990F990F990F83
:100D3000392F1F2D319F030E30E0311D1124832FD9
:100D4000B22FB074A22FA07227FD4EC0B1113BC0CC
:100D5000A11105C0932F9095892F90E004C035E52F
:100D6000380F90E08BEA272F1E2D112329F0119FB9
:100D7000212D112411112F5FA22FA095082F1A2FBA
:100D8000019F000E00E0011D802F319F030E30E017
:100D9000311D092F019F000E00E0011D1124820F5B
:100DA0008083320F3183200F22834C5D564F339660
:100DB000262F250F403F1FEF510709F0B5CF665F83
:100DC00060935C0187C1A1110BC0292F3AEA239FD0
:100DD000020E20E0211D11249BEA921B380FBCCF8C
:100DE0003095982F80E0BFCFB11112C0A1110CC077
:100DF000292F0AEA209F020E20E0211D11243BEA40
:100E0000321B95E5920FEECF932F909530E0ABCF4C
:100E1000A11106C025E5230F9BEA981B822FF6CF70
:100E20002AEA230F9F2DF9CF893071F560E070E039
:100E30008FEF9BDC20915C01822F90E00496322F93
:100E40004FEFE32FF0E08E179F07A4F0BF013C3176
:100E500058F4660F771FE60FF71FEC50FF4F4083E3
:100E6000418312823F5FEDCF6C517109FB01EE0FA0
:100E7000FF1FF1CF2C3119F410925C0103C02F5FDA
:100E800020935C018FE07DCE8A3011F580915C016A
:100E9000811103C060E070E068DCF4D46B017C0178
:100EA000F1D4A301920143D58B01000F111F060F4E
:100EB000171F0C501F4FD8011C9211961C92C7018E
:100EC000B601A501940133D5F80162838AE059CEB9
:100ED0008B3059F480915C01811103C060E070E0B7
:100EE00044DC81E080935C01D8CF8C3009F052C0A3
:100EF000E4EFF0E0108211821282339601E0E834D0
:100F0000F007C1F780915C01982F282F30E0A901EC
:100F10004F5F5F4FAFEF692F70E04617570764F0E0
:100F2000FB01EE0FFF1FE60FF71FEC50FF4F108283
:100F30001182A2839F5FEFCF9BE1981B49E150E0B4
:100F4000421B530B9A016FEF492F50E024173507CE
:100F500064F4FA01EE0FFF1FE40FF51FEC50FF4F92
:100F60001082118262839150EFCF8C3061F491E056
:100F700090935A0190915A0191110AC08F5F80930A
:100F80005C0184E1FECD8111F5CF10925A01F2CFC0
:100F90008150F5CF8D3009F09FC090915B019F3F4C
:100FA00099F4E4EFF0E08FEF80838183128233962F
:100FB000A8E4B1E0AE17BF07B9F781E080935A010A
:100FC00010925B018BE184C09C31A1F4E4EFF0E06E
:100FD0008FEF108211828283339608E411E00E179E
:100FE0001F07B9F710925A018BE180935B011092B1
:100FF0005C0170C080915C0120915A01981333C04C
:10100000E4EFF0E090E03FEF891310C013E0819F20
:10101000F0011124EC50FF4F382F4FEF3C3161F0BD
:101020004083418312823F5F3396F8CF1082118252
:1010300032839F5F3396E8CF211104C09150909383
:101040005B01D5CF282F30E0F901EE0FFF1FE20F33
:10105000F31FEC50FF4F108211828FEF82839F5F4E
:1010600090935B01AFCF222361F0E5E4F1E09BE1D7
:101070002FEF8917F8F42083218312829150339740
:10108000F8CFE4EFF0E09FEF821731F01082118289
:1010900092832F5F3396F8CF282F30E0F901EE0FBF
:1010A000FF1FE20FF31FEC50FF4F9FEF90839183E0
:1010B000128243CD282F30E0F901EE0FFF1FE20F1F
:1010C000F31FEC50FF4F108211829FEF92838150EB
:1010D00080935C0185E055CD8E30A9F4EAE8F0E01C
:1010E000A8EDB0E081918D9320E0E63AF207D1F7C8
:1010F00082E045DB80915C018B3109F4BDCE8F5FCE
:1011000080935C01BFCE8F3011F423DBF1CF8031AF
:1011100009F04CC21EDB80915B01811112C020914D
:101120005C01E5E4F1E08BE19FEF281730F41082D9
:101130009183128281503397F8CF81E080935B01D5
:101140009BCE813079F580915C01E5E4F1E09BE193
:101150002FEF891708F1982F8C3108F09BE1282F89
:1011600030E053E04FEFF901E91BF109E852FF4F7E
:101170006081959FF0011124EC50FF4F1082418354
:101180006283915080F78B3109F0B9CF10925C01E6
:1011900082E080935B0176CE10822183128291508F
:1011A0003397D7CF823059F580915C01A82FB0E0FA
:1011B000A852BF4FE5E4F1E09BE13FEF891738F417
:1011C0002D9110823183228391503397F7CF982F3E
:1011D0008C3108F09BE123E03FEF929FF001112456
:1011E000EC50FF4F1082318332839150B0F78B3136
:1011F00009F085CF10925C0120935B0143CE8330D0
:1012000079F580915C01E5E4F1E09BE12FEF89172E
:1012100008F1982F8C3108F09BE12BE130E0281B7E
:10122000310928523F4F63E04FEFF901E90FF11DFB
:101230005081969FF0011124EC50FF4F1082518392
:101240004283915090F78B3109F059CF10925C0195
:1012500084E09FCF10822183228391503397D7CF90
:10126000843059F580915C01D101A81BB109A852C5
:10127000BF4FE5E4F1E09BE12FEF891738F43E9191
:1012800010823183228391503397F7CF982F8C317E
:1012900008F09BE133E02FEF939FF0011124EC5015
:1012A000FF4F1082118222839150B0F78B3109F0E9
:1012B00026CF10925C0185E06CCF853099F5809146
:1012C0005C0124EF30E09BE14FEF23503109891797
:1012D000F8F0982F8C3108F09BE163E0482F50E044
:1012E0002FEF969FF0011124EC50FF4FDA01A91B5C
:1012F000B109A852BF4F3C91308311822283915093
:1013000080F78B3109F0FBCE10925C0186E041CF73
:10131000F901EC5AFF4F10823196108231964083CA
:101320009150D3CF863051F580915C01A82FB0E069
:10133000A852BF4FE5E4F1E09BE12FEF891738F4A5
:101340003D9130831182228391503397F7CF982FAC
:101350008C3108F09BE133E02FEF939FF0011124D3
:10136000EC50FF4F2083118222839150B0F78B31D4
:1013700009F0C5CE10925C0187E00BCF873079F57C
:1013800080915C01E5E4F1E09BE12FEF891708F122
:10139000982F8C3108F09BE12BE130E0281B3109BC
:1013A00028523F4F63E05FEFF901E90FF11D4081E3
:1013B000969FF0011124EC50FF4F5083118242831D
:1013C000915090F78B3109F09ACE10925C0188E031
:1013D000E0CE20831182228391503397D7CF88307B
:1013E00059F580915C01D101A81BB109A852BF4FEA
:1013F000E5E4F1E09BE13FEF891738F42E9130836B
:101400001182228391503397F7CF982F8C3108F0B7
:101410009BE133E02FEF939FF0011124EC50FF4F3D
:101420002083118212829150B0F78B3109F067CE80
:1014300010925C0189E0ADCE893069F580915C0144
:10144000E5E4F1E09BE12FEF8917F8F0982F8C315C
:1014500008F09BE1282F30E053E04FEFF901E91B42
:10146000F109E852FF4F6081959FF0011124EC5083
:10147000FF4F408361831282915080F78B3109F0D6
:101480003ECE10925C018AE084CE208311821282CB
:1014900091503397D9CF8A3051F580915C01A82FB4
:1014A000B0E0A852BF4FE5E4F1E09BE13FEF8917C0
:1014B00038F42D9130832183128291503397F7CFE6
:1014C000982F8C3108F09BE133E02FEF939FF001D0
:1014D0001124EC50FF4F2083218312829150B0F7EA
:1014E0008B3109F00CCE10925C018BE052CE8B3028
:1014F00079F580915C01E5E4F1E09BE12FEF89173C
:1015000008F1982F8C3108F09BE163E02BE130E08B
:10151000281B310928523F4F4FEF969FF0011124AD
:10152000EC50FF4FD901A90FB11D5C91508341834D
:101530001282915090F78B3109F0E1CD10925C014D
:101540008CE027CE20832183128291503397D7CF0E
:101550008C3009F097CC80915C01D101A81BB109B6
:10156000A852BF4FE5E4F1E09BE12FEF891738F473
:101570003E9130832183128291503397F7CF982F79
:101580008C3108F09BE133E02FEF939FF0011124A1
:10159000EC50FF4F1082218312829150B0F78B31B3
:1015A00009F0ADCD10925C0181E0F3CD813191F570
:1015B000E8EDF0E0119230E0E43FF307D9F78FEF68
:1015C0008093D8008093D9008093DA008093DB0069
:1015D0008093DC008093DD008093DE008093E60042
:1015E0008093E7008093E8008093E9008093EA000D
:1015F0008093EB008093EC0081E0C1D880915C0186
:10160000811104C087E080935C0102C010925C01EC
:1016100080E5B7CA8231C9F4E8EDF0E0119240E00C
:10162000E43FF407D9F78FEF8093D8008093D90077
:101630008093DA008093DB008093E6008093E700DC
:101640008093E8008093E90053CD833149F5E8EDBC
:10165000F0E0119250E0E43FF507D9F78FEF809367
:10166000F3008093F2008093F1008093F00081E01A
:1016700086D880915C01883161F491E090935A01A1
:1016800090915A0191110AC08F5F80935C0188E0AC
:1016900078CA8111F5CF10925A01F2CF8150F5CF5F
:1016A0008431A1F5E8EDF0E0119260E0E43FF60747
:1016B000D9F78FEF8093F3008093F2008093F100CD
:1016C0008093F00080E05BD880915C018B31D1F495
:1016D00080915B0110925C01883069F491E09093F5
:1016E0005A0190915A0191110BC08F5F80935B0159
:1016F00080915B0146CA8130A1F710925A01F1CF67
:101700008150F4CF8F5F80935C01F2CF10925D0126
:101710003ACA8091D0009091D1009C012F5F3F4F39
:101720003093D1002093D00049970CF44BC08FB771
:10173000F8940091C8001091C9002091CA0030911E
:10174000CB008FBF8091CC009091CD00A091CE00B6
:10175000B091CF00A9019801281B390B4A0B5B0BF4
:1017600021F421E030E040E050E0E091D000F09141
:10177000D10088EE93E0E89FB001E99F700DF89FDB
:10178000700D1124072E000C880B990BFCD03093A0
:101790004F0120934E011092D1001092D0002FB72C
:1017A000F8948091C8009091C900A091CA00B091AE
:1017B000CB002FBF8093CC009093CD00A093CE00A0
:1017C000B093CF0080E090E0892B09F439C918D498
:1017D00037C9EDE4F1E08FEF808312821182148625
:1017E00013868FEF9FEFDC0187839087A187B287F5
:1017F00008958F929F92AF92BF92CF92DF92EF9215
:10180000FF92CF93DF93EC01688179818A819B817C
:10181000611571058105910521F464E279ED8BE58F
:1018200097E02DE133EF41E050E081D049015A01CA
:101830009B01AC01A7EAB1E496D06B017C01ACEE50
:10184000B4EFA50194019BD0C60ED71EE81EF91E69
:10185000F7FE06C081E0C81AD108E10880E8F80A5E
:10186000C882D982EA82FB82C701B6019F77DF91E5
:10187000CF91FF90EF90DF90CF90BF90AF909F906F
:101880008F9008958F929F92AF92BF92CF92DF92E6
:10189000EF92FF9260916000709161008091620010
:1018A00090916300611571058105910521F464E251
:1018B00079ED8BE597E02DE133EF41E050E037D053
:1018C00049015A019B01AC01A7EAB1E44CD06B017C
:1018D0007C01ACEEB4EFA501940151D0C60ED71E29
:1018E000E81EF91EF7FE06C081E0C81AD108E1081B
:1018F00080E8F80AC0926000D0926100E092620035
:10190000F0926300C701B6019F77FF90EF90DF90E0
:10191000CF90BF90AF909F908F900895609360009C
:101920007093610080936200909363000895052E88
:1019300097FB16F400940FD057FD05D024D007FC78
:1019400002D046F408C050954095309521953F4F00
:101950004F4F5F4F089590958095709561957F4F9B
:101960008F4F9F4F089531D0A59F900DB49F900D3C
:10197000A49F800D911D11240895B7FFF4CFF3DFCC
:10198000821B930B0895A1E21A2EAA1BBB1BFD011B
:101990000DC0AA1FBB1FEE1FFF1FA217B307E4074E
:1019A000F50720F0A21BB30BE40BF50B661F771FA6
:1019B000881F991F1A9469F7609570958095909586
:1019C0009B01AC01BD01CF010895A29FB001B39F5F
:1019D000C001A39F01D0B29F700D811D1124911DE4
:1019E0000895DB018F939F93BEDFBF91AF91A29FBC
:1019F000800D911DA39F900DB29F900D112408950D
:101A000097FB072E16F4009406D077FD08D011D06E
:101A100007FC05D03EF4909581959F4F08957095F1
:101A200061957F4F0895D1DFB7FF0895821B930B17
:101A30000895AA1BBB1B51E107C0AA1FBB1FA61715
:101A4000B70710F0A61BB70B881F991F5A95A9F767
:101A500080959095BC01CD010895EE0FFF1F059074
:101A6000F491E02D099481E090E0F89400C0F8949E
:021A7000FFCFA6
:101A720001000000000000000D040D040D04EC0341
:101A8200E8030703E5030000000067030C030A03F1
:101A9200EC03E80307039A002F01122436485A6C1C
:101AA2007E90A2B4C6D8EAFCEAD8C6B4A2907E6CF4
:061AB2005A48362412120E
:00000001FF
