:1000000045C069C068C067C066C065C064C063C0E1
:1000100062C00DC460C05FC05EC05DC05CC05BC03C
:100020005AC059C058C000000000380035003200E6
:1000300000000000370034003100000000003600EE
:100040003300300004040404040404040202020225
:100050000202030303030303020203010204081064
:1000600020408001020408102001020408102040F2
:1000700080400000000000000000000405070000B0
:1000800000000000000000000000030C11241FBE4F
:10009000CFE5D4E0DEBFCDBF10E0A0E6B0E0E6EAF9
:1000A000FAE102C005900D92AE3EB107D9F722E009
:1000B000AEEEB0E001C01D92A93CB207E1F710E03E
:1000C000C6E4D0E003C02197FE01E1DCC534D107CE
:1000D000D1F7F7D3E6CC94CFE0E8F0E08491E9E6FD
:1000E000F0E09491E2E5F0E0E491EE2301F1882361
:1000F00049F08530A9F08730B1F0843019F48FB51C
:100100008F778FBDF0E0EE0FFF1FE65CFF4FA591EC
:10011000B491EC91E92381E090E059F480E00895F6
:100120008FB58F7DEECF85B58F7D85BDEBCF80E020
:1001300090E0089580E991E008953FB7F8948091A8
:10014000F1009091F200A091F300B091F40022B779
:1001500008B600FE05C02F3F19F00196A11DB11D84
:100160003FBFBA2FA92F982F8827BC01CD01620F5E
:10017000711D811D911D43E0660F771F881F991F18
:100180004A95D1F708958F929F92AF92BF92CF92E6
:10019000DF92EF92FF924B015C01CFDF6B017C019C
:1001A000CCDF6C197D098E099F09683E734081057B
:1001B0009105B0F321E0821A9108A108B10888EEF8
:1001C000C80E83E0D81EE11CF11C81149104A10427
:1001D000B10431F7FF90EF90DF90CF90BF90AF90D8
:1001E0009F908F9008950F931F93CF93DF9320914B
:1001F000EF002F5F322F37703093EF0020FF2AC0BF
:1002000020E831FD2064347009F02062205FFC0199
:10021000EC01239600E011E06485662321F070E094
:10022000C80108DC6F5F6187322F369F030E30E014
:10023000311D1124311110C01682662311F0615056
:1002400061873196EC17FD0739F7DF91CF911F9148
:100250000F91089520E0D5CF31503683EECF4F92E5
:100260005F927F928F929F92AF92BF92CF92DF92D6
:10027000EF92FF920F931F93CF93DF932C01EB012B
:100280005CDFF20127853089621B730B6A307105D0
:10029000B8F3F8948A819B81181619060CF040C1B6
:1002A000E881F98168B3862E689483F838B3377F84
:1002B00038BBDA848F812D2D281B822F2F834F8509
:1002C000042E000C550BAA81BB817D85FC84EE8435
:1002D0007F5FF394E3949E819884B984AB84118109
:1002E000C12C6C2D0C2D2C2D2181112788942111CE
:1002F000280F08F42FEF8195889470FD120F179541
:10030000889471FD120F1795889472FD120F17953E
:10031000889473FD120F1795889474FD120F17952A
:10032000889475FD120F1795889476FD120F179516
:10033000889477FD120F17958894622F7111612FA1
:100340008D0D162F002C88BA17FF38BB2081662729
:10035000889438BB2111290F88BA16FF38BB08F4DE
:100360002FEF9195889438BBF0FC620F88BA15FF87
:1003700038BB67958894F1FC620F38BB6795889409
:1003800088BA14FF38BBF2FC620F6795889438BBBB
:10039000F3FC620F88BA13FF38BB67958894F4FCAE
:1003A000620F38BB6795889488BA12FF38BBF5FC9A
:1003B000620F6795889438BBF6FC620F88BA11FF0C
:1003C00038BB67958894F7FC620F38BB67958894B3
:1003D00088BA10FF38BB122FF110162F9B0D38BBB7
:1003E00000C088BA17FF38BB22816627889438BBC3
:1003F0002111290D88BA16FF38BB08F42FEFE40F3E
:10040000F51F38BBE0FC620F88BA15FF38BB679553
:100410008894E1FC620F38BB6795889488BA14FF12
:1004200038BBE2FC620F6795889438BBE3FC620F2F
:1004300088BA13FF38BB67958894E4FC620F38BB19
:100440006795889488BA12FF38BBE5FC620F679500
:10045000889438BBE6FC620F88BA11FF38BB6795F9
:100460008894E7FC620F38BB6795889488BA10FFC0
:1004700038BB122FE110162F919438BB9A0C002C28
:1004800088BA17FF38BB21816627889438BB2111B1
:10049000280F88BA16FF38BB08F42FEF819588948F
:1004A00038BB70FD620F88BA15FF38BB679588941A
:1004B00071FD620F38BB6795889488BA14FF38BB0A
:1004C00072FD620F6795889438BB73FD620F88BA1E
:1004D00013FF38BB6795889474FD620F38BB67952E
:1004E000889488BA12FF38BB75FD620F67958894AF
:1004F00038BB76FD620F88BA11FF38BB67958894C8
:1005000077FD620F38BB6795889488BA10FF38BBB7
:10051000122F7111162F8D0D38BB119709F013CFC3
:10052000EA81FB8120EF30E0DF0197DA6B017C018B
:10053000A3E0F694E794D794C794AA95D1F730E056
:1005400020E0A9018AE9E89F0E0E411DF89F400DA9
:10055000511D11244F0F511DCA01B0E0A0E0880FBA
:10056000991FAA1FBB1F8C0D9D1DAE1DBF1D893E6F
:1005700043E09407A105B10508F434C0885E9340B8
:10058000A109B10942E0B695A795979587954A9537
:10059000D1F747E0849F080E211D949F200D311D47
:1005A0001124290F311D6091EE0070E0860F971F16
:1005B000820F931F4091100150911101609112011F
:1005C00070911301292F3327420F531F611D711D95
:1005D0004093100150931101609312017093130125
:1005E0008093EE007894A9DDF201708B6787DF912C
:1005F000CF911F910F91FF90EF90DF90CF90BF9020
:10060000AF909F908F907F905F904F90089581E082
:1006100090E00895BB9A08956F927F928F92CF9247
:10062000DF92EF92FF920F931F93CF93DF93CDB79B
:10063000DEB762970FB6F894DEBF0FBECDBF6C0178
:100640007A013801822EDC011C962C91CA0157FFD9
:1006500004C088279927841B950B7A8369839C8320
:100660008B839E838D836D867E868F86213041F5B8
:10067000CE010196B8DD83E0888B1A8A198AF7FECD
:1006800002C08DEF888BD601ED91FC910684F78531
:10069000E02DBE016F5F7F4FC601099562960FB6D0
:1006A000F894DEBF0FBECDBFDF91CF911F910F91A8
:1006B000FF90EF90DF90CF908F907F906F90089594
:1006C0001C861B861A86198618861F82D4CFEF9245
:1006D000FF920F931F93CF93DF93CDB7DEB762974F
:1006E0000FB6F894DEBF0FBECDBF7C01DC011C96B7
:1006F0008C917A8369835C834B835E834D830D8702
:100700001E872F878130F1F4CE0101966CDD188AA7
:100710001A8A198AD701ED91FC910684F785E02D9C
:10072000BE016F5F7F4FC701099562960FB6F894BF
:10073000DEBF0FBECDBFDF91CF911F910F91FF9014
:10074000EF9008951C861B861A86198618861F82CC
:10075000DECF10925E02EEE5F2E081918E5F808343
:1007600082E0E13CF807C9F70895E0E2F1E0619327
:100770007193819392E0EC34F907C9F70895509191
:10078000C6026091C2027091C302A0E2B1E020E013
:10079000E52FE20FE43610F0E456FCCFE60FF72F1A
:1007A000F11D9081882341F08130A1F03FEF82302C
:1007B00021F4392F40E010C030E040E09C931196C6
:1007C0004C93119712963C9312972F5F13962436F1
:1007D000F9F60895492F30E090E0F0CF90E080E006
:1007E0000895FC018585968508950F931F93CF93F7
:1007F000DF9300D01F92CDB7DEB7AB0119821A820A
:100800001B82DC01ED91FC910190F081E02D00E074
:1008100010E020E0BE016F5F7F4F09950F900F90B1
:100820000F90DF91CF911F910F91089536D91F92AC
:100830000F920FB60F9211242F933F938F939F9394
:10084000AF93BF938091100190911101A09112017B
:10085000B09113013091F00026E0230F2D3768F19D
:1008600029E8230F0396A11DB11D2093F00080936A
:10087000100190931101A0931201B0931301809184
:10088000F1009091F200A091F300B091F400019674
:10089000A11DB11D8093F1009093F200A093F3008D
:1008A000B093F400BF91AF919F918F913F912F91A1
:1008B0000F900FBE0F901F9018950296A11DB11DAD
:1008C000D4CFCF93DF93CDB7DEB72A970FB6F89486
:1008D000DEBF0FBECDBF789483B7836083BF89B777
:1008E000816089BF82E08EBD8EB581608EBD8FB57F
:1008F00081608FBD85B5846085BD85B5806485BD0B
:1009000086E886B91AB8E9E6F0E02491E2E5F0E07D
:1009100084918823C9F090E0880F991FFC01E05D65
:10092000FF4F45915491FC01EA5DFF4FA591B491B1
:100930009FB7F894FA013081822F809583238083BA
:10094000EC91E22BEC939FBF80910801811145C08F
:100950001092FA001092F9008FEF8093FD008093BF
:10096000FE008093FF00809300018093010180933B
:10097000020181E0809303011092050110920401AD
:100980001092FC001092FB0080911A0190911B01C3
:10099000892B31F487EF90E090931B0180931A012B
:1009A000E091F500F091F600309721F087EF90E0AC
:1009B0009583848387EF90E09093F6008093F50011
:1009C00010920701109206018EED90E09093F800CE
:1009D0008093F70081E080930801BB9A80E291E068
:1009E0009093FA008093F90084E690E090930501DB
:1009F000809304018091540290915502A091560277
:100A0000B0915702843CF9E09F07A105B10520F49D
:100A100084EC99E0A0E0B0E08093540290935502FA
:100A2000A0935602B093570282E3809351021FBAFB
:100A30001EBAE09A8DB38093C70294E6A92EB12C1A
:100A400024E6422E512C612C712C03E6802E912C31
:100A50008CE4282E82E0382E10E08091C80218170E
:100A6000D0F53ADB892B09F07CC06EE170E080E0C4
:100A700090E089DB31DB892B09F073C08091C702DC
:100A80008F5F8093C7021092C6021092C502109227
:100A9000C4020EE512E01093C3020093C20282E387
:100AA0008093510281E0809350022FB7F894809197
:100AB000100190911101A0911201B09113012FBF6B
:100AC00080934C0290934D02A0934E02B0934F023C
:100AD00003DB892BE9F380915002813029F52FB790
:100AE000F8948091100190911101A0911201B091A0
:100AF00013012FBF40914C0250914D0260914E0264
:100B000070914F02841B950BA60BB70B8033954752
:100B1000A105B10548F01FBA1EBA8091C7028DBB6E
:100B2000E29AE19A109250028091C702843078F5DF
:100B30006FEF70E0882329F08130D1F460E070E835
:100B400080E013DE8091C602809351028233D1F49B
:100B500091E09093C4029091C4029111C8C28F5F3A
:100B6000C7C265E070E080E090E00DDB1F5F75CFED
:100B7000823021F460E070E08FEFE3CF60E870E056
:100B800080E8DFCF8111E7CF1092C402E4CF6FEF8E
:100B900070E0843021F0853031F460E070E880E06E
:100BA000E4DD8FEFA8C2863021F460E070E08FEFC3
:100BB000F7CF873021F460E870E080E8F1CF88302B
:100BC00009F045C13091C602E0E2F1E0A32F50E008
:100BD00040E0B5E5FB2E70E01AEAE12E6FE09A2FB7
:100BE000990F990F990F292F0F2D209F020E20E0AA
:100BF000211D1124822F2A2F2074BA2FB072A7FD35
:100C000006C12111F1C0B11106C0982F9095A82FEF
:100C1000892F90E004C0A5E5A80F90E08BEA272F6C
:100C2000662329F0669F212D112461112F5FB22FB9
:100C3000B095182F0B2F109F010E10E0111D812F62
:100C40001A2F109F010E10E0111DA12F192F109FB8
:100C5000010E10E0111D912F1124820F8083A20F2D
:100C6000A183920F928341575D4F3396A32FA50F17
:100C70004C3D2FEF520709F0B2CF365F3093C602DA
:100C80006093C802D0905102809154029091550215
:100C9000A0915602B0915702892B8A2B8B2BD1F051
:100CA0004CDA00911C0110911D0120911E01309120
:100CB0001F01601B710B820B930B0091540210916A
:100CC0005502209156023091570260177107820732
:100CD0009307D0F232DA60931C0170931D01809368
:100CE0001E0190931F01E0915C02F0915D0230972C
:100CF00059F0409158025091590260915A027091F6
:100D00005B028D2D0995D82EE0901A01F0901B0101
:100D10000D2D10E030E020E00F83188729873A87F7
:100D2000E114F10409F40FC5D7011C96BC91BC83F2
:100D300080915202909153028436910510F4F7018C
:100D40001486D701ED91FC91028113811E830D83DE
:100D500019821A821B82DD2079F1F701369610E0A4
:100D600000E02191222319F1C280CC2001F130E072
:100D700050E040E02F5F3F4F4F4F5F4F6F817885CE
:100D800089859A8548D69B01AC018C2D90E0B0E016
:100D9000A0E0BC01CD016F5F7F4F8F4F9F4F3BD6CF
:100DA000A1E0B0E0AC0FBD1FA00FB11F8C930F5F8F
:100DB0001F4F03301105A9F609811A812B81D70134
:100DC0001D964D915C911E9712966D917C91C70175
:100DD000ED81FE810995EC81D7011C96EC931C975F
:100DE0001496ED90FC909CCFB1110CC0292F1E2DB4
:100DF000219F020E20E0211D11249BEA921BAAEAEA
:100E0000A80F06CFA82FA095982F80E008CF21111A
:100E100012C0B1110CC0292F0E2D209F020E20E010
:100E2000211D1124ABEAA21B95E5920FEECF982F5E
:100E30009095A0E0F4CEB11106C025E5280F9BEAFD
:100E4000981B822FF6CF2AEA280F9F2DF9CF8930E1
:100E500071F560E070E08FEF88DC2091C602822F90
:100E600090E00496322F4FEFE32FF0E08E179F07AC
:100E7000A4F0BF01343658F4660F771FE60FF71F52
:100E8000E05EFE4F4083418312823F5FEDCF6456A8
:100E90007109FB01EE0FFF1FF1CF243619F41092F8
:100EA000C60203C02F5F2093C6028FE024C18A30A0
:100EB00021F58091C602811103C060E070E055DC2D
:100EC000FBD46B017C01F8D4A30192014AD58B01BC
:100ED000000F111F060F171F005E1E4FD8011C9236
:100EE00011961C92C701B6012FEF30E040E050E0B0
:100EF00038D5F80162838AE0FEC08B3059F48091C6
:100F0000C602811103C060E070E02FDC81E08093B5
:100F1000C602D6CF8C3009F051C0E0E2F1E0108279
:100F20001182128233962E163F06C9F78091C602AF
:100F3000982F282F30E0A9014F5F5F4FAFEF692F47
:100F400070E04617570764F0FB01EE0FFF1FE60F36
:100F5000F71FE05EFE4F10821182A2839F5FEFCFEA
:100F600093E6981B01E610E0021B130B98016FEF4C
:100F7000492F50E02417350764F4FA01EE0FFF1FE4
:100F8000E40FF51FE05EFE4F1082118262839150E4
:100F9000EFCF803361F491E09093C4029091C4024A
:100FA00091110AC08F5F8093C60284E1A4C08111B1
:100FB000F5CF1092C402F2CF8150F5CF8D3009F0F9
:100FC0009DC09091C5029F3F89F4E0E2F1E08FEF70
:100FD00080838183128233962E163F06C9F781E003
:100FE0008093C4021092C50283E682C0943691F4C5
:100FF000E0E2F1E08FEF10821182828333962E16A9
:101000003F06C9F71092C40283E68093C50210928E
:10101000C60270C08091C6022091C402981333C0EA
:10102000E0E2F1E090E03FEF891310C013E0819F10
:10103000F0011124E05EFE4F382F4FEF343661F09F
:101040004083418312823F5F3396F8CF1082118232
:1010500032839F5F3396E8CF211104C09150909363
:10106000C502D5CF282F30E0F901EE0FFF1FE20FA8
:10107000F31FE05EFE4F108211828FEF82839F5F2D
:101080009093C502B1CF222361F0E9E4F2E093E648
:101090002FEF8917F8F42083218312829150339720
:1010A000F8CFE0E2F1E09FEF821731F01082118279
:1010B00092832F5F3396F8CF282F30E0F901EE0F9F
:1010C000FF1FE20FF31FE05EFE4F9FEF90839183BF
:1010D000128245CD282F30E0F901EE0FFF1FE20FFD
:1010E000F31FE05EFE4F108211829FEF92838150CA
:1010F0008093C60285E08093C802C4CD8E3041F44F
:1011000020E630E03093C3022093C20282E0F6C2B0
:101110008F3011F41EDBFACF803109F043C219DBA6
:101120008091C502811112C02091C602E9E4F2E06B
:1011300083E69FEF281730F410829183128281504A
:101140003397F8CF81E08093C502A9CE813079F53D
:101150008091C602E9E4F2E093E62FEF891708F1E7
:10116000982F843608F093E6282F30E053E04FEFB5
:10117000F901E91BF109E25AFD4F6081959FF001E9
:101180001124E05EFE4F108241836283915080F70C
:10119000833609F0B9C21092C60282E08093C5027C
:1011A00084CE10822183128291503397D7CF823020
:1011B00059F58091C602A82FB0E0A25ABD4FE9E4CC
:1011C000F2E093E63FEF891738F42D9110823183D6
:1011D000228391503397F7CF982F843608F093E607
:1011E00023E03FEF929FF0011124E05EFE4F10825A
:1011F000318332839150B0F7833609F085C2109263
:10120000C6022093C50251CE833071F58091C6028B
:10121000E9E4F2E093E62FEF891700F1982F843686
:1012200008F093E69401281B3109225A3D4F63E0F0
:101230004FEFF901E90FF11D5081969FF001112444
:10124000E05EFE4F108251834283915090F78336C7
:1012500009F05AC21092C60284E0A0CF1082218306
:10126000228391503397D8CF843059F58091C602AC
:10127000D501A81BB109A25ABD4FE9E4F2E093E6FB
:101280002FEF891738F43E911082318322839150D9
:101290003397F7CF982F843608F093E633E02FEF9B
:1012A000939FF0011124E05EFE4F10821182228391
:1012B0009150B0F7833609F027C21092C60285E03C
:1012C0006DCF853069F58091C602E9E4F2E093E6DE
:1012D0002FEF8917F8F0982F843608F093E663E033
:1012E000482F50E02FEF969FF0011124E05EFE4F53
:1012F000DA01A91BB109A25ABD4F3C91308311827A
:101300002283915080F7833609F0FEC11092C60205
:1013100086E044CF10821182228391503397D9CF37
:10132000863051F58091C602A82FB0E0A25ABD4F79
:10133000E9E4F2E093E62FEF891738F43D9130832A
:101340001182228391503397F7CF982F843608F07B
:1013500093E633E02FEF939FF0011124E05EFE4F00
:101360002083118222839150B0F7833609F0CCC1DB
:101370001092C60287E012CF873071F58091C602C5
:10138000E9E4F2E093E62FEF891700F1982F843615
:1013900008F093E69401281B3109225A3D4F63E07F
:1013A0005FEFF901E90FF11D4081969FF0011124D3
:1013B000E05EFE4F508311824283915090F7833656
:1013C00009F0A2C11092C60288E0E8CE2083118203
:1013D000228391503397D8CF883059F58091C60237
:1013E000D501A81BB109A25ABD4FE9E4F2E093E68A
:1013F0003FEF891738F42E91308311822283915068
:101400003397F7CF982F843608F093E633E02FEF29
:10141000939FF0011124E05EFE4F2083118212821F
:101420009150B0F7833609F06FC11092C60289E07F
:10143000B5CE893069F58091C602E9E4F2E093E621
:101440002FEF8917F8F0982F843608F093E6282FAD
:1014500030E053E04FEFF901E91BF109E25AFD4F8B
:101460006081959FF0011124E05EFE4F408361830F
:101470001282915080F7833609F046C11092C6025D
:101480008AE08CCE20831182128291503397D9CF7B
:101490008A3051F58091C602A82FB0E0A25ABD4F04
:1014A000E9E4F2E093E63FEF891738F42D913083B9
:1014B0002183128291503397F7CF982F843608F00A
:1014C00093E633E02FEF939FF0011124E05EFE4F8F
:1014D0002083218312829150B0F7833609F014C122
:1014E0001092C6028BE05ACE8B3071F58091C60205
:1014F000E9E4F2E093E62FEF891700F1982F8436A4
:1015000008F093E663E09401281B3109225A3D4F0D
:101510004FEF969FF0011124E05EFE4FD901A90F15
:10152000B11D5C91508341831282915090F78336B4
:1015300009F0EAC01092C6028CE030CE20832183ED
:10154000128291503397D8CF8C3009F0AECC809175
:10155000C602D501A81BB109A25ABD4FE9E4F2E0C9
:1015600093E62FEF891738F43E913083218312825E
:1015700091503397F7CF982F843608F093E633E0F5
:101580002FEF939FF0011124E05EFE4F1082218324
:1015900012829150B0F7833609F0B6C01092C6029D
:1015A00081E0FCCD813129F5EEE5F2E0119232E0E7
:1015B000E23CF307D9F7EEE5F2E08FEF819342E0EA
:1015C000E737F407D9F7E0E9F2E08FEF819352E0D3
:1015D000E93AF507D9F781E0D2D88091C60288238D
:1015E00021F01092C60280E586CD89E18093C60283
:1015F000FACF8231C9F4EEE5F2E0119272E0E23CFA
:10160000F707D9F78FEF80935E0280935F02809394
:101610006002809361028093900280939102809394
:1016200092028093930272CD833149F5EEE5F2E0A8
:10163000119282E0E23CF807D9F78FEF8093C10264
:101640008093C0028093BF028093BE0281E097D84E
:101650008091C602803661F491E09093C40290912B
:10166000C40291110AC08F5F8093C60288E043CD07
:101670008111F5CF1092C402F2CF8150F5CF8431A1
:10168000A1F5EEE5F2E0119292E0E23CF907D9F71C
:101690008FEF8093C1028093C0028093BF0280933A
:1016A000BE0280E06CD88091C6028336D1F480916E
:1016B000C5021092C602883069F491E09093C4028A
:1016C0009091C40291110BC08F5F8093C5028091ED
:1016D000C50211CD8130A1F71092C402F1CF815023
:1016E000F4CF8F5F8093C602F2CF853189F4A0E6F4
:1016F000B0E0B093C302A093C20283E040D88091CF
:10170000C602833609F4CBCB8F5F8093C602CDCB64
:101710008631B1F4EEE5F2E060E250E440E630E814
:1017200020EA90EC80EE60835183428333832483EC
:10173000958386833796B2E0E03CFB07A1F7E6CCC1
:101740001092C7029FCA80911801909119019C01C3
:101750002F5F3F4F309319012093180149970CF4E4
:101760004BC08FB7F8940091100110911101209196
:101770001201309113018FBF8091140190911501D6
:10178000A0911601B0911701A9019801281B390BEE
:101790004A0B5B0B21F421E030E040E050E0E091A7
:1017A0001801F091190188EE93E0E89FB001E99FDC
:1017B000700DF89F700D1124072E000C880B990BEB
:1017C000FCD03093530220935202109219011092D0
:1017D00018012FB7F8948091100190911101A091F8
:1017E0001201B09113012FBF809314019093150142
:1017F000A0931601B093170180E090E0892B09F4C3
:101800002BC9FED322C9E1E5F2E08FEF808312827B
:101810001182148613868FEF9FEFDC0187839087F8
:10182000A187B28708958F929F92AF92BF92CF9275
:10183000DF92EF92FF92CF93DF93EC016881798181
:101840008A819B81611571058105910521F464E20E
:1018500079ED8BE597E02DE133EF41E050E081D069
:1018600049015A019B01AC01A7EAB1E496D06B0192
:101870007C01ACEEB4EFA50194019BD0C60ED71E3F
:10188000E81EF91EF7FE06C081E0C81AD108E1087B
:1018900080E8F80AC882D982EA82FB82C701B601D1
:1018A0009F77DF91CF91FF90EF90DF90CF90BF9027
:1018B000AF909F908F9008958F929F92AF92BF921A
:1018C000CF92DF92EF92FF926091C4007091C500B9
:1018D0008091C6009091C700611571058105910541
:1018E00021F464E279ED8BE597E02DE133EF41E0FF
:1018F00050E037D049015A019B01AC01A7EAB1E49D
:101900004CD06B017C01ACEEB4EFA501940151D039
:10191000C60ED71EE81EF91EF7FE06C081E0C81AE3
:10192000D108E10880E8F80AC092C400D092C5004E
:10193000E092C600F092C700C701B6019F77FF9002
:10194000EF90DF90CF90BF90AF909F908F900895D1
:101950006093C4007093C5008093C6009093C70045
:101960000895052E97FB16F400940FD057FD05D06F
:1019700024D007FC02D046F408C05095409530951D
:1019800021953F4F4F4F5F4F0895909580957095EB
:1019900061957F4F8F4F9F4F089531D0A59F900D38
:1019A000B49F900DA49F800D911D11240895B7FF41
:1019B000F4CFF3DF821B930B0895A1E21A2EAA1B2A
:1019C000BB1BFD010DC0AA1FBB1FEE1FFF1FA217EF
:1019D000B307E407F50720F0A21BB30BE40BF50BEC
:1019E000661F771F881F991F1A9469F76095709575
:1019F000809590959B01AC01BD01CF010895A29FF8
:101A0000B001B39FC001A39F01D0B29F700D811D93
:101A10001124911D0895DB018F939F93BEDFBF9129
:101A2000AF91A29F800D911DA39F900DB29F900D2D
:101A30001124089597FB072E16F4009406D077FD25
:101A400008D011D007FC05D03EF4909581959F4FAA
:101A50000895709561957F4F0895D1DFB7FF089580
:101A6000821B930B0895AA1BBB1B51E107C0AA1F41
:101A7000BB1FA617B70710F0A61BB70B881F991F2F
:101A80005A95A9F780959095BC01CD010895EE0F68
:101A9000FF1F0590F491E02D099481E090E0F89407
:061AA00000C0F894FFCF26
:101AA600122436485A6C7E90A2B4C6D8EAFCEAD80C
:101AB600C6B4A2907E6C5A4836241212000000006A
:101AC6000000000000000000000000000000000010
:101AD6000000000000000000000000000000000000
:101AE60000000000000000000000000000000000F0
:101AF60000000000000000000000000000000000E0
:101B0600000000000100000000000000160416049A
:101B16001604F503F1030703EE0300000000670354
:0E1B26000C030A03F503F10307039A002F01D5
:00000001FF
