:1000000045C069C068C067C066C065C064C063C0E1
:1000100062C02EC560C05FC05EC05DC05CC05BC01A
:100020005AC059C058C000000000380035003200E6
:1000300000000000370034003100000000003600EE
:100040003300300004040404040404040202020225
:100050000202030303030303020203010204081064
:1000600020408001020408102001020408102040F2
:1000700080400000000000000000000405070000B0
:1000800000000000000000000000D70B11241FBE7C
:10009000CFE5D4E0DEBFCDBF10E0A0E6B0E0EEE4F7
:1000A000FAE102C005900D92A03AB107D9F721E01C
:1000B000A0EAB0E001C01D92A633B207E1F710E05C
:1000C000C6E4D0E003C02197FE01B5DCC534D107FA
:1000D000D1F718D5BACC94CFE0E8F0E08491E9E606
:1000E000F0E09491E2E5F0E0E491EE2301F1882361
:1000F00049F08530A9F08730B1F0843019F48FB51C
:100100008F778FBDF0E0EE0FFF1FE65CFF4FA591EC
:10011000B491EC91E92381E090E059F480E00895F6
:100120008FB58F7DEECF85B58F7D85BDEBCF80E020
:1001300090E0089580E991E008953FB7F8948091A8
:10014000A3009091A400A091A500B091A60022B7B1
:1001500008B600FE05C02F3F19F00196A11DB11D84
:100160003FBFBA2FA92F982F8827BC01CD01620F5E
:10017000711D811D911D43E0660F771F881F991F18
:100180004A95D1F708954F925F926F927F929F9216
:10019000AF92BF92CF92DF92EF92FF920F931F9395
:1001A000CF93DF9300D01F92CDB7DEB7D090290157
:1001B00080912C0190912D01A0912E01B0912F01E1
:1001C000892B8A2B8B2BD1F0B8DF00912501109160
:1001D00026012091270130912801601B710B820BB1
:1001E000930B00912C0110912D0120912E01309143
:1001F0002F016017710782079307D0F29EDF60938B
:100200002501709326018093270190932801E091A6
:100210003401F0913501309759F0409130015091FF
:10022000310160913201709133018D2D0995D82EE5
:10023000E0902301F09024014D2C512C712C612C65
:10024000E114F10409F457C0D7011C96CC901C9717
:1002500080912A0190912B018436910510F41C960F
:100260001C92D701ED91FC91A280B38019821A8271
:100270001B82DD2069F1F701369610E000E0219144
:10028000222309F192809920F1F030E050E040E023
:100290002F5F3F4F4F4F5F4FC301B20190DB9B0178
:1002A000AC01892D90E0B0E0A0E0BC01CD016F5F12
:1002B0007F4F8F4F9F4F83DBA1E0B0E0AC0FBD1F9E
:1002C000A00FB11F8C930F5F1F4F03301105B9F6BC
:1002D00009811A812B81F7014585568562817381D9
:1002E000C701F5010995D7011C96CC921C9714966D
:1002F000ED90FC90A5CF80912101909122019C016D
:100300002F5F3F4F309322012093210149970CF436
:1003100049C08FB7F8942091190130911A0140918A
:100320001B0150911C018FBF80911D0190911E01F6
:10033000A0911F01B0912001281B390B4A0B5B0BC8
:1003400021F421E030E040E050E0E0912101F09123
:10035000220188EE93E0E89FB001E99F700DF89FBD
:10036000700D1124072E000C880B990BFADA3093CC
:100370002B0120932A0110922201109221012FB704
:10038000F8948091190190911A01A0911B01B091EC
:100390001C012FBF80931D0190931E01A0931F018C
:1003A000B09320010F900F900F90DF91CF911F918C
:1003B0000F91FF90EF90DF90CF90BF90AF909F9004
:1003C0007F906F905F904F9008958F929F92AF9221
:1003D000BF92CF92DF92EF92FF924B015C01ADDEB4
:1003E0006B017C01AADE6C197D098E099F09683EAC
:1003F000734081059105B0F321E0821A9108A108AC
:10040000B10888EEC80E83E0D81EE11CF11C8114EF
:100410009104A104B10431F7FF90EF90DF90CF90E9
:10042000BF90AF909F908F9008950F931F93CF939D
:10043000DF932091A1002F5F322F37703093A100FE
:1004400020FF2AC020E831FD2064347009F02062CA
:10045000205FFC01EC01239600E011E06485662337
:1004600021F070E0C801BADA6F5F6187322F369FE2
:10047000030E30E0311D1124311110C016826623A5
:1004800011F0615061873196EC17FD0739F7DF9164
:10049000CF911F910F91089520E0D5CF3150368331
:1004A000EECF4F925F927F928F929F92AF92BF92C8
:1004B000CF92DF92EF92FF920F931F93CF93DF9330
:1004C0002C01EB013ADEF20127853089621B730BA8
:1004D0006A307105B8F3F8948A819B811816190661
:1004E0000CF040C1E881F98168B3862E689483F8E6
:1004F00038B3377F38BBDA848F812D2D281B822FAC
:100500002F834F85042E000C550BAA81BB817D855E
:10051000FC84EE847F5FF394E3949E819884B98495
:10052000AB841181C12C6C2D0C2D2C2D2181112718
:1005300088942111280F08F42FEF8195889470FD7D
:10054000120F1795889471FD120F1795889472FDFC
:10055000120F1795889473FD120F1795889474FDE8
:10056000120F1795889475FD120F1795889476FDD4
:10057000120F1795889477FD120F17958894622FA4
:100580007111612F8D0D162F002C88BA17FF38BB03
:1005900020816627889438BB2111290F88BA16FF5D
:1005A00038BB08F42FEF9195889438BBF0FC620FAC
:1005B00088BA15FF38BB67958894F1FC620F38BB89
:1005C0006795889488BA14FF38BBF2FC620F679570
:1005D000889438BBF3FC620F88BA13FF38BB679569
:1005E0008894F4FC620F38BB6795889488BA12FF30
:1005F00038BBF5FC620F6795889438BBF6FC620F38
:1006000088BA11FF38BB67958894F7FC620F38BB36
:100610006795889488BA10FF38BB122FF110162FF7
:100620009B0D38BB00C088BA17FF38BB22816627F4
:10063000889438BB2111290D88BA16FF38BB08F4FD
:100640002FEFE40FF51F38BBE0FC620F88BA15FFEF
:1006500038BB67958894E1FC620F38BB6795889436
:1006600088BA14FF38BBE2FC620F6795889438BBE8
:10067000E3FC620F88BA13FF38BB67958894E4FCEB
:10068000620F38BB6795889488BA12FF38BBE5FCC7
:10069000620F6795889438BBE6FC620F88BA11FF39
:1006A00038BB67958894E7FC620F38BB67958894E0
:1006B00088BA10FF38BB122FE110162F919438BB67
:1006C0009A0C002C88BA17FF38BB218166278894C2
:1006D00038BB2111280F88BA16FF38BB08F42FEF5A
:1006E0008195889438BB70FD620F88BA15FF38BBBE
:1006F0006795889471FD620F38BB6795889488BAB6
:1007000014FF38BB72FD620F6795889438BB73FD88
:10071000620F88BA13FF38BB6795889474FD620F27
:1007200038BB6795889488BA12FF38BB75FD620F95
:100730006795889438BB76FD620F88BA11FF38BB85
:100740006795889477FD620F38BB6795889488BA5F
:1007500010FF38BB122F7111162F8D0D38BB11975A
:1007600009F013CFEA81FB8120EF30E0DF0149D9A6
:100770006B017C01A3E0F694E794D794C794AA9503
:10078000D1F730E020E0A9018AE9E89F0E0E411D73
:10079000F89F400D511D11244F0F511DCA01B0E0AB
:1007A000A0E0880F991FAA1FBB1F8C0D9D1DAE1DB9
:1007B000BF1D893E43E09407A105B10508F434C08C
:1007C000885E9340A109B10942E0B695A795979537
:1007D00087954A95D1F747E0849F080E211D949F85
:1007E000200D311D1124290F311D6091A00070E0F2
:1007F000860F971F820F931F4091190150911A0184
:1008000060911B0170911C01292F3327420F531F48
:10081000611D711D4093190150931A0160931B01D2
:1008200070931C018093A000789487DCF201708B98
:100830006787DF91CF911F910F91FF90EF90DF902D
:10084000CF90BF90AF909F908F907F905F904F9090
:10085000089581E090E00895BB9A08956F927F9289
:100860008F92CF92DF92EF92FF920F931F93CF93CD
:10087000DF93CDB7DEB762970FB6F894DEBF0FBE39
:10088000CDBF6C017A013801822EDC011C962C91BF
:10089000CA0157FF04C088279927841B950B7A83C8
:1008A00069839C838B839E838D836D867E868F86F2
:1008B000213041F5CE010196B8DD83E0888B1A8A9C
:1008C000198AF7FE02C08DEF888BD601ED91FC915D
:1008D0000684F785E02DBE016F5F7F4FC601099545
:1008E00062960FB6F894DEBF0FBECDBFDF91CF91F9
:1008F0001F910F91FF90EF90DF90CF908F907F909E
:100900006F9008951C861B861A86198618861F828A
:10091000D4CFEF92FF920F931F93CF93DF93CDB776
:10092000DEB762970FB6F894DEBF0FBECDBF7C0175
:10093000DC011C968C917A8369835C834B835E8394
:100940004D830D871E872F878130F1F4CE010196EC
:100950006CDD188A1A8A198AD701ED91FC910684F8
:10096000F785E02DBE016F5F7F4FC7010995629645
:100970000FB6F894DEBF0FBECDBFDF91CF911F91B0
:100980000F91FF90EF9008951C861B861A8619869A
:1009900018861F82DECFCF92DF92EF926B01E82E96
:1009A0001092D6008091D600843180F4282F30E058
:1009B000F901EE0FFF1FE20FF31FE952FF4FC08254
:1009C000D182E2828F5F8093D600ECCFEF90DF90F0
:1009D000CF90089590911601A7EDB0E044E1490F42
:1009E0004917C9F0ECEEE90F943108F4E92FF0E073
:1009F000EE53FF4F2081813011F430E002C0322FDE
:100A000020E01C9211962C93119712963C9312970A
:100A100013969F5FE5CF84E18093D600089590E020
:100A200080E00895FC018585968508950F931F93B6
:100A3000CF93DF9300D01F92CDB7DEB7AB01198201
:100A40001A821B82DC01ED91FC910190F081E02D76
:100A500000E010E020E0BE016F5F7F4F09950F902E
:100A60000F900F90DF91CF911F910F910895E9D7CB
:100A70001F920F920FB60F9211242F933F938F93D3
:100A80009F93AF93BF938091190190911A01A09108
:100A90001B01B0911C013091A20026E0230F2D37DD
:100AA00068F129E8230F0396A11DB11D2093A20030
:100AB0008093190190931A01A0931B01B0931C011C
:100AC0008091A3009091A400A091A500B091A600F0
:100AD0000196A11DB11D8093A3009093A400A09343
:100AE000A500B093A600BF91AF919F918F913F91C8
:100AF0002F910F900FBE0F901F9018950296A11D79
:100B0000B11DD4CF789483B7836083BF89B78160E8
:100B100089BF82E08EBD8EB581608EBD8FB581604C
:100B20008FBD85B5846085BD85B5806485BD86E84B
:100B300086B91AB8E9E6F0E02491E2E5F0E08491A4
:100B40008823C1F090E0880F991FFC01E05DFF4F02
:100B5000C591D491FC01EA5DFF4FA591B4919FB777
:100B6000F8943881822F809583238883EC91E22B3F
:100B7000EC939FBF8091BA00811145C01092AC00E8
:100B80001092AB008FEF8093AF008093B000809302
:100B9000B1008093B2008093B3008093B40081E0F1
:100BA0008093B5001092B7001092B6001092AE007C
:100BB0001092AD008091230190912401892B31F492
:100BC00089EA90E09093240180932301E091A700AB
:100BD000F091A800309721F089EA90E09583848312
:100BE00089EA90E09093A8008093A7001092B90042
:100BF0001092B8008BE790E09093AA008093A90030
:100C000081E08093BA00BB9A87ED90E09093AC00AE
:100C10008093AB0084E190E09093B7008093B6009E
:100C200080912C0190912D01A0912E01B0912F0166
:100C3000843C09E09007A105B10520F484EC99E01B
:100C4000A0E0B0E080932C0190932D01A0932E01A1
:100C5000B0932F0182E380932901C4E12C2E312C23
:100C6000D3E18D2E912CC12CD12C7601CA941BEA94
:100C7000C1E0D4E110921801B090180180911701E1
:100C8000B816E0F429DA892B79F56EE170E080E09E
:100C900090E09BDB21DA892B39F5809160008F5F32
:100CA00080936000109216011092150122E32093A8
:100CB0002901C093140110DA892BE9F380916000B7
:100CC0006FEF70E0882329F08130B9F460E070E8BC
:100CD00080E061DE58DA8FEF80931701E0E0F0E00A
:100CE000EF2B41F28DD9C4CF65E070E080E090E059
:100CF0006CDBB394B0921801BFCF823021F460E076
:100D000070E08FEFE6CF833021F460E870E080E898
:100D1000E0CF6FEF70E0843021F08530E1F460E0E7
:100D200070E880E038DE80911601809329012BDA8B
:100D3000809116018233D9F4C0931301909113016D
:100D4000911104C08F5F8093160103C081509130D0
:100D5000D1F385E0C1CF863021F460E070E08FEF01
:100D6000E1CF873049F460E870E080E8DBCF8111A3
:100D7000E5CF10921301E2CF883009F087C070915F
:100D80001601E7EDF0E0472F90E080E0B5E560E088
:100D9000AFE0342F330F330F330F232F5B2F259FFB
:100DA000020E20E0211D1124042F0074542F5072D4
:100DB00047FD4EC001113AC0511106C0322F309587
:100DC000422F232F30E004C045E5420F30E02BEAEC
:100DD000562F0A2F002329F0009F512D11240111B5
:100DE0005F5FB52EB0940B2D209F020E20E0211DD9
:100DF000409F040E40E0411D309F030E30E0311D46
:100E00001124250F2083450F4183350F32838453EE
:100E1000934F3396472F490F803F2FEF920709F0EA
:100E2000B8CFB1D980911601865F8DCF51110BC01B
:100E30004AEA349F030E30E0311D1124012F031BB9
:100E4000302F420FBECF422F4095322F20E0C0CF2F
:100E5000011110C051110AC02AEA329F030E30E07E
:100E6000311D1124412F431B3B5AF0CF322F3095B7
:100E700040E0AECF511106C045E5420F312F321B85
:100E8000242FF6CF4AEA420F3B2FF9CF893071F574
:100E900060E070E08FEF7FDD40911601242F30E09D
:100EA0002C5F3F4F542F6FEF852F90E028173907A5
:100EB00084F0543160F4FC01EE0FFF1FE80FF91FBE
:100EC000E952FF4F6083618312825F5FEDCF4497E9
:100ED000F2CF5093D600443119F41092160103C09A
:100EE0004F5F409316014FD98FE0F6CE8A3041F51F
:100EF00080911601811103C060E070E04CDDB0D438
:100F00002B013C01ADD424E130E040E050E0FDD4C1
:100F10005B01AA0CBB1C6A0D7B1DAB0149525F4FE4
:100F20005A01DA011C9211961C92C301B201A70169
:100F30009601EBD4F50162838AE0809317015FC0CC
:100F40008B3051F480911601811103C060E070E094
:100F500022DDC0931601D3CF8C3009F05BC0E7EDE2
:100F6000F0E085E1815029F01082118212823396DF
:100F7000F9CFA0911601BA2F2A2F30E0B9016F5F87
:100F80007F4FBB24BA948B2F90E0BF5F681779071F
:100F900064F0AC01440F551F840F951FFC01E9520A
:100FA000FF4F10821182B282EECF83E18A1B41E1B2
:100FB00050E0421B530B7FEF282F30E06FEF680F9C
:100FC000421753076CF4C901880F991F820F931FB2
:100FD000FC01E952FF4F108211827283862FECCF01
:100FE0008093D600A83069F4C09313018091130157
:100FF00081110CC0AF5FA0931601D0931701C3D825
:101000006DCEA111F3CF10921301F0CF8130A9F76B
:10101000A150F1CF8D3009F0B9C080911401813019
:1010200061F460E070E08FEFB6DCD09315011092B0
:1010300016011092130110921401209115012F3FF7
:10104000A9F4E7EDF0E085E19FEF815029F090836E
:10105000918312823396F9CFD093D600C0931301B7
:101060001092150183E18093160116C02431B1F46A
:10107000E7EDF0E085E19FEF815029F010821182C9
:1010800092833396F9CFD093D6001092130183E167
:10109000809315011092160185E04FCF80911601C3
:1010A00090911301E7EDF0E0281333C040E02FEFFB
:1010B000841310C003E0809FF0011124E952FF4F18
:1010C000282F3FEF243160F43083318312822F5F69
:1010D0003396F8CF1082118222834F5F3396E8CF88
:1010E0002093D600911104C0415040931501D2CFF6
:1010F00090E09C01220F331F820F931FFC01E952E5
:10110000FF4F108211828FEF82834F5F4093150152
:10111000A9CF91111BC02FEF891731F010821182D6
:1011200022839F5F3396F8CF8093D600482F50E0FC
:101130009A01220F331F240F351FF901E952FF4F87
:101140009FEF9083918312828F5F8DCF93E12FEF7A
:101150003397891728F424AF25AF16AE9150F8CFF6
:10116000982F843108F093E19093D600482F50E0F7
:101170009A01220F331F240F351FF901E952FF4F47
:10118000108211829FEF928381506DCF8E3039F59E
:1011900060911601E7EDF0E030E020E0462F50E0EE
:1011A000CA01820F931F84319105B0F089589F4F77
:1011B000DC018C911082118282832F5F3F4F339626
:1011C0002431310569F7D093D600633109F485CE17
:1011D0006F5F6093160187CE85579F4FE9CF8F30A1
:1011E000F1F480911401882379F01092C200E2ECAE
:1011F000F0E094E1915021F08191845F8083FACFF7
:10120000D09318011092140182E0E4DB8091160162
:10121000833109F462CE8F5F8093160164CE8031F2
:1012200009F075C280911401882379F01092C200F0
:10123000E2ECF0E094E1915021F08191845F8083B1
:10124000FACFD093180110921401809115018111E9
:1012500016C080911601E7EDF0E093E12FEF339790
:10126000891728F414AE25AF16AE9150F8CF84310B
:1012700008F083E18093D600C09315012ECE813013
:1012800089F520911601E7EDF0E083E19FEF3397B8
:10129000281718F1322F243108F033E1822F90E023
:1012A00053E04FEFFC01E31BF109EE53FF4F608168
:1012B000359FF0011124E952FF4F10824183628370
:1012C000315080F73093D600233109F0EBC11092F2
:1012D000160182E08093150106CE14AE95AF16AECE
:1012E0008150D5CF823069F580911601A82FB0E0EA
:1012F000AE53BF4FE7EDF0E093E13FEF339789172F
:10130000D0F0982F843108F093E123E03FEF929FD3
:10131000F0011124E952FF4F108231833283915042
:10132000B0F79093D600833109F075CF1092160173
:1013300020931501D8CD2D9114AE35AF26AF915025
:10134000DDCF833081F520911601E7EDF0E083E1F8
:101350009FEF3397281710F1322F243108F033E133
:10136000C401821B91098E539F4F53E04FEFFC0144
:10137000E30FF11D6081359FF0011124E952FF4F09
:10138000108261834283315090F73093D60023312D
:1013900009F088C11092160184E09CCF14AE95AF7D
:1013A00096AF8150D6CF843069F580911601D10176
:1013B000A81BB109AE53BF4FE7EDF0E093E12FEF6B
:1013C00033978917C8F0982F843108F093E133E000
:1013D0002FEF939FF0011124E952FF4F10821182E9
:1013E00022839150B0F79093D600833109F013CF48
:1013F0001092160185E06ECF3E9114AE35AF26AF48
:101400009150DECF853079F520911601E7EDF0E0BF
:1014100083E19FEF3397281708F1322F243108F02A
:1014200033E153E0822F90E04FEF359FF00111241C
:10143000E952FF4FDC01A31BB109AE53BF4F6C91C2
:10144000608311824283315080F73093D60023317C
:1014500009F028C11092160186E03CCF14AE15AEFB
:1014600096AF8150D7CF863061F580911601A82FB5
:10147000B0E0AE53BF4FE7EDF0E093E12FEF3397CD
:101480008917C8F0982F843108F093E133E02FEFEB
:10149000939FF0011124E952FF4F20831182228390
:1014A0009150B0F79093D600833109F0B4CE1092EA
:1014B000160187E00FCF3D9134AF15AE26AF9150A6
:1014C000DECF873081F520911601E7EDF0E083E172
:1014D0009FEF3397281710F1322F243108F033E1B2
:1014E000C401821B91098E539F4F53E04FEFFC01C3
:1014F000E30FF11D6081359FF0011124E952FF4F88
:10150000408311826283315090F73093D6002331AB
:1015100009F0C8C01092160188E0DCCE94AF15AE79
:1015200096AF8150D6CF883069F580911601D101F0
:10153000A81BB109AE53BF4FE7EDF0E093E13FEFD9
:1015400033978917C8F0982F843108F093E133E07E
:101550002FEF939FF0011124E952FF4F2083118256
:1015600012829150B0F79093D600833109F053CE98
:101570001092160189E0AECE2E9134AF15AE26AF93
:101580009150DECF893079F520911601E7EDF0E03A
:1015900083E19FEF3397281708F1322F243108F0A9
:1015A00033E1822F90E053E04FEFFC01E31BF109A0
:1015B000EE53FF4F6081359FF0011124E952FF4F38
:1015C000408361831282315080F73093D6002331FB
:1015D00009F068C0109216018AE07CCE94AF15AE77
:1015E00016AE8150D7CF8A3061F580911601A82FB1
:1015F000B0E0AE53BF4FE7EDF0E093E13FEF33973C
:101600008917C8F0982F843108F093E133E02FEF69
:10161000939FF0011124E952FF4F2083218312820E
:101620009150B0F79093D600833109F0F4CD109229
:1016300016018BE04FCE2D9134AF25AF16AE9150F1
:10164000DECF8B3099F520911601E7EDF0E083E1D4
:101650009FEF3397281708F1322F243108F033E138
:1016600043E0C401821B91098E539F4F5FEF349F6B
:10167000F0011124E952FF4FDC01A30FB11D6C9161
:10168000608351831282315090F73093D60023311A
:1016900049F4109216018CE01DCE94AF95AF16AEB2
:1016A0008150D7CF2F5F209316011DCC8C3009F0CD
:1016B0001ACC80911601D101A81BB109AE53BF4FBE
:1016C000E7EDF0E093E12FEF33978917D0F0982FF3
:1016D000843108F093E133E02FEF939FF001112460
:1016E000E952FF4F1082218312829150B0F79093FC
:1016F000D600833109F08FCD10921601C0931501E9
:10170000F2CB3E9134AF25AF16AE9150DDCF813193
:1017100071F5E2ECF0E085E1815011F01192FCCF1F
:101720008FEF8093C2008093C3008093C4008093A6
:10173000C5008093C6008093CC008093CD00809339
:10174000CE008093CF008093D0008FE08093D600AE
:1017500081E040D980911601882329F0109216016A
:1017600012D580E5B9CA85E080931601F9CF8231A0
:10177000D9F4E2ECF0E085E1815011F01192FCCF58
:10178000D093D6008FEF8093C2008093C3008093E4
:10179000C4008093C5008093CC008093CD008093DB
:1017A000CE008093CF0030CD1092600097CAE9E25E
:1017B000F1E08FEF808312821182148613868FEFFF
:1017C0009FEFDC0187839087A187B28708958F926E
:1017D0009F92AF92BF92CF92DF92EF92FF92CF9300
:1017E000DF93EC01688179818A819B8161157105A4
:1017F0008105910521F464E279ED8BE597E02DE117
:1018000033EF41E050E081D049015A019B01AC0126
:10181000A7EAB1E496D06B017C01ACEEB4EFA50170
:1018200094019BD0C60ED71EE81EF91EF7FE06C017
:1018300081E0C81AD108E10880E8F80AC882D98294
:10184000EA82FB82C701B6019F77DF91CF91FF90BB
:10185000EF90DF90CF90BF90AF909F908F900895C2
:101860008F929F92AF92BF92CF92DF92EF92FF92B0
:1018700060916100709162008091630090916400BA
:10188000611571058105910521F464E279ED8BE51F
:1018900097E02DE133EF41E050E037D049015A01A4
:1018A0009B01AC01A7EAB1E44CD06B017C01ACEE2A
:1018B000B4EFA501940151D0C60ED71EE81EF91E43
:1018C000F7FE06C081E0C81AD108E10880E8F80AEE
:1018D000C0926100D0926200E0926300F0926400D6
:1018E000C701B6019F77FF90EF90DF90CF90BF9038
:1018F000AF909F908F900895609361007093620005
:1019000080936300909364000895052E97FB16F46E
:1019100000940FD057FD05D024D007FC02D046F428
:1019200008C050954095309521953F4F4F4F5F4FE0
:10193000089590958095709561957F4F8F4F9F4F3B
:10194000089531D0A59F900DB49F900DA49F800D58
:10195000911D11240895B7FFF4CFF3DF821B930B81
:101960000895A1E21A2EAA1BBB1BFD010DC0AA1FE0
:10197000BB1FEE1FFF1FA217B307E407F50720F0F8
:10198000A21BB30BE40BF50B661F771F881F991F73
:101990001A9469F760957095809590959B01AC01BC
:1019A000BD01CF010895A29FB001B39FC001A39FC5
:1019B00001D0B29F700D811D1124911D0895DB018E
:1019C0008F939F93BEDFBF91AF91A29F800D911D1A
:1019D000A39F900DB29F900D1124089597FB072EA1
:1019E00016F4009406D077FD08D011D007FC05D07E
:1019F0003EF4909581959F4F0895709561957F4F26
:101A00000895D1DFB7FF0895821B930B0895AA1B99
:101A1000BB1B51E107C0AA1FBB1FA617B70710F0D9
:101A2000A61BB70B881F991F5A95A9F7809590950B
:101A3000BC01CD010895EE0FFF1F0590F491E02D3C
:0E1A4000099481E090E0F89400C0F894FFCF84
:101A4E000E010000000000000037053705370516AF
:101A5E0005120529040F050000000089042E042C30
:101A6E00041605120529049A00510219324B647DA1
:101A7E0096AFC8E1FAE1C8AF967D644B32191900F2
:00000001FF
