:1000000045C069C068C067C066C065C064C063C0E1
:1000100062C040C560C05FC05EC05DC05CC05BC008
:100020005AC059C058C000000000380035003200E6
:1000300000000000370034003100000000003600EE
:100040003300300004040404040404040202020225
:100050000202030303030303020203010204081064
:1000600020408001020408102001020408102040F2
:1000700080400000000000000000000405070000B0
:1000800000000000000000000000880C11241FBECA
:10009000CFE5D4E0DEBFCDBF10E0A0E6B0E0E0EBFE
:1000A000FBE102C005900D92AE39B107D9F721E00E
:1000B000AEE9B0E001C01D92AA33B207E1F710E04B
:1000C000C6E4D0E003C02197FE0166DDC534D10748
:1000D000D1F72AD56BCD94CFE0E8F0E08491E9E642
:1000E000F0E09491E2E5F0E0E491EE2301F1882361
:1000F00049F08530A9F08730B1F0843019F48FB51C
:100100008F778FBDF0E0EE0FFF1FE65CFF4FA591EC
:10011000B491EC91E92381E090E059F480E00895F6
:100120008FB58F7DEECF85B58F7D85BDEBCF80E020
:1001300090E0089580E991E008953FB7F8948091A8
:10014000A1009091A200A091A300B091A40022B7B9
:1001500008B600FE05C02F3F19F00196A11DB11D84
:100160003FBFBA2FA92F982F8827BC01CD01620F5E
:10017000711D811D911D43E0660F771F881F991F18
:100180004A95D1F708954F925F926F927F929F9216
:10019000AF92BF92CF92DF92EF92FF920F931F9395
:1001A000CF93DF9300D01F92CDB7DEB7D0902D0153
:1001B0008091300190913101A0913201B0913301D1
:1001C000892B8A2B8B2BD1F0B8DF0091290110915C
:1001D0002A0120912B0130912C01601B710B820BA5
:1001E000930B009130011091310120913201309137
:1001F00033016017710782079307D0F29EDF609387
:10020000290170932A0180932B0190932C01E09196
:100210003801F0913901309759F0409134015091F3
:10022000350160913601709137018D2D0995D82ED9
:10023000E0902701F09028014D2C512C712C612C5D
:10024000E114F10409F457C0D7011C96CC901C9717
:1002500080912E0190912F018436910510F41C9607
:100260001C92D701ED91FC91A280B38019821A8271
:100270001B82DD2069F1F701369610E000E0219144
:10028000222309F192809920F1F030E050E040E023
:100290002F5F3F4F4F4F5F4FC301B20141DC9B01C6
:1002A000AC01892D90E0B0E0A0E0BC01CD016F5F12
:1002B0007F4F8F4F9F4F34DCA1E0B0E0AC0FBD1FEC
:1002C000A00FB11F8C930F5F1F4F03301105B9F6BC
:1002D00009811A812B81F7014585568562817381D9
:1002E000C701F5010995D7011C96CC921C9714966D
:1002F000ED90FC90A5CF80912501909126019C0165
:100300002F5F3F4F309326012093250149970CF42E
:1003100049C08FB7F89420911D0130911E01409182
:100320001F01509120018FBF8091210190912201E6
:10033000A0912301B0912401281B390B4A0B5B0BC0
:1003400021F421E030E040E050E0E0912501F0911F
:10035000260188EE93E0E89FB001E99F700DF89FB9
:10036000700D1124072E000C880B990BABDB30931A
:100370002F0120932E0110922601109225012FB7F4
:10038000F89480911D0190911E01A0911F01B091E0
:1003900020012FBF8093210190932201A09323017C
:1003A000B09324010F900F900F90DF91CF911F9188
:1003B0000F91FF90EF90DF90CF90BF90AF909F9004
:1003C0007F906F905F904F9008958F929F92AF9221
:1003D000BF92CF92DF92EF92FF924B015C01ADDEB4
:1003E0006B017C01AADE6C197D098E099F09683EAC
:1003F000734081059105B0F321E0821A9108A108AC
:10040000B10888EEC80E83E0D81EE11CF11C8114EF
:100410009104A104B10431F7FF90EF90DF90CF90E9
:10042000BF90AF909F908F9008950F931F93CF939D
:10043000DF9320919F002F5F322F377030939F0002
:1004400020FF2AC020E831FD2064347009F02062CA
:10045000205FFC01EC01239600E011E06485662337
:1004600021F070E0C8016BDB6F5F6187322F369F30
:10047000030E30E0311D1124311110C016826623A5
:1004800011F0615061873196EC17FD0739F7DF9164
:10049000CF911F910F91089520E0D5CF3150368331
:1004A000EECF4F925F927F928F929F92AF92BF92C8
:1004B000CF92DF92EF92FF920F931F93CF93DF9330
:1004C0002C01EB013ADEF20127853089621B730BA8
:1004D0006A307105B8F3F8948A819B811816190661
:1004E0000CF040C1E881F98168B3862E689483F8E6
:1004F00038B3377F38BBDA848F812D2D281B822FAC
:100500002F834F85042E000C550BAA81BB817D855E
:10051000FC84EE847F5FF394E3949E819884B98495
:10052000AB841181C12C6C2D0C2D2C2D2181112718
:1005300088942111280F08F42FEF8195889470FD7D
:10054000120F1795889471FD120F1795889472FDFC
:10055000120F1795889473FD120F1795889474FDE8
:10056000120F1795889475FD120F1795889476FDD4
:10057000120F1795889477FD120F17958894622FA4
:100580007111612F8D0D162F002C88BA17FF38BB03
:1005900020816627889438BB2111290F88BA16FF5D
:1005A00038BB08F42FEF9195889438BBF0FC620FAC
:1005B00088BA15FF38BB67958894F1FC620F38BB89
:1005C0006795889488BA14FF38BBF2FC620F679570
:1005D000889438BBF3FC620F88BA13FF38BB679569
:1005E0008894F4FC620F38BB6795889488BA12FF30
:1005F00038BBF5FC620F6795889438BBF6FC620F38
:1006000088BA11FF38BB67958894F7FC620F38BB36
:100610006795889488BA10FF38BB122FF110162FF7
:100620009B0D38BB00C088BA17FF38BB22816627F4
:10063000889438BB2111290D88BA16FF38BB08F4FD
:100640002FEFE40FF51F38BBE0FC620F88BA15FFEF
:1006500038BB67958894E1FC620F38BB6795889436
:1006600088BA14FF38BBE2FC620F6795889438BBE8
:10067000E3FC620F88BA13FF38BB67958894E4FCEB
:10068000620F38BB6795889488BA12FF38BBE5FCC7
:10069000620F6795889438BBE6FC620F88BA11FF39
:1006A00038BB67958894E7FC620F38BB67958894E0
:1006B00088BA10FF38BB122FE110162F919438BB67
:1006C0009A0C002C88BA17FF38BB218166278894C2
:1006D00038BB2111280F88BA16FF38BB08F42FEF5A
:1006E0008195889438BB70FD620F88BA15FF38BBBE
:1006F0006795889471FD620F38BB6795889488BAB6
:1007000014FF38BB72FD620F6795889438BB73FD88
:10071000620F88BA13FF38BB6795889474FD620F27
:1007200038BB6795889488BA12FF38BB75FD620F95
:100730006795889438BB76FD620F88BA11FF38BB85
:100740006795889477FD620F38BB6795889488BA5F
:1007500010FF38BB122F7111162F8D0D38BB11975A
:1007600009F013CFEA81FB8120EF30E0DF01FAD9F5
:100770006B017C01A3E0F694E794D794C794AA9503
:10078000D1F730E020E0A9018AE9E89F0E0E411D73
:10079000F89F400D511D11244F0F511DCA01B0E0AB
:1007A000A0E0880F991FAA1FBB1F8C0D9D1DAE1DB9
:1007B000BF1D893E43E09407A105B10508F434C08C
:1007C000885E9340A109B10942E0B695A795979537
:1007D00087954A95D1F747E0849F080E211D949F85
:1007E000200D311D1124290F311D60919E0070E0F4
:1007F000860F971F820F931F40911D0150911E017C
:1008000060911F0170912001292F3327420F531F40
:10081000611D711D40931D0150931E0160931F01C6
:100820007093200180939E00789487DCF201708B96
:100830006787DF91CF911F910F91FF90EF90DF902D
:10084000CF90BF90AF909F908F907F905F904F9090
:10085000089581E090E00895BB9A08956F927F9289
:100860008F92CF92DF92EF92FF920F931F93CF93CD
:10087000DF93CDB7DEB762970FB6F894DEBF0FBE39
:10088000CDBF6C017A013801822EDC011C962C91BF
:10089000CA0157FF04C088279927841B950B7A83C8
:1008A00069839C838B839E838D836D867E868F86F2
:1008B000213041F5CE010196B8DD83E0888B1A8A9C
:1008C000198AF7FE02C08DEF888BD601ED91FC915D
:1008D0000684F785E02DBE016F5F7F4FC601099545
:1008E00062960FB6F894DEBF0FBECDBFDF91CF91F9
:1008F0001F910F91FF90EF90DF90CF908F907F909E
:100900006F9008951C861B861A86198618861F828A
:10091000D4CFEF92FF920F931F93CF93DF93CDB776
:10092000DEB762970FB6F894DEBF0FBECDBF7C0175
:10093000DC011C968C917A8369835C834B835E8394
:100940004D830D871E872F878130F1F4CE010196EC
:100950006CDD188A1A8A198AD701ED91FC910684F8
:10096000F785E02DBE016F5F7F4FC7010995629645
:100970000FB6F894DEBF0FBECDBFDF91CF911F91B0
:100980000F91FF90EF9008951C861B861A8619869A
:1009900018861F82DECF1092C000E0ECF0E094E1F8
:1009A000915021F08191845F8083FACF84E180931C
:1009B0001C010895CF92DF92EF926B01E82E109206
:1009C000D4008091D400843180F4282F30E0F901E4
:1009D000EE0FFF1FE20FF31FEB52FF4FC082D182D9
:1009E000E2828F5F8093D400ECCFEF90DF90CF90C6
:1009F000089550911901A5EDB0E090E0E52FE90FC1
:100A0000E43110F0E451FCCFF0E0E054FF4F2081DE
:100A100030E040E0882339F0322F40E0813011F49B
:100A2000422F30E020E02C9311964C9311971296B0
:100A30003C9312979F5F1396943101F79093D400E3
:100A4000089590E080E00895FC01858596850895DD
:100A50000F931F93CF93DF9300D01F92CDB7DEB7D4
:100A6000AB0119821A821B82DC01ED91FC9101908D
:100A7000F081E02D00E010E020E0BE016F5F7F4FCD
:100A800009950F900F900F90DF91CF911F910F91CB
:100A9000089588D81F920F920FB60F9211242F93AA
:100AA0003F938F939F93AF93BF9380911D0190913C
:100AB0001E01A0911F01B09120013091A00026E0FD
:100AC000230F2D3768F129E8230F0396A11DB11DCF
:100AD0002093A00080931D0190931E01A0931F01FD
:100AE000B09320018091A1009091A200A091A30059
:100AF000B091A4000196A11DB11D8093A100909317
:100B0000A200A093A300B093A400BF91AF919F91C6
:100B10008F913F912F910F900FBE0F901F901895BE
:100B20000296A11DB11DD4CF789483B7836083BF93
:100B300089B7816089BF82E08EBD8EB581608EBD30
:100B40008FB581608FBD85B5846085BD85B58064B6
:100B500085BD86E886B91AB8E9E6F0E02491E2E5B9
:100B6000F0E084918823C1F090E0880F991FFC0188
:100B7000E05DFF4FC591D491FC01EA5DFF4FA59167
:100B8000B4919FB7F8943881822F8095832388830E
:100B9000EC91E22BEC939FBF8091B800811145C08E
:100BA0001092AA001092A9008FEF8093AD0080935D
:100BB000AE008093AF008093B0008093B10080932B
:100BC000B20081E08093B3001092B5001092B4009F
:100BD0001092AC001092AB008091270190912801F7
:100BE000892B31F487EA90E09093280180932701C4
:100BF000E091A500F091A600309721F087EA90E0FF
:100C00009583848387EA90E09093A6008093A50063
:100C10001092B7001092B6008AE790E09093A80077
:100C20008093A70081E08093B800BB9A85ED90E0A7
:100C30009093AA008093A90084E190E09093B5007E
:100C40008093B4008091300190913101A0913201E4
:100C5000B0913301843C29E09207A105B10520F44D
:100C600084EC99E0A0E0B0E08093300190933101F2
:100C7000A0933201B093330182E380932D011FBA18
:100C80001EBAE09A8DB380931A01C3E003E1202ECF
:100C9000312C84E1482E512C612C712CC12CD12C8B
:100CA0007601CA94DBEA10921C0110911C0180911C
:100CB0001B011817B0F510DA892B09F072C06EE12C
:100CC00070E080E090E081DB07DA892B09F069C0F1
:100CD00080911A018F5F80931A011092190110926E
:100CE00018011092170182E380932D0181E0809317
:100CF0001601809315012FB7F89480911D019091F2
:100D00001E01A0911F01B09120012FBF80931101FE
:100D100090931201A0931301B0931401DDD9892B94
:100D2000E9F380911501813029F52FB7F89480916E
:100D30001D0190911E01A0911F01B09120012FBFB4
:100D400040911101509112016091130170911401B1
:100D5000841B950BA60BB70B80339547A105B105F6
:100D600048F01FBA1EBA80911A018DBBE29AE19A2F
:100D70001092150180911A016FEF70E0882329F01D
:100D80008130C1F460E070E880E014DEFCD98FEFC0
:100D900080931B01E0E0F0E0EF2B09F484CF30D921
:100DA00081CF65E070E080E090E00FDB1F5F109383
:100DB0001C017BCF823021F460E070E08FEFE5CF43
:100DC000833021F460E870E080E8DFCF6FEF70E0FF
:100DD000843021F08530D9F460E070E880E0EADD0D
:100DE0008091190180932D01CED980911901823310
:100DF000D1F491E09093170190911701911102C0E5
:100E00008F5F01C081508093190185E0C1CF86308A
:100E100021F460E070E08FEFE2CF873049F460E8C2
:100E200070E080E8DCCF8111E7CF10921701E4CFAA
:100E3000883009F084C0A0911901E5EDF0E04A2F57
:100E400090E080E005E570E01FE0342F330F330FB2
:100E5000330F232F209F020E20E0211D1124642F29
:100E60006074542F507247FD4CC0611138C051114D
:100E700006C0322F3095422F232F30E004C045E5C5
:100E8000420F30E02BEA572F112329F0119F512DEB
:100E9000112411115F5F652F6095269F020E20E0DF
:100EA000211D469F040E40E0411D369F030E30E099
:100EB000311D1124250F2083450F4183350F3283C7
:100EC0008453934F33964A2F490F803FBFEF9B07C0
:100ED00009F0BBCF58D980911901865F94CF511189
:100EE0000BC04AEA349F030E30E0311D1124BD2FA0
:100EF000B31B3B2F420FC0CF422F4095322F20E033
:100F0000C2CF611110C051110AC02AEA329F030EEC
:100F100030E0311D11244D2F431B3B5AF0CF322FAF
:100F2000309540E0B0CF511106C045E5420F3D2F4E
:100F3000321B242FF6CF4AEA420F302FF9CF8930E7
:100F400089F560E070E08FEF35DD20911901822F87
:100F500090E00496322F6FEFE32FF0E08E179F079B
:100F6000A4F0AF01343158F4440F551FE40FF51FBE
:100F7000EB52FF4F6083618312823F5FEDCF44519C
:100F80005109FA01EE0FFF1FF1CF3093D400243145
:100F900019F41092190103C02F5F20931901F3D89F
:100FA0008FE0F6CE8A3029F580911901811103C0B6
:100FB00060E070E0FFDC05D54B015C0102D5A301C8
:100FC000920154D58B01000F111F060F171F0B52F2
:100FD0001F4FF80110821182C501B401A7019601CB
:100FE00045D5D80112966C938AE080931B01CBD82B
:100FF000D1CE8B3059F480911901811103C060E08A
:1010000070E0D8DC81E080931901D5CF8C3009F0F5
:1010100057C0E5EDF0E085E1815029F010821182A2
:1010200012823396F9CFA0911901BA2F2A2F30E0FE
:10103000B9016F5F7F4F1FEF8B2F90E0BF5F681785
:10104000790764F0AC01440F551F840F951FFC0114
:10105000EB52FF4F108211821283EECF83E18A1B85
:1010600041E150E0421B530B7FEF282F30E06FEF40
:10107000680F421753076CF4C901880F991F820F3C
:10108000931FFC01EB52FF4F108211827283862F57
:10109000ECCF8093D400A83061F481E080931701F5
:1010A0008091170181110AC0AF5FA093190184E1FB
:1010B0009CCFA111F5CF10921701F2CFA150F5CF1F
:1010C0008D3009F0BFC080911601813069F460E075
:1010D00070E08FEF6FDC84E18093180110921901AA
:1010E0001092170110921601209118012F3FB9F4A8
:1010F000E5EDF0E085E19FEF815029F09083918349
:1011000012823396F9CF84E18093D40081E08093FA
:1011100017011092180183E18093190117C024313F
:10112000B9F4E5EDF0E085E19FEF815029F0108200
:10113000118292833396F9CF84E18093D400109288
:10114000170183E1809318011092190185E04DCFBA
:101150008091190190911701E5EDF0E0281332C05C
:1011600040E02FEF84130FC08C9FF0011124EB524D
:10117000FF4F282F3FEF243160F4308331831282F8
:101180002F5F3396F8CF1082118222834F5F339600
:10119000E9CF2093D400911104C04150409318012D
:1011A000D3CF90E09C01220F331F820F931FFC01CD
:1011B000EB52FF4F108211828FEF82834F5F40937B
:1011C0001801A9CF91111EC02FEF41E0490F9817C8
:1011D00031F0108211822283942F3396F6CF9093B0
:1011E000D400892F90E09C01220F331F820F931FA0
:1011F000FC01EB52FF4F8FEF80838183128240937B
:101200001901A4CF93E12FEF3397891728F424AF66
:1012100025AF16AE9150F8CF982F843108F093E1A6
:101220009093D400482F50E09A01220F331F240FCF
:10123000351FF901EB52FF4F108211829FEF92830D
:1012400081506ACF8E3041F560911901E5EDF0E0F3
:1012500030E020E0462F50E0CA01820F931F843116
:101260009105B8F08A589F4FDC018C911082118251
:1012700082832F5F3F4F33962431310569F784E134
:101280008093D400633109F484CE6F5F60931901B9
:1012900086CE86579F4FE8CF8F3091F4809116010C
:1012A000882319F078DB1092160182E0A2DB80918E
:1012B0001901833109F46DCE8F5F809319016FCED0
:1012C000803109F06BC280911601882319F063DB2D
:1012D0001092160180911801811117C08091190197
:1012E000E5EDF0E093E12FEF3397891728F414AE82
:1012F00025AF16AE9150F8CF843108F083E180938A
:10130000D40081E08093180144CE813081F5209192
:101310001901E5EDF0E083E19FEF3397281710F115
:10132000322F243108F033E1822F90E04FEFFC019F
:10133000E31BF109E054FF4F50813C9FF001112461
:10134000EB52FF4F108241835283315080F730932C
:10135000D400233109F020CE1092190182E080934D
:1013600018011DCE14AE95AF16AE8150D6CF823087
:1013700069F580911901A82FB0E0A054BF4FE5EDA9
:10138000F0E093E13FEF33978917D0F0982F843145
:1013900008F093E12FEF9C9FF0011124EB52FF4FD7
:1013A0001082218322839150B0F79093D40083312F
:1013B00009F082CF10921901B3E0B0931801EFCD7C
:1013C0002D9114AE35AF26AF9150DDCF833079F536
:1013D00020911901E5EDF0E083E19FEF33972817A5
:1013E00008F1322F243108F033E1C101821B910949
:1013F00080549F4F4FEFFC01E30FF11D50813C9F44
:10140000F0011124EB52FF4F10825183428331507F
:1014100090F73093D400233109F0BECD109219011A
:1014200084E09DCF14AE95AF96AF8150D7CF843076
:1014300069F580911901A4E1B0E0A81BB109A0549D
:10144000BF4FE5EDF0E093E12FEF33978917C0F040
:10145000982F843108F093E12FEF9C9FF001112425
:10146000EB52FF4F1082118222839150B0F790937C
:10147000D400833109F020CF1092190185E06FCF9D
:101480003E9114AE35AF26AF9150DFCF853071F568
:1014900020911901E5EDF0E083E19FEF33972817E4
:1014A00000F1322F243108F033E1822F90E04FEF2A
:1014B0003C9FF0011124EB52FF4FDC01A31BB1094B
:1014C000A054BF4F5C91508311824283315080F70A
:1014D0003093D400233109F05FCD1092190186E0DA
:1014E0003ECF14AE15AE96AF8150D8CF863059F5A9
:1014F00080911901A82FB0E0A054BF4FE5EDF0E0B6
:1015000093E12FEF33978917C0F0982F843108F0BB
:1015100093E12FEF9C9FF0011124EB52FF4F2083AA
:10152000118222839150B0F79093D400833109F057
:10153000C3CE1092190187E012CF3D9134AF15AEA2
:1015400026AF9150DFCF873079F520911901E5ED75
:10155000F0E083E19FEF3397281708F1322F243111
:1015600008F033E1C101821B910980549F4F4FEF76
:10157000FC01E30FF11D50813C9FF0011124EB525F
:10158000FF4F408311825283315090F73093D40043
:10159000233109F001CD1092190188E0E0CE94AF1B
:1015A00015AE96AF8150D7CF883091F58091190153
:1015B000A4E1B0E0A81BB109A054BF4FE5EDF0E0F5
:1015C00093E13FEF3397891798F0E82F843108F0C3
:1015D000E3E12FEF9FEF9E0F9E3F81F0EC9FF00124
:1015E0001124EB52FF4F208311821282E92FF2CF98
:1015F0002E9134AF15AE26AF9150E4CF9FEF90936C
:10160000D400833109F058CE1092190189E0A7CE99
:10161000893071F520911901E5EDF0E083E19FEF4C
:101620003397281700F1322F243108F033E1822F4D
:1016300090E04FEFFC01E31BF109E054FF4F5081B4
:101640003C9FF0011124EB52FF4F408351831282E3
:10165000315080F73093D400233109F09DCC1092A3
:1016600019018AE07CCE94AF15AE16AE8150D8CF6A
:101670008A3059F580911901A82FB0E0A054BF4FCE
:10168000E5EDF0E093E13FEF33978917C0F0982F35
:10169000843108F093E12FEF9C9FF0011124EB526D
:1016A000FF4F2083218312829150B0F79093D40092
:1016B000833109F001CE109219018BE050CE2D91AB
:1016C00034AF25AF16AE9150DFCF8B30B9F52091F6
:1016D0001901E5EDF0E083E19FEF33972817F8F06B
:1016E000E22F243108F0E3E1C101821B910980540B
:1016F0009F4F4FEF3FEF3E0F3E3FB1F0EC9FD001C9
:101700001124AB52BF4FE80FF92FF11D50815C93AC
:1017100011964C93119712961C92E32FEBCF94AF36
:1017200095AF16AE8150D9CF8FEF8093D40023317F
:1017300009F032CC109219018CE011CE8C3009F0F6
:101740002ECC80911901A4E1B0E0A81BB109A054EE
:10175000BF4FE5EDF0E093E12FEF33978917C0F02D
:10176000982F843108F093E12FEF9C9FF001112412
:10177000EB52FF4F1082218312829150B0F7909369
:10178000D400833109F098CD1092190181E0E7CDA2
:101790003E9134AF25AF16AE9150DFCF813171F558
:1017A000E0ECF0E085E1815011F01192FCCF8FEF79
:1017B0008093C0008093C1008093C2008093C300D7
:1017C0008093C4008093CA008093CB008093CC00A8
:1017D0008093CD008093CE008FE08093D40081E091
:1017E00008D980911901882329F010921901CBD4CE
:1017F00080E5CECA85E080931901F9CF8231E1F40A
:10180000E0ECF0E085E1815011F01192FCCF84E131
:101810008093D4008FEF8093C0008093C1008093A9
:10182000C2008093C3008093CA008093CB00809352
:10183000CC008093CD0039CD833169F5E0ECF0E048
:1018400085E1815011F01192FCCF84E18093D400A6
:101850008FEF8093D3008093D2008093D100809348
:10186000D00081E0C6D880911901803169F491E0FF
:10187000909317019091170191110BC08F5F809386
:10188000190181D488E084CA8111F4CF1092170124
:10189000F1CF8150F4CF8431C1F5E0ECF0E085E187
:1018A000815011F01192FCCF84E18093D4008FEF2E
:1018B0008093D3008093D2008093D1008093D00096
:1018C00080E097D8809119018331D9F410921901E1
:1018D00080911801883071F491E0909317019091F4
:1018E000170191110CC08F5F809318014CD4809127
:1018F00018014ECA813099F710921701F0CF81502C
:10190000F3CF8F5F80931901F1CF10921A0142CA71
:10191000EDE2F1E08FEF808312821182148613864C
:101920008FEF9FEFDC0187839087A187B2870895AF
:101930008F929F92AF92BF92CF92DF92EF92FF92DF
:10194000CF93DF93EC01688179818A819B81611556
:1019500071058105910521F464E279ED8BE597E04D
:101960002DE133EF41E050E081D049015A019B0164
:10197000AC01A7EAB1E496D06B017C01ACEEB4EF08
:10198000A50194019BD0C60ED71EE81EF91EF7FED6
:1019900006C081E0C81AD108E10880E8F80AC882C8
:1019A000D982EA82FB82C701B6019F77DF91CF918E
:1019B000FF90EF90DF90CF90BF90AF909F908F906F
:1019C00008958F929F92AF92BF92CF92DF92EF9243
:1019D000FF9260916000709161008091620090912F
:1019E0006300611571058105910521F464E279EDCB
:1019F0008BE597E02DE133EF41E050E037D049012E
:101A00005A019B01AC01A7EAB1E44CD06B017C0107
:101A1000ACEEB4EFA501940151D0C60ED71EE81E5E
:101A2000F91EF7FE06C081E0C81AD108E10880E877
:101A3000F80AC0926000D0926100E0926200F092D9
:101A40006300C701B6019F77FF90EF90DF90CF90C2
:101A5000BF90AF909F908F900895609360007093B7
:101A6000610080936200909363000895052E97FBB8
:101A700016F400940FD057FD05D024D007FC02D0F7
:101A800046F408C050954095309521953F4F4F4FF3
:101A90005F4F089590958095709561957F4F8F4F1A
:101AA0009F4F089531D0A59F900DB49F900DA49F96
:101AB000800D911D11240895B7FFF4CFF3DF821B31
:101AC000930B0895A1E21A2EAA1BBB1BFD010DC0AA
:101AD000AA1FBB1FEE1FFF1FA217B307E407F507DE
:101AE00020F0A21BB30BE40BF50B661F771F881FBA
:101AF000991F1A9469F760957095809590959B0150
:101B0000AC01BD01CF010895A29FB001B39FC001F8
:101B1000A39F01D0B29F700D811D1124911D0895C6
:101B2000DB018F939F93BEDFBF91AF91A29F800D8A
:101B3000911DA39F900DB29F900D1124089597FBC6
:101B4000072E16F4009406D077FD08D011D007FCBC
:101B500005D03EF4909581959F4F089570956195BD
:101B60007F4F0895D1DFB7FF0895821B930B08952F
:101B7000AA1BBB1B51E107C0AA1FBB1FA617B707B3
:101B800010F0A61BB70B881F991F5A95A9F78095CF
:101B90009095BC01CD010895EE0FFF1F0590F491C3
:101BA000E02D099481E090E0F89400C0F894FFCF14
:101BB000010000000000000049054905490528050D
:101BC0002405290421050000000089042E042C04AA
:101BD0002805240529049A00510219324B647D9688
:0E1BE000AFC8E1FAE1C8AF967D644B32191927
:00000001FF
