:1000000045C069C068C067C066C065C064C063C0E1
:1000100062C040C560C05FC05EC05DC05CC05BC008
:100020005AC059C058C000000000380035003200E6
:1000300000000000370034003100000000003600EE
:100040003300300004040404040404040202020225
:100050000202030303030303020203010204081064
:1000600020408001020408102001020408102040F2
:1000700080400000000000000000000405070000B0
:1000800000000000000000000000910C11241FBEC1
:10009000CFE5D4E0DEBFCDBF10E0A0E6B0E0E2ECFB
:1000A000FBE102C005900D92A63AB107D9F721E015
:1000B000A6EAB0E001C01D92A236B207E1F710E057
:1000C000C6E4D0E003C02197FE016FDDC534D1073F
:1000D000D1F72AD574CD94CFE0E8F0E08491E9E639
:1000E000F0E09491E2E5F0E0E491EE2301F1882361
:1000F00049F08530A9F08730B1F0843019F48FB51C
:100100008F778FBDF0E0EE0FFF1FE65CFF4FA591EC
:10011000B491EC91E92381E090E059F480E00895F6
:100120008FB58F7DEECF85B58F7D85BDEBCF80E020
:1001300090E0089580E991E008953FB7F8948091A8
:10014000A9009091AA00A091AB00B091AC0022B799
:1001500008B600FE05C02F3F19F00196A11DB11D84
:100160003FBFBA2FA92F982F8827BC01CD01620F5E
:10017000711D811D911D43E0660F771F881F991F18
:100180004A95D1F708954F925F926F927F929F9216
:10019000AF92BF92CF92DF92EF92FF920F931F9395
:1001A000CF93DF9300D01F92CDB7DEB7D09055012B
:1001B0008091580190915901A0915A01B0915B0131
:1001C000892B8A2B8B2BD1F0B8DF00915101109134
:1001D00052012091530130915401601B710B820B2D
:1001E000930B009158011091590120915A013091BF
:1001F0005B016017710782079307D0F29EDF60935F
:100200005101709352018093530190935401E091F6
:100210006001F0916101309759F040915C0150917B
:100220005D0160915E0170915F018D2D0995D82E61
:10023000E0904F01F09050014D2C512C712C612C0D
:10024000E114F10409F457C0D7011C96CC901C9717
:1002500080915601909157018436910510F41C96B7
:100260001C92D701ED91FC91A280B38019821A8271
:100270001B82DD2069F1F701369610E000E0219144
:10028000222309F192809920F1F030E050E040E023
:100290002F5F3F4F4F4F5F4FC301B2014ADC9B01BD
:1002A000AC01892D90E0B0E0A0E0BC01CD016F5F12
:1002B0007F4F8F4F9F4F3DDCA1E0B0E0AC0FBD1FE3
:1002C000A00FB11F8C930F5F1F4F03301105B9F6BC
:1002D00009811A812B81F7014585568562817381D9
:1002E000C701F5010995D7011C96CC921C9714966D
:1002F000ED90FC90A5CF80914D0190914E019C0115
:100300002F5F3F4F30934E0120934D0149970CF4DE
:1003100049C08FB7F8942091450130914601409132
:100320004701509148018FBF8091490190914A0146
:10033000A0914B01B0914C01281B390B4A0B5B0B70
:1003400021F421E030E040E050E0E0914D01F091F7
:100350004E0188EE93E0E89FB001E99F700DF89F91
:10036000700D1124072E000C880B990BB4DB309311
:1003700057012093560110924E0110924D012FB754
:10038000F8948091450190914601A0914701B09168
:1003900048012FBF8093490190934A01A0934B01DC
:1003A000B0934C010F900F900F90DF91CF911F9160
:1003B0000F91FF90EF90DF90CF90BF90AF909F9004
:1003C0007F906F905F904F9008958F929F92AF9221
:1003D000BF92CF92DF92EF92FF924B015C01ADDEB4
:1003E0006B017C01AADE6C197D098E099F09683EAC
:1003F000734081059105B0F321E0821A9108A108AC
:10040000B10888EEC80E83E0D81EE11CF11C8114EF
:100410009104A104B10431F7FF90EF90DF90CF90E9
:10042000BF90AF909F908F9008950F931F93CF939D
:10043000DF932091A7002F5F322F37703093A700F2
:1004400020FF2AC020E831FD2064347009F02062CA
:10045000205FFC01EC01239600E011E06485662337
:1004600021F070E0C80174DB6F5F6187322F369F27
:10047000030E30E0311D1124311110C016826623A5
:1004800011F0615061873196EC17FD0739F7DF9164
:10049000CF911F910F91089520E0D5CF3150368331
:1004A000EECF4F925F927F928F929F92AF92BF92C8
:1004B000CF92DF92EF92FF920F931F93CF93DF9330
:1004C0002C01EB013ADEF20127853089621B730BA8
:1004D0006A307105B8F3F8948A819B811816190661
:1004E0000CF040C1E881F98168B3862E689483F8E6
:1004F00038B3377F38BBDA848F812D2D281B822FAC
:100500002F834F85042E000C550BAA81BB817D855E
:10051000FC84EE847F5FF394E3949E819884B98495
:10052000AB841181C12C6C2D0C2D2C2D2181112718
:1005300088942111280F08F42FEF8195889470FD7D
:10054000120F1795889471FD120F1795889472FDFC
:10055000120F1795889473FD120F1795889474FDE8
:10056000120F1795889475FD120F1795889476FDD4
:10057000120F1795889477FD120F17958894622FA4
:100580007111612F8D0D162F002C88BA17FF38BB03
:1005900020816627889438BB2111290F88BA16FF5D
:1005A00038BB08F42FEF9195889438BBF0FC620FAC
:1005B00088BA15FF38BB67958894F1FC620F38BB89
:1005C0006795889488BA14FF38BBF2FC620F679570
:1005D000889438BBF3FC620F88BA13FF38BB679569
:1005E0008894F4FC620F38BB6795889488BA12FF30
:1005F00038BBF5FC620F6795889438BBF6FC620F38
:1006000088BA11FF38BB67958894F7FC620F38BB36
:100610006795889488BA10FF38BB122FF110162FF7
:100620009B0D38BB00C088BA17FF38BB22816627F4
:10063000889438BB2111290D88BA16FF38BB08F4FD
:100640002FEFE40FF51F38BBE0FC620F88BA15FFEF
:1006500038BB67958894E1FC620F38BB6795889436
:1006600088BA14FF38BBE2FC620F6795889438BBE8
:10067000E3FC620F88BA13FF38BB67958894E4FCEB
:10068000620F38BB6795889488BA12FF38BBE5FCC7
:10069000620F6795889438BBE6FC620F88BA11FF39
:1006A00038BB67958894E7FC620F38BB67958894E0
:1006B00088BA10FF38BB122FE110162F919438BB67
:1006C0009A0C002C88BA17FF38BB218166278894C2
:1006D00038BB2111280F88BA16FF38BB08F42FEF5A
:1006E0008195889438BB70FD620F88BA15FF38BBBE
:1006F0006795889471FD620F38BB6795889488BAB6
:1007000014FF38BB72FD620F6795889438BB73FD88
:10071000620F88BA13FF38BB6795889474FD620F27
:1007200038BB6795889488BA12FF38BB75FD620F95
:100730006795889438BB76FD620F88BA11FF38BB85
:100740006795889477FD620F38BB6795889488BA5F
:1007500010FF38BB122F7111162F8D0D38BB11975A
:1007600009F013CFEA81FB8120EF30E0DF0103DAEB
:100770006B017C01A3E0F694E794D794C794AA9503
:10078000D1F730E020E0A9018AE9E89F0E0E411D73
:10079000F89F400D511D11244F0F511DCA01B0E0AB
:1007A000A0E0880F991FAA1FBB1F8C0D9D1DAE1DB9
:1007B000BF1D893E43E09407A105B10508F434C08C
:1007C000885E9340A109B10942E0B695A795979537
:1007D00087954A95D1F747E0849F080E211D949F85
:1007E000200D311D1124290F311D6091A60070E0EC
:1007F000860F971F820F931F40914501509146012C
:100800006091470170914801292F3327420F531FF0
:10081000611D711D4093450150934601609347014E
:10082000709348018093A600789487DCF201708B66
:100830006787DF91CF911F910F91FF90EF90DF902D
:10084000CF90BF90AF909F908F907F905F904F9090
:10085000089581E090E00895BB9A08956F927F9289
:100860008F92CF92DF92EF92FF920F931F93CF93CD
:10087000DF93CDB7DEB762970FB6F894DEBF0FBE39
:10088000CDBF6C017A013801822EDC011C962C91BF
:10089000CA0157FF04C088279927841B950B7A83C8
:1008A00069839C838B839E838D836D867E868F86F2
:1008B000213041F5CE010196B8DD83E0888B1A8A9C
:1008C000198AF7FE02C08DEF888BD601ED91FC915D
:1008D0000684F785E02DBE016F5F7F4FC601099545
:1008E00062960FB6F894DEBF0FBECDBFDF91CF91F9
:1008F0001F910F91FF90EF90DF90CF908F907F909E
:100900006F9008951C861B861A86198618861F828A
:10091000D4CFEF92FF920F931F93CF93DF93CDB776
:10092000DEB762970FB6F894DEBF0FBECDBF7C0175
:10093000DC011C968C917A8369835C834B835E8394
:100940004D830D871E872F878130F1F4CE010196EC
:100950006CDD188A1A8A198AD701ED91FC910684F8
:10096000F785E02DBE016F5F7F4FC7010995629645
:100970000FB6F894DEBF0FBECDBFDF91CF911F91B0
:100980000F91FF90EF9008951C861B861A8619869A
:1009900018861F82DECF1092C800E8ECF0E09CE1E0
:1009A000915021F08191875F8083FACF8CE1809311
:1009B00044010895CF92DF92EF926B01E82E1092DE
:1009C000E4008091E4008C3180F4282F30E0F901BC
:1009D000EE0FFF1FE20FF31FEB51FF4FC082D182DA
:1009E000E2828F5F8093E400ECCFEF90DF90CF90B6
:1009F000089550914101A5EEB0E090E0E52FE90F98
:100A0000EC3110F0EC51FCCFF0E0E853FF4F2081C7
:100A100030E040E0882339F0322F40E0813011F49B
:100A2000422F30E020E02C9311964C9311971296B0
:100A30003C9312979F5F13969C3101F79093E400CB
:100A4000089590E080E00895FC01858596850895DD
:100A50000F931F93CF93DF9300D01F92CDB7DEB7D4
:100A6000AB0119821A821B82DC01ED91FC9101908D
:100A7000F081E02D00E010E020E0BE016F5F7F4FCD
:100A800009950F900F900F90DF91CF911F910F91CB
:100A9000089591D81F920F920FB60F9211242F93A1
:100AA0003F938F939F93AF93BF9380914501909114
:100AB0004601A0914701B09148013091A80026E07D
:100AC000230F2D3768F129E8230F0396A11DB11DCF
:100AD0002093A8008093450190934601A09347017D
:100AE000B09348018091A9009091AA00A091AB0019
:100AF000B091AC000196A11DB11D8093A900909307
:100B0000AA00A093AB00B093AC00BF91AF919F91AE
:100B10008F913F912F910F900FBE0F901F901895BE
:100B20000296A11DB11DD4CF789483B7836083BF93
:100B300089B7816089BF82E08EBD8EB581608EBD30
:100B40008FB581608FBD85B5846085BD85B58064B6
:100B500085BD86E886B91AB8E9E6F0E02491E2E5B9
:100B6000F0E084918823C1F090E0880F991FFC0188
:100B7000E05DFF4FC591D491FC01EA5DFF4FA59167
:100B8000B4919FB7F8943881822F8095832388830E
:100B9000EC91E22BEC939FBF8091C000811145C086
:100BA0001092B2001092B1008FEF8093B500809345
:100BB000B6008093B7008093B8008093B90080930B
:100BC000BA0081E08093BB001092BD001092BC007F
:100BD0001092B4001092B30080914F019091500197
:100BE000892B31F48FEA90E09093500180934F016C
:100BF000E091AD00F091AE00309721F08FEA90E0E7
:100C0000958384838FEA90E09093AE008093AD004B
:100C10001092BF001092BE008AE790E09093B0005F
:100C20008093AF0081E08093C000BB9A85EE90E096
:100C30009093B2008093B1008CE190E09093BD005E
:100C40008093BC008091580190915901A0915A0164
:100C5000B0915B01843C29E09207A105B10520F425
:100C600084EC99E0A0E0B0E08093580190935901A2
:100C7000A0935A01B0935B0182E3809355011FBAA0
:100C80001EBAE09A8DB380934201C3E00BE1202E9F
:100C9000312C8CE1482E512C612C712CC12CD12C83
:100CA0007601CA94DBEA10924401109144018091CC
:100CB00043011817B0F510DA892B09F072C06EE104
:100CC00070E080E090E081DB07DA892B09F069C0F1
:100CD000809142018F5F80934201109241011092F6
:100CE000400110923F0182E38093550181E080939F
:100CF0003E0180933D012FB7F8948091450190917A
:100D00004601A0914701B09148012FBF809339015E
:100D100090933A01A0933B01B0933C01DDD9892B1C
:100D2000E9F380913D01813029F52FB7F894809146
:100D3000450190914601A0914701B09148012FBF14
:100D40004091390150913A0160913B0170913C0111
:100D5000841B950BA60BB70B80339547A105B105F6
:100D600048F01FBA1EBA809142018DBBE29AE19A07
:100D700010923D01809142016FEF70E0882329F0CD
:100D80008130C1F460E070E880E014DEFCD98FEFC0
:100D900080934301E0E0F0E0EF2B09F484CF30D9F9
:100DA00081CF65E070E080E090E00FDB1F5F109383
:100DB00044017BCF823021F460E070E08FEFE5CF1B
:100DC000833021F460E870E080E8DFCF6FEF70E0FF
:100DD000843021F08530D9F460E070E880E0EADD0D
:100DE0008091410180935501CED980914101823398
:100DF000D1F491E090933F0190913F01911102C095
:100E00008F5F01C081508093410185E0C1CF863062
:100E100021F460E070E08FEFE2CF873049F460E8C2
:100E200070E080E8DCCF8111E7CF10923F01E4CF82
:100E3000883009F084C0A0914101E5EEF0E04A2F2E
:100E400090E080E005E570E01FE0342F330F330FB2
:100E5000330F232F209F020E20E0211D1124642F29
:100E60006074542F507247FD4CC0611138C051114D
:100E700006C0322F3095422F232F30E004C045E5C5
:100E8000420F30E02BEA572F112329F0119F512DEB
:100E9000112411115F5F652F6095269F020E20E0DF
:100EA000211D469F040E40E0411D369F030E30E099
:100EB000311D1124250F2083450F4183350F3283C7
:100EC0008C5D964F33964A2F490F803FBFEF9B07AB
:100ED00009F0BBCF58D980914101865F94CF511161
:100EE0000BC04AEA349F030E30E0311D1124BD2FA0
:100EF000B31B3B2F420FC0CF422F4095322F20E033
:100F0000C2CF611110C051110AC02AEA329F030EEC
:100F100030E0311D11244D2F431B3B5AF0CF322FAF
:100F2000309540E0B0CF511106C045E5420F3D2F4E
:100F3000321B242FF6CF4AEA420F302FF9CF8930E7
:100F400089F560E070E08FEF35DD20914101822F5F
:100F500090E00496322F6FEFE32FF0E08E179F079B
:100F6000A4F0AF013C3158F4440F551FE40FF51FB6
:100F7000EB51FF4F6083618312823F5FEDCF4C5195
:100F80005109FA01EE0FFF1FF1CF3093E4002C312D
:100F900019F41092410103C02F5F20934101F3D84F
:100FA0008FE0F6CE8A3029F580914101811103C08E
:100FB00060E070E0FFDC0ED54B015C010BD5A301B6
:100FC00092015DD58B01000F111F060F171F0B51EA
:100FD0001F4FF80110821182C501B401A7019601CB
:100FE0004ED5D80112966C938AE080934301CBD8FA
:100FF000D1CE8B3059F480914101811103C060E062
:1010000070E0D8DC81E080934101D5CF8C3009F0CD
:1010100057C0E5EEF0E08DE1815029F01082118299
:1010200012823396F9CFA0914101BA2F2A2F30E0D6
:10103000B9016F5F7F4F1FEF8B2F90E0BF5F681785
:10104000790764F0AC01440F551F840F951FFC0114
:10105000EB51FF4F108211821283EECF8BE18A1B7E
:1010600049E150E0421B530B7FEF282F30E06FEF38
:10107000680F421753076CF4C901880F991F820F3C
:10108000931FFC01EB51FF4F108211827283862F58
:10109000ECCF8093E400AC3061F481E080933F01B9
:1010A00080913F0181110AC0AF5FA093410184E1AB
:1010B0009CCFA111F5CF10923F01F2CFA150F5CFF7
:1010C0008D3009F0C0C080913E01813069F460E04C
:1010D00070E08FEF6FDC8CE1809340011092410152
:1010E00010923F0110923E01209140012F3FB9F430
:1010F000E5EEF0E08DE19FEF815029F09083918340
:1011000012823396F9CF8CE18093E40081E08093E2
:101110003F01109240018BE18093410117C02C31B7
:10112000B9F4E5EEF0E08DE19FEF815029F01082F7
:10113000118292833396F9CF8CE18093E400109270
:101140003F018BE1809340011092410185E04DCF3A
:101150008091410190913F01281334C0E5EEF0E009
:1011600040E02FEF48130FC04C9FF0011124EB51CA
:10117000FF4F242F3FEF2C3160F4308331831282F4
:101180002F5F3396F8CF1082118222834F5F339600
:10119000E9CF2093E400911104C0415040934001F5
:1011A000D3CF90E09C01220F331F820F931FFC01CD
:1011B000EB51FF4F108211828FEF82834F5F40937C
:1011C0004001A9CF91111DC0E5EEF0E02FEF891786
:1011D00031F01082118222839F5F3396F8CF809383
:1011E000E400482F50E09A01220F331F240F351FCF
:1011F000F901EB51FF4F9FEF9083918312828F5F34
:101200008BCFE6E3F1E09BE12FEF891730F42083E9
:101210002183128291503397F8CF982F8C3108F0A8
:101220009BE19093E400482F50E09A01220F331F76
:10123000240F351FF901EB51FF4F108211829FEFF0
:101240009283815069CF8E3041F560914101E5EE86
:10125000F0E030E020E0462F50E0C901840F951FF8
:101260008C319105B8F082599F4FDC018C9110822E
:10127000118282832F5F3F4F33962C31310569F7FE
:101280008CE18093E4006B3109F483CE6F5F60934F
:10129000410185CE86579F4FE8CF8F3091F48091E2
:1012A0003E01882319F077DB10923E0182E0A1DB3A
:1012B000809141018B3109F46CCE8F5F80934101A5
:1012C0006ECE803109F06BC280913E01882319F007
:1012D00062DB10923E0180914001811117C0809124
:1012E0004101E6E3F1E09BE12FEF891730F4108232
:1012F0002183128291503397F8CF8C3108F08BE123
:101300008093E40081E08093400143CE813081F5F9
:1013100020914101E6E3F1E08BE19FEF281710F106
:10132000322F2C3108F03BE1822F90E04FEFFC018F
:10133000E31BF109E853FF4F50813C9FF00111245A
:10134000EB51FF4F108241835283315080F730932D
:10135000E4002B3109F020CE1092410182E080930D
:1013600040011DCE10829183128281503397D6CFD7
:10137000823069F580914101A82FB0E0A853BF4F9A
:10138000E6E3F1E09BE13FEF8917D0F0982F8C3135
:1013900008F09BE12FEF9C9FF0011124EB51FF4FD0
:1013A0001082218322839150B0F79093E4008B3117
:1013B00009F083CF10924101B3E0B0934001EFCD2B
:1013C0002D9110823183228391503397DDCF83306A
:1013D00079F520914101E6E3F1E08BE19FEF2817D9
:1013E00008F1322F2C3108F03BE1C101821B910939
:1013F00088539F4F4FEFFC01E30FF11D50813C9F3D
:10140000F0011124EB51FF4F108251834283315080
:1014100090F73093E4002B3109F0BECD10924101DA
:1014200084E09DCF10829183928381503397D7CFF0
:10143000843069F580914101ACE1B0E0A81BB109AD
:10144000A853BF4FE6E3F1E09BE12FEF8917C0F00F
:10145000982F8C3108F09BE12FEF9C9FF001112415
:10146000EB51FF4F1082118222839150B0F790937D
:10147000E4008B3109F021CF1092410185E06FCF5C
:101480003E9110823183228391503397DFCF853094
:1014900071F520914101E6E3F1E08BE19FEF281720
:1014A00000F1322F2C3108F03BE1822F90E04FEF1A
:1014B0003C9FF0011124EB51FF4FDC01A31BB1094C
:1014C000A853BF4F5C91508311824283315080F703
:1014D0003093E4002B3109F05FCD1092410186E09A
:1014E0003ECF10821182928381503397D8CF8630BD
:1014F00059F580914101A82FB0E0A853BF4FE6E312
:10150000F1E09BE12FEF8917C0F0982F8C3108F0A4
:101510009BE12FEF9C9FF0011124EB51FF4F2083A3
:10152000118222839150B0F79093E4008B3109F03F
:10153000C4CE1092410187E012CF3D9130831182D9
:10154000228391503397DFCF873079F52091410185
:10155000E6E3F1E08BE19FEF281708F1322F2C3101
:1015600008F03BE1C101821B910988539F4F4FEF67
:10157000FC01E30FF11D50813C9FF0011124EB5160
:10158000FF4F408311825283315090F73093E40033
:101590002B3109F001CD1092410188E0E0CE90831B
:1015A0001182928381503397D7CF883091F5809103
:1015B0004101ACE1B0E0A81BB109A853BF4FE6E37D
:1015C000F1E09BE13FEF891798F0E82F8C3108F0AC
:1015D000EBE12FEF9FEF9E0F9E3F89F0EC9FF00114
:1015E0001124EB51FF4F208311821282E92FF2CF99
:1015F0002E9130831182228391503397E4CF9FEF55
:101600009093E4008B3109F058CE1092410189E0AB
:10161000A6CE893071F520914101E6E3F1E08BE13E
:101620009FEF281700F1322F2C3108F03BE1822F79
:1016300090E04FEFFC01E31BF109E853FF4F5081AD
:101640003C9FF0011124EB51FF4F408351831282E4
:10165000315080F73093E4002B3109F09DCC10928B
:1016600041018AE07CCE90831182128281503397AF
:10167000D8CF8A3059F580914101A82FB0E0A85306
:10168000BF4FE6E3F1E09BE13FEF8917C0F0982FF1
:101690008C3108F09BE12FEF9C9FF0011124EB515E
:1016A000FF4F2083218312829150B0F79093E40082
:1016B0008B3109F002CE109241018BE050CE2D917A
:1016C00030832183128291503397DFCF8B30B9F56D
:1016D00020914101E6E3F1E08BE19FEF2817F8F05C
:1016E000E22F2C3108F0EBE1C101821B91098853F4
:1016F0009F4F4FEF3FEF3E0F3E3FB9F0EC9FD001C1
:101700001124AB51BF4FE80FF92FF11D50815C93AD
:1017100011964C93119712961C92E32FEBCF908366
:101720009183128281503397D9CF8FEF8093E40059
:101730002B3109F031CC109241018CE010CE8C306D
:1017400009F02DCC80914101ACE1B0E0A81BB109BA
:10175000A853BF4FE6E3F1E09BE12FEF8917C0F0FC
:10176000982F8C3108F09BE12FEF9C9FF001112402
:10177000EB51FF4F1082218312829150B0F790936A
:10178000E4008B3109F099CD1092410181E0E7CD61
:101790003E9130832183128291503397DFCF813184
:1017A000B1F5E8ECF0E08DE1815011F01192FCCF41
:1017B0008FEF8093C8008093C9008093CA00809304
:1017C000CB008093CC008093CD008093CE0080939B
:1017D000D6008093D7008093D8008093D90080935F
:1017E000DA008093DB008093DC0085E18093E400E5
:1017F00081E0FFD880914101882329F010924101B6
:10180000C2D480E5C5CA87E080934101F9CF823117
:10181000E1F4E8ECF0E08DE1815011F01192FCCFA1
:101820008CE18093E4008FEF8093C8008093C9001F
:101830008093CA008093CB008093D6008093D7001A
:101840008093D8008093D90031CD833169F5E8ECDD
:10185000F0E08DE1815011F01192FCCF8CE180938A
:10186000E4008FEF8093E3008093E2008093E10037
:101870008093E00081E0BDD880914101883169F416
:1018800091E090933F0190913F0191110BC08F5FC8
:101890008093410178D488E07BCA8111F4CF109203
:1018A0003F01F1CF8150F4CF8431C1F5E8ECF0E095
:1018B0008DE1815011F01192FCCF8CE18093E40016
:1018C0008FEF8093E3008093E2008093E1008093A8
:1018D000E00080E08ED8809141018B31D9F41092E4
:1018E000410180914001883071F491E090933F0173
:1018F00090913F0191110CC08F5F8093400143D4C0
:101900008091400145CA813099F710923F01F0CF94
:101910008150F3CF8F5F80934101F1CF109242014C
:1019200039CAE5E5F1E08FEF8083128211821486D7
:1019300013868FEF9FEFDC0187839087A187B287A3
:1019400008958F929F92AF92BF92CF92DF92EF92C3
:10195000FF92CF93DF93EC01688179818A819B812B
:10196000611571058105910521F464E279ED8BE53E
:1019700097E02DE133EF41E050E081D049015A0179
:101980009B01AC01A7EAB1E496D06B017C01ACEEFF
:10199000B4EFA50194019BD0C60ED71EE81EF91E18
:1019A000F7FE06C081E0C81AD108E10880E8F80A0D
:1019B000C882D982EA82FB82C701B6019F77DF9194
:1019C000CF91FF90EF90DF90CF90BF90AF909F901E
:1019D0008F9008958F929F92AF92BF92CF92DF9295
:1019E000EF92FF92609160007091610080916200BF
:1019F00090916300611571058105910521F464E200
:101A000079ED8BE597E02DE133EF41E050E037D001
:101A100049015A019B01AC01A7EAB1E44CD06B012A
:101A20007C01ACEEB4EFA501940151D0C60ED71ED7
:101A3000E81EF91EF7FE06C081E0C81AD108E108C9
:101A400080E8F80AC0926000D0926100E0926200E3
:101A5000F0926300C701B6019F77FF90EF90DF908F
:101A6000CF90BF90AF909F908F900895609360004B
:101A70007093610080936200909363000895052E37
:101A800097FB16F400940FD057FD05D024D007FC27
:101A900002D046F408C050954095309521953F4FAF
:101AA0004F4F5F4F089590958095709561957F4F4A
:101AB0008F4F9F4F089531D0A59F900DB49F900DEB
:101AC000A49F800D911D11240895B7FFF4CFF3DF7B
:101AD000821B930B0895A1E21A2EAA1BBB1BFD01CA
:101AE0000DC0AA1FBB1FEE1FFF1FA217B307E407FD
:101AF000F50720F0A21BB30BE40BF50B661F771F55
:101B0000881F991F1A9469F7609570958095909534
:101B10009B01AC01BD01CF010895A29FB001B39F0D
:101B2000C001A39F01D0B29F700D811D1124911D92
:101B30000895DB018F939F93BEDFBF91AF91A29F6A
:101B4000800D911DA39F900DB29F900D11240895BB
:101B500097FB072E16F4009406D077FD08D011D01D
:101B600007FC05D03EF4909581959F4F08957095A0
:101B700061957F4F0895D1DFB7FF0895821B930BC6
:101B80000895AA1BBB1B51E107C0AA1FBB1FA617C4
:101B9000B70710F0A61BB70B881F991F5A95A9F716
:101BA00080959095BC01CD010895EE0FFF1F059023
:101BB000F491E02D099481E090E0F89400C0F8944D
:021BC000FFCF55
:101BC20001000000000000004905490549052805FB
:101BD2002405290421050000000089042E042C0498
:101BE2002805240529049A005102122436485A6C09
:101BF2007E90A2B4C6D8EAFCEAD8C6B4A2907E6CA3
:061C02005A4836241212BC
:00000001FF
