:1000000045C069C068C067C066C065C064C063C0E1
:1000100062C040C560C05FC05EC05DC05CC05BC008
:100020005AC059C058C000000000380035003200E6
:1000300000000000370034003100000000003600EE
:100040003300300004040404040404040202020225
:100050000202030303030303020203010204081064
:1000600020408001020408102001020408102040F2
:1000700080400000000000000000000405070000B0
:1000800000000000000000000000480C11241FBE0A
:10009000CFE5D4E0DEBFCDBF10E0A0E6B0E0E0E306
:1000A000FBE102C005900D92A03AB107D9F721E01B
:1000B000A0EAB0E001C01D92A633B207E1F710E05C
:1000C000C6E4D0E003C02197FE0126DDC534D10788
:1000D000D1F72AD52BCD94CFE0E8F0E08491E9E682
:1000E000F0E09491E2E5F0E0E491EE2301F1882361
:1000F00049F08530A9F08730B1F0843019F48FB51C
:100100008F778FBDF0E0EE0FFF1FE65CFF4FA591EC
:10011000B491EC91E92381E090E059F480E00895F6
:100120008FB58F7DEECF85B58F7D85BDEBCF80E020
:1001300090E0089580E991E008953FB7F8948091A8
:10014000A3009091A400A091A500B091A60022B7B1
:1001500008B600FE05C02F3F19F00196A11DB11D84
:100160003FBFBA2FA92F982F8827BC01CD01620F5E
:10017000711D811D911D43E0660F771F881F991F18
:100180004A95D1F708954F925F926F927F929F9216
:10019000AF92BF92CF92DF92EF92FF920F931F9395
:1001A000CF93DF9300D01F92CDB7DEB7D090290157
:1001B00080912C0190912D01A0912E01B0912F01E1
:1001C000892B8A2B8B2BD1F0B8DF00912501109160
:1001D00026012091270130912801601B710B820BB1
:1001E000930B00912C0110912D0120912E01309143
:1001F0002F016017710782079307D0F29EDF60938B
:100200002501709326018093270190932801E091A6
:100210003401F0913501309759F0409130015091FF
:10022000310160913201709133018D2D0995D82EE5
:10023000E0902301F09024014D2C512C712C612C65
:10024000E114F10409F457C0D7011C96CC901C9717
:1002500080912A0190912B018436910510F41C960F
:100260001C92D701ED91FC91A280B38019821A8271
:100270001B82DD2069F1F701369610E000E0219144
:10028000222309F192809920F1F030E050E040E023
:100290002F5F3F4F4F4F5F4FC301B20101DC9B0106
:1002A000AC01892D90E0B0E0A0E0BC01CD016F5F12
:1002B0007F4F8F4F9F4FF4DBA1E0B0E0AC0FBD1F2D
:1002C000A00FB11F8C930F5F1F4F03301105B9F6BC
:1002D00009811A812B81F7014585568562817381D9
:1002E000C701F5010995D7011C96CC921C9714966D
:1002F000ED90FC90A5CF80912101909122019C016D
:100300002F5F3F4F309322012093210149970CF436
:1003100049C08FB7F8942091190130911A0140918A
:100320001B0150911C018FBF80911D0190911E01F6
:10033000A0911F01B0912001281B390B4A0B5B0BC8
:1003400021F421E030E040E050E0E0912101F09123
:10035000220188EE93E0E89FB001E99F700DF89FBD
:10036000700D1124072E000C880B990B6BDB30935A
:100370002B0120932A0110922201109221012FB704
:10038000F8948091190190911A01A0911B01B091EC
:100390001C012FBF80931D0190931E01A0931F018C
:1003A000B09320010F900F900F90DF91CF911F918C
:1003B0000F91FF90EF90DF90CF90BF90AF909F9004
:1003C0007F906F905F904F9008958F929F92AF9221
:1003D000BF92CF92DF92EF92FF924B015C01ADDEB4
:1003E0006B017C01AADE6C197D098E099F09683EAC
:1003F000734081059105B0F321E0821A9108A108AC
:10040000B10888EEC80E83E0D81EE11CF11C8114EF
:100410009104A104B10431F7FF90EF90DF90CF90E9
:10042000BF90AF909F908F9008950F931F93CF939D
:10043000DF932091A1002F5F322F37703093A100FE
:1004400020FF2AC020E831FD2064347009F02062CA
:10045000205FFC01EC01239600E011E06485662337
:1004600021F070E0C8012BDB6F5F6187322F369F70
:10047000030E30E0311D1124311110C016826623A5
:1004800011F0615061873196EC17FD0739F7DF9164
:10049000CF911F910F91089520E0D5CF3150368331
:1004A000EECF4F925F927F928F929F92AF92BF92C8
:1004B000CF92DF92EF92FF920F931F93CF93DF9330
:1004C0002C01EB013ADEF20127853089621B730BA8
:1004D0006A307105B8F3F8948A819B811816190661
:1004E0000CF040C1E881F98168B3862E689483F8E6
:1004F00038B3377F38BBDA848F812D2D281B822FAC
:100500002F834F85042E000C550BAA81BB817D855E
:10051000FC84EE847F5FF394E3949E819884B98495
:10052000AB841181C12C6C2D0C2D2C2D2181112718
:1005300088942111280F08F42FEF8195889470FD7D
:10054000120F1795889471FD120F1795889472FDFC
:10055000120F1795889473FD120F1795889474FDE8
:10056000120F1795889475FD120F1795889476FDD4
:10057000120F1795889477FD120F17958894622FA4
:100580007111612F8D0D162F002C88BA17FF38BB03
:1005900020816627889438BB2111290F88BA16FF5D
:1005A00038BB08F42FEF9195889438BBF0FC620FAC
:1005B00088BA15FF38BB67958894F1FC620F38BB89
:1005C0006795889488BA14FF38BBF2FC620F679570
:1005D000889438BBF3FC620F88BA13FF38BB679569
:1005E0008894F4FC620F38BB6795889488BA12FF30
:1005F00038BBF5FC620F6795889438BBF6FC620F38
:1006000088BA11FF38BB67958894F7FC620F38BB36
:100610006795889488BA10FF38BB122FF110162FF7
:100620009B0D38BB00C088BA17FF38BB22816627F4
:10063000889438BB2111290D88BA16FF38BB08F4FD
:100640002FEFE40FF51F38BBE0FC620F88BA15FFEF
:1006500038BB67958894E1FC620F38BB6795889436
:1006600088BA14FF38BBE2FC620F6795889438BBE8
:10067000E3FC620F88BA13FF38BB67958894E4FCEB
:10068000620F38BB6795889488BA12FF38BBE5FCC7
:10069000620F6795889438BBE6FC620F88BA11FF39
:1006A00038BB67958894E7FC620F38BB67958894E0
:1006B00088BA10FF38BB122FE110162F919438BB67
:1006C0009A0C002C88BA17FF38BB218166278894C2
:1006D00038BB2111280F88BA16FF38BB08F42FEF5A
:1006E0008195889438BB70FD620F88BA15FF38BBBE
:1006F0006795889471FD620F38BB6795889488BAB6
:1007000014FF38BB72FD620F6795889438BB73FD88
:10071000620F88BA13FF38BB6795889474FD620F27
:1007200038BB6795889488BA12FF38BB75FD620F95
:100730006795889438BB76FD620F88BA11FF38BB85
:100740006795889477FD620F38BB6795889488BA5F
:1007500010FF38BB122F7111162F8D0D38BB11975A
:1007600009F013CFEA81FB8120EF30E0DF01BAD935
:100770006B017C01A3E0F694E794D794C794AA9503
:10078000D1F730E020E0A9018AE9E89F0E0E411D73
:10079000F89F400D511D11244F0F511DCA01B0E0AB
:1007A000A0E0880F991FAA1FBB1F8C0D9D1DAE1DB9
:1007B000BF1D893E43E09407A105B10508F434C08C
:1007C000885E9340A109B10942E0B695A795979537
:1007D00087954A95D1F747E0849F080E211D949F85
:1007E000200D311D1124290F311D6091A00070E0F2
:1007F000860F971F820F931F4091190150911A0184
:1008000060911B0170911C01292F3327420F531F48
:10081000611D711D4093190150931A0160931B01D2
:1008200070931C018093A000789487DCF201708B98
:100830006787DF91CF911F910F91FF90EF90DF902D
:10084000CF90BF90AF909F908F907F905F904F9090
:10085000089581E090E00895BB9A08956F927F9289
:100860008F92CF92DF92EF92FF920F931F93CF93CD
:10087000DF93CDB7DEB762970FB6F894DEBF0FBE39
:10088000CDBF6C017A013801822EDC011C962C91BF
:10089000CA0157FF04C088279927841B950B7A83C8
:1008A00069839C838B839E838D836D867E868F86F2
:1008B000213041F5CE010196B8DD83E0888B1A8A9C
:1008C000198AF7FE02C08DEF888BD601ED91FC915D
:1008D0000684F785E02DBE016F5F7F4FC601099545
:1008E00062960FB6F894DEBF0FBECDBFDF91CF91F9
:1008F0001F910F91FF90EF90DF90CF908F907F909E
:100900006F9008951C861B861A86198618861F828A
:10091000D4CFEF92FF920F931F93CF93DF93CDB776
:10092000DEB762970FB6F894DEBF0FBECDBF7C0175
:10093000DC011C968C917A8369835C834B835E8394
:100940004D830D871E872F878130F1F4CE010196EC
:100950006CDD188A1A8A198AD701ED91FC910684F8
:10096000F785E02DBE016F5F7F4FC7010995629645
:100970000FB6F894DEBF0FBECDBFDF91CF911F91B0
:100980000F91FF90EF9008951C861B861A8619869A
:1009900018861F82DECF1092C200E2ECF0E094E1F4
:1009A000915021F08191845F8083FACF84E180931C
:1009B00018010895CF92DF92EF926B01E82E10920A
:1009C000D6008091D600843180F4282F30E0F901E0
:1009D000EE0FFF1FE20FF31FE952FF4FC082D182DB
:1009E000E2828F5F8093D600ECCFEF90DF90CF90C4
:1009F000089550911601A7EDB0E090E0E52FE90FC2
:100A0000E43110F0E451FCCFF0E0EE53FF4F2081D1
:100A100030E040E0882339F0322F40E0813011F49B
:100A2000422F30E020E02C9311964C9311971296B0
:100A30003C9312979F5F1396943101F79093D600E1
:100A4000089590E080E00895FC01858596850895DD
:100A50000F931F93CF93DF9300D01F92CDB7DEB7D4
:100A6000AB0119821A821B82DC01ED91FC9101908D
:100A7000F081E02D00E010E020E0BE016F5F7F4FCD
:100A800009950F900F900F90DF91CF911F910F91CB
:100A9000089548D81F920F920FB60F9211242F93EA
:100AA0003F938F939F93AF93BF9380911901909140
:100AB0001A01A0911B01B0911C013091A20026E007
:100AC000230F2D3768F129E8230F0396A11DB11DCF
:100AD0002093A2008093190190931A01A0931B0107
:100AE000B0931C018091A3009091A400A091A50057
:100AF000B091A6000196A11DB11D8093A300909313
:100B0000A400A093A500B093A600BF91AF919F91C0
:100B10008F913F912F910F900FBE0F901F901895BE
:100B20000296A11DB11DD4CF789483B7836083BF93
:100B300089B7816089BF82E08EBD8EB581608EBD30
:100B40008FB581608FBD85B5846085BD85B58064B6
:100B500085BD86E886B91AB8E9E6F0E02491E2E5B9
:100B6000F0E084918823C1F090E0880F991FFC0188
:100B7000E05DFF4FC591D491FC01EA5DFF4FA59167
:100B8000B4919FB7F8943881822F8095832388830E
:100B9000EC91E22BEC939FBF8091BA00811145C08C
:100BA0001092AC001092AB008FEF8093AF00809357
:100BB000B0008093B1008093B2008093B300809323
:100BC000B40081E08093B5001092B7001092B60097
:100BD0001092AE001092AD008091230190912401FB
:100BE000892B31F489EA90E09093240180932301CA
:100BF000E091A700F091A800309721F089EA90E0F9
:100C00009583848389EA90E09093A8008093A7005D
:100C10001092B9001092B8008BE790E09093AA0070
:100C20008093A90081E08093BA00BB9A87ED90E0A1
:100C30009093AC008093AB0084E190E09093B70078
:100C40008093B60080912C0190912D01A0912E01EE
:100C5000B0912F01843C29E09207A105B10520F451
:100C600084EC99E0A0E0B0E080932C0190932D01FA
:100C7000A0932E01B0932F0182E3809329011FBA24
:100C80001EBAE09A8DB380936000C3E003E1202E8A
:100C9000312C84E1482E512C612C712CC12CD12C8B
:100CA0007601CA94DBEA1092180110911801809124
:100CB0001701181720F510DA892BC1F56EE170E0E5
:100CC00080E090E082DB08DA892B81F5809160007A
:100CD0008F5F8093600010921601109215011092A0
:100CE000140192E39093290191E0909313011FBAAC
:100CF0001EBA8DBBE29AE19AEFD9892BE9F3809174
:100D000060006FEF70E0882329F08130C1F460E06B
:100D100070E880E04FDE37DA8FEF80931701E0E074
:100D2000F0E0EF2B09F4BFCF6BD9BCCF65E070E0EA
:100D300080E090E04ADB1F5F10931801B6CF82304D
:100D400021F460E070E08FEFE5CF833021F460E8BC
:100D500070E080E8DFCF6FEF70E0843021F0853005
:100D6000D9F460E070E880E025DE80911601809380
:100D7000290109DA809116018233D1F491E0909330
:100D8000140190911401911102C08F5F01C0815034
:100D90008093160185E0C1CF863021F460E070E0D9
:100DA0008FEFE2CF873049F460E870E080E8DCCF75
:100DB0008111E7CF10921401E4CF883009F084C08C
:100DC000A0911601E7EDF0E04A2F90E080E005E504
:100DD00070E01FE0342F330F330F330F232F209F8A
:100DE000020E20E0211D1124642F6074542F5072D4
:100DF00047FD4CC0611138C0511106C0322F3095EB
:100E0000422F232F30E004C045E5420F30E02BEAAB
:100E1000572F112329F0119F512D112411115F5FBC
:100E2000652F6095269F020E20E0211D469F040E2F
:100E300040E0411D369F030E30E0311D1124250F87
:100E40002083450F4183350F32838453934F33966C
:100E50004A2F490F803FBFEF9B0709F0BBCF93D9C3
:100E600080911601865F94CF51110BC04AEA349FDE
:100E7000030E30E0311D1124BD2FB31B3B2F420F59
:100E8000C0CF422F4095322F20E0C2CF611110C059
:100E900051110AC02AEA329F030E30E0311D11249D
:100EA0004D2F431B3B5AF0CF322F309540E0B0CF4F
:100EB000511106C045E5420F3D2F321B242FF6CFBE
:100EC0004AEA420F302FF9CF893089F560E070E0AF
:100ED0008FEF70DD20911601822F90E00496322F63
:100EE0006FEFE32FF0E08E179F07A4F0AF013431CE
:100EF00058F4440F551FE40FF51FE952FF4F60836C
:100F0000618312823F5FEDCF44515109FA01EE0F28
:100F1000FF1FF1CF3093D600243119F4109216013F
:100F200003C02F5F209316012ED98FE0F6CE8A30B2
:100F300029F580911601811103C060E070E03ADD6F
:100F400000D54B015C01FDD4A30192014FD58B016B
:100F5000000F111F060F171F09521F4FF8011082B3
:100F60001182C501B401A701960140D5D80112969E
:100F70006C938AE08093170106D9D1CE8B3059F457
:100F800080911601811103C060E070E013DD81E003
:100F900080931601D5CF8C3009F057C0E7EDF0E013
:100FA00085E1815029F01082118212823396F9CFA7
:100FB000A0911601BA2F2A2F30E0B9016F5F7F4F41
:100FC0001FEF8B2F90E0BF5F6817790764F0AC01CB
:100FD000440F551F840F951FFC01E952FF4F1082EB
:100FE00011821283EECF83E18A1B41E150E0421B64
:100FF000530B7FEF282F30E06FEF680F4217530736
:101000006CF4C901880F991F820F931FFC01E952EC
:10101000FF4F108211827283862FECCF8093D6000F
:10102000A83061F481E08093140180911401811152
:101030000AC0AF5FA093160184E19CCFA111F5CF48
:1010400010921401F2CFA150F5CF8D3009F0BFC03E
:1010500080911301813069F460E070E08FEFAADCC9
:1010600084E18093150110921601109214011092E0
:101070001301209115012F3FB9F4E7EDF0E085E170
:101080009FEF815029F09083918312823396F9CF9C
:1010900084E18093D60081E08093140110921501C1
:1010A00083E18093160117C02431B9F4E7EDF0E035
:1010B00085E19FEF815029F010821182928333964F
:1010C000F9CF84E18093D6001092140183E18093DC
:1010D00015011092160185E04DCF80911601909177
:1010E0001401E7EDF0E0281332C040E02FEF841345
:1010F0000FC08C9FF0011124E952FF4F282F3FEFC2
:10110000243160F43083318312822F5F3396F8CF1D
:101110001082118222834F5F3396E9CF2093D6004D
:10112000911104C0415040931501D3CF90E09C0130
:10113000220F331F820F931FFC01E952FF4F1082D1
:1011400011828FEF82834F5F40931501A9CF9111D8
:101150001EC02FEF41E0490F981731F01082118225
:101160002283942F3396F6CF9093D600892F90E068
:101170009C01220F331F820F931FFC01E952FF4F86
:101180008FEF80838183128240931601A4CF93E175
:101190002FEF3397891728F424AF25AF16AE91505F
:1011A000F8CF982F843108F093E19093D600482F20
:1011B00050E09A01220F331F240F351FF901E95225
:1011C000FF4F108211829FEF928381506ACF8E3041
:1011D00041F560911601E7EDF0E030E020E0462FA8
:1011E00050E0CA01820F931F84319105B8F08958ED
:1011F0009F4FDC018C911082118282832F5F3F4FC1
:1012000033962431310569F784E18093D600633148
:1012100009F484CE6F5F6093160186CE85579F4F89
:10122000E8CF8F3091F480911301882319F0B3DB5C
:101230001092130182E0DDDB80911601833109F405
:101240006DCE8F5F809316016FCE803109F066C23C
:1012500080911301882319F09EDB10921301809175
:101260001501811117C080911601E7EDF0E093E1BF
:101270002FEF3397891728F414AE25AF16AE91508F
:10128000F8CF843108F083E18093D60081E0809329
:10129000150144CE813081F520911601E7EDF0E093
:1012A00083E19FEF3397281710F1322F243108F094
:1012B00033E1822F90E04FEFFC01E31BF109EE5385
:1012C000FF4F50813C9FF0011124E952FF4F1082E3
:1012D00041835283315080F73093D600233109F097
:1012E00020CE1092160182E0809315011DCE14AE1F
:1012F00095AF16AE8150D6CF823069F58091160138
:10130000A82FB0E0AE53BF4FE7EDF0E093E13FEF21
:1013100033978917D0F0982F843108F093E12FEF9D
:101320009C9FF0011124E952FF4F108221832283F8
:101330009150B0F79093D600833109F082CF10928C
:101340001601B3E0B0931501EFCD2D9114AE35AF7A
:1013500026AF9150DDCF833079F520911601E7ED6E
:10136000F0E083E19FEF3397281708F1322F243103
:1013700008F033E1C101821B91098E539F4F4FEF5B
:10138000FC01E30FF11D50813C9FF0011124E95253
:10139000FF4F108251834283315090F73093D60033
:1013A000233109F0BECD1092160184E09DCF14AE1A
:1013B00095AF96AF8150D7CF843069F580911601F3
:1013C000A4E1B0E0A81BB109AE53BF4FE7EDF0E0D8
:1013D00093E12FEF33978917C0F0982F843108F0ED
:1013E00093E12FEF9C9FF0011124E952FF4F1082EF
:1013F000118222839150B0F79093D600833109F087
:1014000020CF1092160185E06FCF3E9114AE35AF1C
:1014100026AF9150DFCF853071F520911601E7EDB1
:10142000F0E083E19FEF3397281700F1322F24314A
:1014300008F033E1822F90E04FEF3C9FF001112440
:10144000E952FF4FDC01A31BB109AE53BF4F5C91C2
:10145000508311824283315080F73093D60023317C
:1014600009F05FCD1092160186E03ECF14AE15AEA6
:1014700096AF8150D8CF863059F580911601A82FAC
:10148000B0E0AE53BF4FE7EDF0E093E12FEF3397BD
:101490008917C0F0982F843108F093E12FEF9C9FBB
:1014A000F0011124E952FF4F2083118222839150D1
:1014B000B0F79093D600833109F0C3CE1092160195
:1014C00087E012CF3D9134AF15AE26AF9150DFCFFC
:1014D000873079F520911601E7EDF0E083E19FEF89
:1014E0003397281708F1322F243108F033E1C10176
:1014F000821B91098E539F4F4FEFFC01E30FF11DAB
:1015000050813C9FF0011124E952FF4F408311822A
:101510005283315090F73093D600233109F001CD3A
:101520001092160188E0E0CE94AF15AE96AF8150D0
:10153000D7CF883069F580911601A4E1B0E0A81BEF
:10154000B109AE53BF4FE7EDF0E093E13FEF3397C2
:101550008917C0F0982F843108F093E12FEF9C9FFA
:10156000F0011124E952FF4F208311821282915021
:10157000B0F79093D600833109F063CE1092160134
:1015800089E0B2CE2E9134AF15AE26AF9150DFCFA9
:10159000893071F520911601E7EDF0E083E19FEFCE
:1015A0003397281700F1322F243108F033E1822FCE
:1015B00090E04FEFFC01E31BF109EE53FF4F508128
:1015C0003C9FF0011124E952FF4F40835183128266
:1015D000315080F73093D600233109F0A2CC10921D
:1015E00016018AE081CE94AF15AE16AE8150D8CFE9
:1015F0008A3059F580911601A82FB0E0AE53BF4F45
:10160000E7EDF0E093E13FEF33978917C0F0982FB3
:10161000843108F093E12FEF9C9FF0011124E952EF
:10162000FF4F2083218312829150B0F79093D60010
:10163000833109F006CE109216018BE055CE2D9124
:1016400034AF25AF16AE9150DFCF8B30B9F5209176
:101650001601E7EDF0E083E19FEF33972817F8F0EC
:10166000E22F243108F0E3E1C101821B91098E537E
:101670009F4F4FEF3FEF3E0F3E3FB1F0EC9FD00149
:101680001124A952BF4FE80FF92FF11D50815C932F
:1016900011964C93119712961C92E32FEBCF94AFB7
:1016A00095AF16AE8150D9CF8FEF8093D6002331FE
:1016B00009F037CC109216018CE016CE8C3009F070
:1016C00033CC80911601A4E1B0E0A81BB109AE5360
:1016D000BF4FE7EDF0E093E12FEF33978917C0F0AC
:1016E000982F843108F093E12FEF9C9FF001112493
:1016F000E952FF4F1082218312829150B0F79093EC
:10170000D600833109F09DCD1092160181E0ECCD19
:101710003E9134AF25AF16AE9150DFCF813171F5D8
:10172000E2ECF0E085E1815011F01192FCCF8FEFF7
:101730008093C2008093C3008093C4008093C5004F
:101740008093C6008093CC008093CD008093CE0020
:101750008093CF008093D0008FE08093D60081E00B
:1017600048D980911601882329F0109216010BD5D3
:1017700080E5D3CA85E080931601F9CF8231E1F488
:10178000E2ECF0E085E1815011F01192FCCF84E1B0
:101790008093D6008FEF8093C2008093C300809324
:1017A000C4008093C5008093CC008093CD008093CB
:1017B000CE008093CF003ECD833169F5E2ECF0E0BE
:1017C00085E1815011F01192FCCF84E18093D60025
:1017D0008FEF8093D5008093D4008093D3008093C3
:1017E000D20081E006D980911601803169F491E040
:1017F000909314019091140191110BC08F5F80930D
:101800001601C1D488E089CA8111F4CF1092140165
:10181000F1CF8150F4CF8431C1F5E2ECF0E085E105
:10182000815011F01192FCCF84E18093D6008FEFAC
:101830008093D5008093D4008093D3008093D2000E
:1018400080E0D7D8809116018331D9F41092160127
:1018500080911501883071F491E09093140190917A
:10186000140191110CC08F5F809315018CD480916D
:10187000150153CA813099F710921401F0CF8150AD
:10188000F3CF8F5F80931601F1CF1092600047CAAB
:10189000E9E2F1E08FEF80831282118214861386D1
:1018A0008FEF9FEFDC0187839087A187B287089530
:1018B0008F929F92AF92BF92CF92DF92EF92FF9260
:1018C000CF93DF93EC01688179818A819B816115D7
:1018D00071058105910521F464E279ED8BE597E0CE
:1018E0002DE133EF41E050E081D049015A019B01E5
:1018F000AC01A7EAB1E496D06B017C01ACEEB4EF89
:10190000A50194019BD0C60ED71EE81EF91EF7FE56
:1019100006C081E0C81AD108E10880E8F80AC88248
:10192000D982EA82FB82C701B6019F77DF91CF910E
:10193000FF90EF90DF90CF90BF90AF909F908F90EF
:1019400008958F929F92AF92BF92CF92DF92EF92C3
:10195000FF926091610070916200809163009091AC
:101960006400611571058105910521F464E279ED4A
:101970008BE597E02DE133EF41E050E037D04901AE
:101980005A019B01AC01A7EAB1E44CD06B017C0188
:10199000ACEEB4EFA501940151D0C60ED71EE81EDF
:1019A000F91EF7FE06C081E0C81AD108E10880E8F8
:1019B000F80AC0926100D0926200E0926300F09257
:1019C0006400C701B6019F77FF90EF90DF90CF9042
:1019D000BF90AF909F908F90089560936100709337
:1019E000620080936300909364000895052E97FB36
:1019F00016F400940FD057FD05D024D007FC02D078
:101A000046F408C050954095309521953F4F4F4F73
:101A10005F4F089590958095709561957F4F8F4F9A
:101A20009F4F089531D0A59F900DB49F900DA49F16
:101A3000800D911D11240895B7FFF4CFF3DF821BB1
:101A4000930B0895A1E21A2EAA1BBB1BFD010DC02A
:101A5000AA1FBB1FEE1FFF1FA217B307E407F5075E
:101A600020F0A21BB30BE40BF50B661F771F881F3A
:101A7000991F1A9469F760957095809590959B01D0
:101A8000AC01BD01CF010895A29FB001B39FC00179
:101A9000A39F01D0B29F700D811D1124911D089547
:101AA000DB018F939F93BEDFBF91AF91A29F800D0B
:101AB000911DA39F900DB29F900D1124089597FB47
:101AC000072E16F4009406D077FD08D011D007FC3D
:101AD00005D03EF4909581959F4F0895709561953E
:101AE0007F4F0895D1DFB7FF0895821B930B0895B0
:101AF000AA1BBB1B51E107C0AA1FBB1FA617B70734
:101B000010F0A61BB70B881F991F5A95A9F780954F
:101B10009095BC01CD010895EE0FFF1F0590F49143
:101B2000E02D099481E090E0F89400C0F894FFCF94
:101B30000E01000000000000004905490549052884
:101B4000052405290421050000000089042E042C29
:101B5000042805240529049A00510219324B647D9A
:101B600096AFC8E1FAE1C8AF967D644B321919000F
:00000001FF
