:1000000045C069C068C067C066C065C064C063C0E1
:1000100062C040C560C05FC05EC05DC05CC05BC008
:100020005AC059C058C000000000380035003200E6
:1000300000000000370034003100000000003600EE
:100040003300300004040404040404040202020225
:100050000202030303030303020203010204081064
:1000600020408001020408102001020408102040F2
:1000700080400000000000000000000405070000B0
:1000800000000000000000000000AC0C11241FBEA6
:10009000CFE5D4E0DEBFCDBF10E0A0E6B0E0E8EFF2
:1000A000FBE102C005900D92AA38B107D9F721E013
:1000B000AAE8B0E001C01D92A632B207E1F710E055
:1000C000C6E4D0E003C02197FE018ADDC534D10724
:1000D000D1F72AD58FCD94CFE0E8F0E08491E9E61E
:1000E000F0E09491E2E5F0E0E491EE2301F1882361
:1000F00049F08530A9F08730B1F0843019F48FB51C
:100100008F778FBDF0E0EE0FFF1FE65CFF4FA591EC
:10011000B491EC91E92381E090E059F480E00895F6
:100120008FB58F7DEECF85B58F7D85BDEBCF80E020
:1001300090E0089580E991E008953FB7F8948091A8
:100140008D0090918E00A0918F00B091900022B709
:1001500008B600FE05C02F3F19F00196A11DB11D84
:100160003FBFBA2FA92F982F8827BC01CD01620F5E
:10017000711D811D911D43E0660F771F881F991F18
:100180004A95D1F708954F925F926F927F929F9216
:10019000AF92BF92CF92DF92EF92FF920F931F9395
:1001A000CF93DF9300D01F92CDB7DEB7D090190167
:1001B00080911C0190911D01A0911E01B0911F0121
:1001C000892B8A2B8B2BD1F0B8DF00911501109170
:1001D00016012091170130911801601B710B820BE1
:1001E000930B00911C0110911D0120911E01309173
:1001F0001F016017710782079307D0F29EDF60939B
:100200001501709316018093170190931801E091E6
:100210002401F0912501309759F04091200150912F
:10022000210160912201709123018D2D0995D82E15
:10023000E0901301F09014014D2C512C712C612C85
:10024000E114F10409F457C0D7011C96CC901C9717
:1002500080911A0190911B018436910510F41C962F
:100260001C92D701ED91FC91A280B38019821A8271
:100270001B82DD2069F1F701369610E000E0219144
:10028000222309F192809920F1F030E050E040E023
:100290002F5F3F4F4F4F5F4FC301B20165DC9B01A2
:1002A000AC01892D90E0B0E0A0E0BC01CD016F5F12
:1002B0007F4F8F4F9F4F58DCA1E0B0E0AC0FBD1FC8
:1002C000A00FB11F8C930F5F1F4F03301105B9F6BC
:1002D00009811A812B81F7014585568562817381D9
:1002E000C701F5010995D7011C96CC921C9714966D
:1002F000ED90FC90A5CF80911101909112019C018D
:100300002F5F3F4F309312012093110149970CF456
:1003100049C08FB7F8942091090130910A014091AA
:100320000B0150910C018FBF80910D0190910E0136
:10033000A0910F01B0911001281B390B4A0B5B0BE8
:1003400021F421E030E040E050E0E0911101F09133
:10035000120188EE93E0E89FB001E99F700DF89FCD
:10036000700D1124072E000C880B990BCFDB3093F6
:100370001B0120931A0110921201109211012FB744
:10038000F8948091090190910A01A0910B01B0911C
:100390000C012FBF80930D0190930E01A0930F01CC
:1003A000B09310010F900F900F90DF91CF911F919C
:1003B0000F91FF90EF90DF90CF90BF90AF909F9004
:1003C0007F906F905F904F9008958F929F92AF9221
:1003D000BF92CF92DF92EF92FF924B015C01ADDEB4
:1003E0006B017C01AADE6C197D098E099F09683EAC
:1003F000734081059105B0F321E0821A9108A108AC
:10040000B10888EEC80E83E0D81EE11CF11C8114EF
:100410009104A104B10431F7FF90EF90DF90CF90E9
:10042000BF90AF909F908F9008950F931F93CF939D
:10043000DF9320918B002F5F322F377030938B002A
:1004400020FF2AC020E831FD2064347009F02062CA
:10045000205FFC01EC01239600E011E06485662337
:1004600021F070E0C8018FDB6F5F6187322F369F0C
:10047000030E30E0311D1124311110C016826623A5
:1004800011F0615061873196EC17FD0739F7DF9164
:10049000CF911F910F91089520E0D5CF3150368331
:1004A000EECF4F925F927F928F929F92AF92BF92C8
:1004B000CF92DF92EF92FF920F931F93CF93DF9330
:1004C0002C01EB013ADEF20127853089621B730BA8
:1004D0006A307105B8F3F8948A819B811816190661
:1004E0000CF040C1E881F98168B3862E689483F8E6
:1004F00038B3377F38BBDA848F812D2D281B822FAC
:100500002F834F85042E000C550BAA81BB817D855E
:10051000FC84EE847F5FF394E3949E819884B98495
:10052000AB841181C12C6C2D0C2D2C2D2181112718
:1005300088942111280F08F42FEF8195889470FD7D
:10054000120F1795889471FD120F1795889472FDFC
:10055000120F1795889473FD120F1795889474FDE8
:10056000120F1795889475FD120F1795889476FDD4
:10057000120F1795889477FD120F17958894622FA4
:100580007111612F8D0D162F002C88BA17FF38BB03
:1005900020816627889438BB2111290F88BA16FF5D
:1005A00038BB08F42FEF9195889438BBF0FC620FAC
:1005B00088BA15FF38BB67958894F1FC620F38BB89
:1005C0006795889488BA14FF38BBF2FC620F679570
:1005D000889438BBF3FC620F88BA13FF38BB679569
:1005E0008894F4FC620F38BB6795889488BA12FF30
:1005F00038BBF5FC620F6795889438BBF6FC620F38
:1006000088BA11FF38BB67958894F7FC620F38BB36
:100610006795889488BA10FF38BB122FF110162FF7
:100620009B0D38BB00C088BA17FF38BB22816627F4
:10063000889438BB2111290D88BA16FF38BB08F4FD
:100640002FEFE40FF51F38BBE0FC620F88BA15FFEF
:1006500038BB67958894E1FC620F38BB6795889436
:1006600088BA14FF38BBE2FC620F6795889438BBE8
:10067000E3FC620F88BA13FF38BB67958894E4FCEB
:10068000620F38BB6795889488BA12FF38BBE5FCC7
:10069000620F6795889438BBE6FC620F88BA11FF39
:1006A00038BB67958894E7FC620F38BB67958894E0
:1006B00088BA10FF38BB122FE110162F919438BB67
:1006C0009A0C002C88BA17FF38BB218166278894C2
:1006D00038BB2111280F88BA16FF38BB08F42FEF5A
:1006E0008195889438BB70FD620F88BA15FF38BBBE
:1006F0006795889471FD620F38BB6795889488BAB6
:1007000014FF38BB72FD620F6795889438BB73FD88
:10071000620F88BA13FF38BB6795889474FD620F27
:1007200038BB6795889488BA12FF38BB75FD620F95
:100730006795889438BB76FD620F88BA11FF38BB85
:100740006795889477FD620F38BB6795889488BA5F
:1007500010FF38BB122F7111162F8D0D38BB11975A
:1007600009F013CFEA81FB8120EF30E0DF011EDAD0
:100770006B017C01A3E0F694E794D794C794AA9503
:10078000D1F730E020E0A9018AE9E89F0E0E411D73
:10079000F89F400D511D11244F0F511DCA01B0E0AB
:1007A000A0E0880F991FAA1FBB1F8C0D9D1DAE1DB9
:1007B000BF1D893E43E09407A105B10508F434C08C
:1007C000885E9340A109B10942E0B695A795979537
:1007D00087954A95D1F747E0849F080E211D949F85
:1007E000200D311D1124290F311D60918A0070E008
:1007F000860F971F820F931F4091090150910A01A4
:1008000060910B0170910C01292F3327420F531F68
:10081000611D711D4093090150930A0160930B0102
:1008200070930C0180938A00789487DCF201708BBE
:100830006787DF91CF911F910F91FF90EF90DF902D
:10084000CF90BF90AF909F908F907F905F904F9090
:10085000089581E090E00895BB9A08956F927F9289
:100860008F92CF92DF92EF92FF920F931F93CF93CD
:10087000DF93CDB7DEB762970FB6F894DEBF0FBE39
:10088000CDBF6C017A013801822EDC011C962C91BF
:10089000CA0157FF04C088279927841B950B7A83C8
:1008A00069839C838B839E838D836D867E868F86F2
:1008B000213041F5CE010196B8DD83E0888B1A8A9C
:1008C000198AF7FE02C08DEF888BD601ED91FC915D
:1008D0000684F785E02DBE016F5F7F4FC601099545
:1008E00062960FB6F894DEBF0FBECDBFDF91CF91F9
:1008F0001F910F91FF90EF90DF90CF908F907F909E
:100900006F9008951C861B861A86198618861F828A
:10091000D4CFEF92FF920F931F93CF93DF93CDB776
:10092000DEB762970FB6F894DEBF0FBECDBF7C0175
:10093000DC011C968C917A8369835C834B835E8394
:100940004D830D871E872F878130F1F4CE010196EC
:100950006CDD188A1A8A198AD701ED91FC910684F8
:10096000F785E02DBE016F5F7F4FC7010995629645
:100970000FB6F894DEBF0FBECDBFDF91CF911F91B0
:100980000F91FF90EF9008951C861B861A8619869A
:1009900018861F82DECF1092AC00ECEAF0E094E102
:1009A000915021F08191845F8083FACF84E180931C
:1009B00008010895CF92DF92EF926B01E82E10921A
:1009C000C0008091C000843180F4282F30E0F9010C
:1009D000EE0FFF1FE20FF31FEF53FF4FC082D182D4
:1009E000E2828F5F8093C000ECCFEF90DF90CF90DA
:1009F000089550910501A1ECB0E090E0E52FE90FDA
:100A0000E43110F0E451FCCFF0E0E455FF4F2081D9
:100A100030E040E0882339F0322F40E0813011F49B
:100A2000422F30E020E02C9311964C9311971296B0
:100A30003C9312979F5F1396943101F79093C000F7
:100A4000089590E080E00895FC01858596850895DD
:100A50000F931F93CF93DF9300D01F92CDB7DEB7D4
:100A6000AB0119821A821B82DC01ED91FC9101908D
:100A7000F081E02D00E010E020E0BE016F5F7F4FCD
:100A800009950F900F900F90DF91CF911F910F91CB
:100A90000895ACD81F920F920FB60F9211242F9386
:100AA0003F938F939F93AF93BF9380910901909150
:100AB0000A01A0910B01B0910C0130918C0026E04D
:100AC000230F2D3768F129E8230F0396A11DB11DCF
:100AD00020938C008093090190930A01A0930B014D
:100AE000B0930C0180918D0090918E00A0918F00A9
:100AF000B09190000196A11DB11D80938D0090933F
:100B00008E00A0938F00B0939000BF91AF919F9102
:100B10008F913F912F910F900FBE0F901F901895BE
:100B20000296A11DB11DD4CF789483B7836083BF93
:100B300089B7816089BF82E08EBD8EB581608EBD30
:100B40008FB581608FBD85B5846085BD85B58064B6
:100B500085BD86E886B91AB8E9E6F0E02491E2E5B9
:100B6000F0E084918823C1F090E0880F991FFC0188
:100B7000E05DFF4FC591D491FC01EA5DFF4FA59167
:100B8000B4919FB7F8943881822F8095832388830E
:100B9000EC91E22BEC939FBF8091A400811145C0A2
:100BA00010929600109295008FEF80939900809399
:100BB0009A0080939B0080939C0080939D0080937B
:100BC0009E0081E080939F001092A1001092A000EF
:100BD0001092980010929700809113019091140147
:100BE000892B31F483E990E09093140180931301F1
:100BF000E0919100F0919200309721F083E990E02C
:100C00009583848383E990E0909392008093910090
:100C10001092A3001092A2008AE790E090939400B3
:100C20008093930081E08093A400BB9A81EC90E0D4
:100C3000909396008093950084E190E09093A100BA
:100C40008093A00080911C0190911D01A0911E0134
:100C5000B0911F01843C29E09207A105B10520F461
:100C600084EC99E0A0E0B0E080931C0190931D011A
:100C7000A0931E01B0931F0182E3809319011FBA54
:100C80001EBAE09A8DB380930601C3E0B3E12B2E28
:100C9000312CD4E14D2E512C612C712CC12CD12C36
:100CA0007601CA94DBEA1092080110910801809144
:100CB00007011817B0F510DA892B09F072C06EE140
:100CC00070E080E090E081DB07DA892B09F069C0F1
:100CD000809106018F5F80930601109205011092AA
:100CE00004011092030182E38093190181E0809353
:100CF0000201809301012FB7F8948091090190912E
:100D00000A01A0910B01B0910C012FBF8093FD004F
:100D10009093FE00A093FF00B0930001DDD9892BD2
:100D2000E9F380910101813029F52FB7F894809182
:100D3000090190910A01A0910B01B0910C012FBF04
:100D40004091FD005091FE006091FF007091000104
:100D5000841B950BA60BB70B80339547A105B105F6
:100D600048F01FBA1EBA809106018DBBE29AE19A43
:100D700010920101809106016FEF70E0882329F045
:100D80008130C1F460E070E880E014DEFCD98FEFC0
:100D900080930701E0E0F0E0EF2B09F484CF30D935
:100DA00081CF65E070E080E090E00FDB1F5F109383
:100DB00008017BCF823021F460E070E08FEFE5CF57
:100DC000833021F460E870E080E8DFCF6FEF70E0FF
:100DD000843021F08530D9F460E070E880E0EADD0D
:100DE0008091050180931901CED98091050182334C
:100DF000D1F491E09093030190910301911102C00D
:100E00008F5F01C081508093050185E0C1CF86309E
:100E100021F460E070E08FEFE2CF873049F460E8C2
:100E200070E080E8DCCF8111E7CF10920301E4CFBE
:100E3000883009F084C0A0910501E1ECF0E04A2F70
:100E400090E080E005E570E01FE0342F330F330FB2
:100E5000330F232F209F020E20E0211D1124642F29
:100E60006074542F507247FD4CC0611138C051114D
:100E700006C0322F3095422F232F30E004C045E5C5
:100E8000420F30E02BEA572F112329F0119F512DEB
:100E9000112411115F5F652F6095269F020E20E0DF
:100EA000211D469F040E40E0411D369F030E30E099
:100EB000311D1124250F2083450F4183350F3283C7
:100EC0008453934F33964A2F490F803FBFEF9B07C0
:100ED00009F0BBCF58D980910501865F94CF51119D
:100EE0000BC04AEA349F030E30E0311D1124BD2FA0
:100EF000B31B3B2F420FC0CF422F4095322F20E033
:100F0000C2CF611110C051110AC02AEA329F030EEC
:100F100030E0311D11244D2F431B3B5AF0CF322FAF
:100F2000309540E0B0CF511106C045E5420F3D2F4E
:100F3000321B242FF6CF4AEA420F302FF9CF8930E7
:100F400089F560E070E08FEF35DD20910501822F9B
:100F500090E00496322F6FEFE32FF0E08E179F079B
:100F6000A4F0AF01343158F4440F551FE40FF51FBE
:100F7000EF53FF4F6083618312823F5FEDCF445197
:100F80005109FA01EE0FFF1FF1CF3093C000243159
:100F900019F41092050103C02F5F20930501F3D8C7
:100FA0008FE0F6CE8A3029F580910501811103C0CA
:100FB00060E070E0FFDC29D54B015C0126D5A30180
:100FC000920178D58B01000F111F060F171F0F53C9
:100FD0001F4FF80110821182C501B401A7019601CB
:100FE00069D5D80112966C938AE080930701CBD81B
:100FF000D1CE8B3059F480910501811103C060E09E
:1010000070E0D8DC81E080930501D5CF8C3009F009
:1010100057C0E1ECF0E085E1815029F010821182A7
:1010200012823396F9CFA0910501BA2F2A2F30E012
:10103000B9016F5F7F4F1FEF8B2F90E0BF5F681785
:10104000790764F0AC01440F551F840F951FFC0114
:10105000EF53FF4F108211821283EECF83E18A1B80
:1010600041E150E0421B530B7FEF282F30E06FEF40
:10107000680F421753076CF4C901880F991F820F3C
:10108000931FFC01EF53FF4F108211827283862F52
:10109000ECCF8093C000A83061F481E0809303011D
:1010A0008091030181110AC0AF5FA093050184E123
:1010B0009CCFA111F5CF10920301F2CFA150F5CF33
:1010C0008D3009F0BCC080910201813069F460E08C
:1010D00070E08FEF6FDC84E18093040110920501D2
:1010E0001092030110920201209104012F3FB9F4E4
:1010F000E1ECF0E085E19FEF815029F0908391834E
:1011000012823396F9CF84E18093C00081E080930E
:1011100003011092040183E18093050117C024317B
:10112000B9F4E1ECF0E085E19FEF815029F0108205
:10113000118292833396F9CF84E18093C00010929C
:10114000030183E1809304011092050185E04DCFF6
:101150008091050190910301E1ECF0E0281332C089
:1011600040E02FEF84130FC08C9FF0011124EF5348
:10117000FF4F282F3FEF243160F4308331831282F8
:101180002F5F3396F8CF1082118222834F5F339600
:10119000E9CF2093C000911104C041504093040155
:1011A000D3CF90E09C01220F331F820F931FFC01CD
:1011B000EF53FF4F108211828FEF82834F5F409376
:1011C0000401A9CF91111BC02FEF891731F01082B4
:1011D000118222839F5F3396F8CF8093C000482FFF
:1011E00050E09A01220F331F240F351FF901EF53EE
:1011F000FF4F9FEF9083918312828F5F8DCF93E19A
:101200002FEF3397891728F424AF25AF16AE9150EE
:10121000F8CF982F843108F093E19093C000482FC5
:1012200050E09A01220F331F240F351FF901EF53AD
:10123000FF4F108211829FEF928381506DCF8E30CD
:1012400009F044C088E18093AC00ECEAF0E09AE059
:10125000915049F4E5EBF0E09BE0915041F0819131
:1012600088518083FACF8191885E8083F1CF84E1B9
:10127000809308018091BE008093BF0060910501BA
:10128000E1ECF0E030E020E0462F50E0CA01820FB0
:10129000931F84319105B8F088569F4FDC018C91E3
:1012A0001082118282832F5F3F4F339624313105A4
:1012B00069F784E18093C000633109F46ACE6F5FFF
:1012C000609305016CCE84559F4FE8CF8F3091F429
:1012D00080910201882319F05EDB1092020182E006
:1012E00088DB80910501833109F453CE8F5F8093B1
:1012F000050155CE803109F075C280910201882325
:1013000019F049DB1092020180910401811117C08C
:1013100080910501E1ECF0E093E12FEF339789171D
:1013200028F414AE25AF16AE9150F8CF843108F0F2
:1013300083E18093C00081E0809304012ACE813054
:1013400081F520910501E1ECF0E083E19FEF339717
:10135000281710F1322F243108F033E1822F90E06A
:101360004FEFFC01E31BF109E455FF4F50813C9F17
:10137000F0011124EF53FF4F10824183528331500B
:1013800080F73093C000233109F006CE109205019A
:1013900082E08093040103CE14AE95AF16AE815067
:1013A000D6CF823069F580910501A82FB0E0A45511
:1013B000BF4FE1ECF0E093E13FEF33978917D0F0B6
:1013C000982F843108F093E12FEF9C9FF0011124B6
:1013D000EF53FF4F1082218322839150B0F79093F7
:1013E000C000833109F082CF10920501B3E0B093C1
:1013F0000401D5CD2D9114AE35AF26AF9150DDCF80
:10140000833079F520910501E1ECF0E083E19FEF75
:101410003397281708F1322F243108F033E1C10146
:10142000821B910984559F4F4FEFFC01E30FF11D83
:1014300050813C9FF0011124EF53FF4F10825183E4
:101440004283315090F73093C000233109F0A4CD8E
:101450001092050184E09DCF14AE95AF96AF8150F8
:10146000D7CF843069F580910501A4E1B0E0A81BD5
:10147000B109A455BF4FE1ECF0E093E12FEF3397B2
:101480008917C0F0982F843108F093E12FEF9C9FCB
:10149000F0011124EF53FF4F1082118222839150EB
:1014A000B0F79093C000833109F020CF109205016E
:1014B00085E06FCF3E9114AE35AF26AF9150DFCFB0
:1014C000853071F520910501E1ECF0E083E19FEFBB
:1014D0003397281700F1322F243108F033E1822F9F
:1014E00090E04FEF3C9FF0011124EF53FF4FDC01E0
:1014F000A31BB109A455BF4F5C9150831182428355
:10150000315080F73093C000233109F045CD10925F
:10151000050186E03ECF14AE15AE96AF8150D8CF10
:101520008630C1F56091050173E190E080E0262FDF
:1015300030E01FEF01966717C0F0862F643108F086
:1015400083E19FEF8C9FF0011124EF53FF4F9083B5
:10155000118292838150B0F78093C000633109F00B
:10156000AECE1092050187E014CFAC01440F551F99
:10157000440F551FFC01E41BF50BEF53FF4FD9013E
:10158000A80FB91FA555BF4F4C9144AF15AE16AF6C
:101590007150D0CF8730A1F520910501E1ECF0E04A
:1015A00083E19FEF33972817E0F0E22F243108F012
:1015B000E3E1C101821B910984559F4F4FEF3FEF3B
:1015C0003E0F3E3F99F0DC01AE0FB11D5C91EC9FE8
:1015D000F0011124EF53FF4F408311825283E32F18
:1015E000EECF94AF15AE96AF8150DCCF8FEF8093E6
:1015F000C000233109F0D0CC1092050188E0C9CE9B
:10160000883069F580910501A4E1B0E0A81BB1091B
:10161000A455BF4FE1ECF0E093E13FEF339789171A
:10162000C0F0982F843108F093E12FEF9C9FF001D8
:101630001124EF53FF4F2083118212829150B0F793
:101640009093C000833109F051CE1092050189E0DA
:10165000A0CE2E9134AF15AE26AF9150DFCF89309A
:1016600071F520910501E1ECF0E083E19FEF339704
:10167000281700F1322F243108F033E1822F90E057
:101680004FEFFC01E31BF109E455FF4F50813C9FF4
:10169000F0011124EF53FF4F4083518312823150E8
:1016A00080F73093C000233109F076CC1092050109
:1016B0008AE06FCE94AF15AE16AE8150D8CF8A3087
:1016C00081F580910501A82FB0E0A455BF4FE1EC52
:1016D000F0E093E13FEF3397891798F0E82F8431DA
:1016E00008F0E3E12FEF9FEF9E0F9E3F81F0EC9F0C
:1016F000F0011124EF53FF4F208321831282E92F41
:10170000F2CF2D9134AF25AF16AE9150E4CF9FEFBD
:101710009093C000833109F0E9CD109205018BE070
:1017200038CE8B3079F520910501E1ECF0E083E1D2
:101730009FEF3397281708F1322F243108F033E157
:10174000C101821B910984559F4F4FEF3C9FF001CF
:101750001124EF53FF4FDC01A30FB11D5C915083A7
:1017600041831282315090F73093C000233109F049
:1017700013CC109205018CE00CCE94AF95AF16AE51
:101780008150D7CF8C3009F00ACC80910501A4E1BB
:10179000B0E0A81BB109A455BF4FE1ECF0E093E124
:1017A0002FEF33978917C0F0982F843108F093E119
:1017B0002FEF9C9FF0011124EF53FF4F10822183E4
:1017C00012829150B0F79093C000833109F08ECD12
:1017D0001092050181E0DDCD3E9134AF25AF16AE0C
:1017E0009150DFCF813171F5ECEAF0E085E1815075
:1017F00011F01192FCCF8FEF8093AC008093AD007D
:101800008093AE008093AF008093B0008093B600C9
:101810008093B7008093B8008093B9008093BA009A
:101820008FE08093C00081E0E4D880910501882397
:1018300029F010920501A7D480E5AACA85E080931B
:101840000501F9CF8231E1F4ECEAF0E085E1815065
:1018500011F01192FCCF84E18093C0008FEF809350
:10186000AC008093AD008093AE008093AF00809376
:10187000B6008093B7008093B8008093B9002FCD55
:10188000833169F5ECEAF0E085E1815011F01192C5
:10189000FCCF84E18093C0008FEF8093BF008093E2
:1018A000BE008093BD008093BC0081E0A2D88091EF
:1018B0000501803169F491E0909303019091030157
:1018C00091110BC08F5F809305015DD488E060CAE1
:1018D0008111F4CF10920301F1CF8150F4CF843104
:1018E000C1F5ECEAF0E085E1815011F01192FCCFF6
:1018F00084E18093C0008FEF8093BF008093BE008F
:101900008093BD008093BC0080E073D88091050176
:101910008331D9F41092050180910401883071F46B
:1019200091E0909303019091030191110CC08F5F9E
:101930008093040128D4809104012ACA813099F748
:1019400010920301F0CF8150F3CF8F5F8093050198
:10195000F1CF109206011ECAE9E1F1E08FEF80831A
:1019600012821182148613868FEF9FEFDC0187832A
:101970009087A187B28708958F929F92AF92BF926E
:10198000CF92DF92EF92FF92CF93DF93EC016881C9
:1019900079818A819B81611571058105910521F409
:1019A00064E279ED8BE597E02DE133EF41E050E023
:1019B00081D049015A019B01AC01A7EAB1E496D05C
:1019C0006B017C01ACEEB4EFA50194019BD0C60E77
:1019D000D71EE81EF91EF7FE06C081E0C81AD1081E
:1019E000E10880E8F80AC882D982EA82FB82C7014E
:1019F000B6019F77DF91CF91FF90EF90DF90CF906E
:101A0000BF90AF909F908F9008958F929F92AF92CA
:101A1000BF92CF92DF92EF92FF926091600070913F
:101A200061008091620090916300611571058105EC
:101A3000910521F464E279ED8BE597E02DE133EF38
:101A400041E050E037D049015A019B01AC01A7EABF
:101A5000B1E44CD06B017C01ACEEB4EFA501940174
:101A600051D0C60ED71EE81EF91EF7FE06C081E053
:101A7000C81AD108E10880E8F80AC0926000D09244
:101A80006100E0926200F0926300C701B6019F77A7
:101A9000FF90EF90DF90CF90BF90AF909F908F908E
:101AA000089560936000709361008093620090934A
:101AB00063000895052E97FB16F400940FD057FD90
:101AC00005D024D007FC02D046F408C050954095BC
:101AD000309521953F4F4F4F5F4F089590958095DA
:101AE000709561957F4F8F4F9F4F089531D0A59F7F
:101AF000900DB49F900DA49F800D911D1124089509
:101B0000B7FFF4CFF3DF821B930B0895A1E21A2EE7
:101B1000AA1BBB1BFD010DC0AA1FBB1FEE1FFF1F91
:101B2000A217B307E407F50720F0A21BB30BE40BE1
:101B3000F50B661F771F881F991F1A9469F7609528
:101B40007095809590959B01AC01BD01CF010895E2
:101B5000A29FB001B39FC001A39F01D0B29F700D9F
:101B6000811D1124911D0895DB018F939F93BEDF8A
:101B7000BF91AF91A29F800D911DA39F900DB29F29
:101B8000900D1124089597FB072E16F4009406D0AB
:101B900077FD08D011D007FC05D03EF490958195D3
:101BA0009F4F0895709561957F4F0895D1DFB7FFDE
:101BB0000895821B930B0895AA1BBB1B51E107C01C
:101BC000AA1FBB1FA617B70710F0A61BB70B881FCD
:101BD000991F5A95A9F780959095BC01CD0108955C
:101BE000EE0FFF1F0590F491E02D099481E090E045
:081BF000F89400C0F894FFCF47
:101BF80001000000000000004905490549052805C5
:101C08002405290421050000000089042E042C0461
:0A1C18002805240529049A00510252
:00000001FF
