:1000000045C069C068C067C066C065C064C063C0E1
:1000100062C01EC460C05FC05EC05DC05CC05BC02B
:100020005AC059C058C000000000380035003200E6
:1000300000000000370034003100000000003600EE
:100040003300300004040404040404040202020225
:100050000202030303030303020203010204081064
:1000600020408001020408102001020408102040F2
:1000700080400000000000000000000405070000B0
:10008000000000000000000000008A0C11241FBEC8
:10009000CFE5D4E0DEBFCDBF10E0A0E6B0E0E4EBFA
:1000A000FBE102C005900D92A63AB107D9F721E015
:1000B000A6EAB0E001C01D92A236B207E1F710E057
:1000C000C6E4D0E003C02197FE0168DDC534D10746
:1000D000D1F708D46DCD94CFE0E8F0E08491E9E663
:1000E000F0E09491E2E5F0E0E491EE2301F1882361
:1000F00049F08530A9F08730B1F0843019F48FB51C
:100100008F778FBDF0E0EE0FFF1FE65CFF4FA591EC
:10011000B491EC91E92381E090E059F480E00895F6
:100120008FB58F7DEECF85B58F7D85BDEBCF80E020
:1001300090E0089580E991E008953FB7F8948091A8
:10014000A9009091AA00A091AB00B091AC0022B799
:1001500008B600FE05C02F3F19F00196A11DB11D84
:100160003FBFBA2FA92F982F8827BC01CD01620F5E
:10017000711D811D911D43E0660F771F881F991F18
:100180004A95D1F708958F929F92AF92BF92CF92E6
:10019000DF92EF92FF924B015C01CFDF6B017C019C
:1001A000CCDF6C197D098E099F09683E734081057B
:1001B0009105B0F321E0821A9108A108B10888EEF8
:1001C000C80E83E0D81EE11CF11C81149104A10427
:1001D000B10431F7FF90EF90DF90CF90BF90AF90D8
:1001E0009F908F9008950F931F93CF93DF9320914B
:1001F000A7002F5F322F37703093A70020FF2AC04F
:1002000020E831FD2064347009F02062205FFC0199
:10021000EC01239600E011E06485662321F070E094
:10022000C8018FDC6F5F6187322F369F030E30E08D
:10023000311D1124311110C01682662311F0615056
:1002400061873196EC17FD0739F7DF91CF911F9148
:100250000F91089520E0D5CF31503683EECF4F92E5
:100260005F927F928F929F92AF92BF92CF92DF92D6
:10027000EF92FF920F931F93CF93DF932C01EB012B
:100280005CDFF20127853089621B730B6A307105D0
:10029000B8F3F8948A819B81181619060CF040C1B6
:1002A000E881F98168B3862E689483F838B3377F84
:1002B00038BBDA848F812D2D281B822F2F834F8509
:1002C000042E000C550BAA81BB817D85FC84EE8435
:1002D0007F5FF394E3949E819884B984AB84118109
:1002E000C12C6C2D0C2D2C2D2181112788942111CE
:1002F000280F08F42FEF8195889470FD120F179541
:10030000889471FD120F1795889472FD120F17953E
:10031000889473FD120F1795889474FD120F17952A
:10032000889475FD120F1795889476FD120F179516
:10033000889477FD120F17958894622F7111612FA1
:100340008D0D162F002C88BA17FF38BB2081662729
:10035000889438BB2111290F88BA16FF38BB08F4DE
:100360002FEF9195889438BBF0FC620F88BA15FF87
:1003700038BB67958894F1FC620F38BB6795889409
:1003800088BA14FF38BBF2FC620F6795889438BBBB
:10039000F3FC620F88BA13FF38BB67958894F4FCAE
:1003A000620F38BB6795889488BA12FF38BBF5FC9A
:1003B000620F6795889438BBF6FC620F88BA11FF0C
:1003C00038BB67958894F7FC620F38BB67958894B3
:1003D00088BA10FF38BB122FF110162F9B0D38BBB7
:1003E00000C088BA17FF38BB22816627889438BBC3
:1003F0002111290D88BA16FF38BB08F42FEFE40F3E
:10040000F51F38BBE0FC620F88BA15FF38BB679553
:100410008894E1FC620F38BB6795889488BA14FF12
:1004200038BBE2FC620F6795889438BBE3FC620F2F
:1004300088BA13FF38BB67958894E4FC620F38BB19
:100440006795889488BA12FF38BBE5FC620F679500
:10045000889438BBE6FC620F88BA11FF38BB6795F9
:100460008894E7FC620F38BB6795889488BA10FFC0
:1004700038BB122FE110162F919438BB9A0C002C28
:1004800088BA17FF38BB21816627889438BB2111B1
:10049000280F88BA16FF38BB08F42FEF819588948F
:1004A00038BB70FD620F88BA15FF38BB679588941A
:1004B00071FD620F38BB6795889488BA14FF38BB0A
:1004C00072FD620F6795889438BB73FD620F88BA1E
:1004D00013FF38BB6795889474FD620F38BB67952E
:1004E000889488BA12FF38BB75FD620F67958894AF
:1004F00038BB76FD620F88BA11FF38BB67958894C8
:1005000077FD620F38BB6795889488BA10FF38BBB7
:10051000122F7111162F8D0D38BB119709F013CFC3
:10052000EA81FB8120EF30E0DF011EDB6B017C0103
:10053000A3E0F694E794D794C794AA95D1F730E056
:1005400020E0A9018AE9E89F0E0E411DF89F400DA9
:10055000511D11244F0F511DCA01B0E0A0E0880FBA
:10056000991FAA1FBB1F8C0D9D1DAE1DBF1D893E6F
:1005700043E09407A105B10508F434C0885E9340B8
:10058000A109B10942E0B695A795979587954A9537
:10059000D1F747E0849F080E211D949F200D311D47
:1005A0001124290F311D6091A60070E0860F971F5E
:1005B000820F931F4091C8005091C9006091CA00FA
:1005C0007091CB00292F3327420F531F611D711DDE
:1005D0004093C8005093C9006093CA007093CB0049
:1005E0008093A6007894A9DDF201708B6787DF9174
:1005F000CF911F910F91FF90EF90DF90CF90BF9020
:10060000AF909F908F907F905F904F90089581E082
:1006100090E00895BB9A08956F927F928F92CF9247
:10062000DF92EF92FF920F931F93CF93DF93CDB79B
:10063000DEB762970FB6F894DEBF0FBECDBF6C0178
:100640007A013801822EDC011C962C91CA0157FFD9
:1006500004C088279927841B950B7A8369839C8320
:100660008B839E838D836D867E868F86213041F5B8
:10067000CE010196B8DD83E0888B1A8A198AF7FECD
:1006800002C08DEF888BD601ED91FC910684F78531
:10069000E02DBE016F5F7F4FC601099562960FB6D0
:1006A000F894DEBF0FBECDBFDF91CF911F910F91A8
:1006B000FF90EF90DF90CF908F907F906F90089594
:1006C0001C861B861A86198618861F82D4CFEF9245
:1006D000FF920F931F93CF93DF93CDB7DEB762974F
:1006E0000FB6F894DEBF0FBECDBF7C01DC011C96B7
:1006F0008C917A8369835C834B835E834D830D8702
:100700001E872F878130F1F4CE0101966CDD188AA7
:100710001A8A198AD701ED91FC910684F785E02D9C
:10072000BE016F5F7F4FC701099562960FB6F894BF
:10073000DEBF0FBECDBFDF91CF911F910F91FF9014
:10074000EF9008951C861B861A86198618861F82CC
:10075000DECF1092D800E8EDF0E09CE1915021F05E
:100760008191875F8083FACF8CE180936101089546
:10077000CF92DF92EF926B01E82E1092F4008091FD
:10078000F4008C3180F4282F30E0F901EE0FFF1FC8
:10079000E20FF31FEB50FF4FC082D182E2828F5FE6
:1007A0008093F400ECCFEF90DF90CF9008955091BC
:1007B0005E01A5EFB0E090E0E52FE90FEC3110F01D
:1007C000EC51FCCFF0E0E852FF4F208130E040E0F8
:1007D000882339F0322F40E0813011F4422F30E08D
:1007E00020E02C9311964C93119712963C931297FC
:1007F0009F5F13969C3101F79093F400089590E069
:1008000080E00895FC018585968508950F931F93D8
:10081000CF93DF9300D01F92CDB7DEB7AB01198223
:100820001A821B82DC01ED91FC910190F081E02D98
:1008300000E010E020E0BE016F5F7F4F09950F9050
:100840000F900F90DF91CF911F910F910895ACD928
:100850001F920F920FB60F9211242F933F938F93F5
:100860009F93AF93BF938091C8009091C900A091CE
:10087000CA00B091CB003091A80026E0230F2D379D
:1008800068F129E8230F0396A11DB11D2093A8004C
:100890008093C8009093C900A093CA00B093CB0086
:1008A0008091A9009091AA00A091AB00B091AC00FA
:1008B0000196A11DB11D8093A9009093AA00A09359
:1008C000AB00B093AC00BF91AF919F918F913F91DE
:1008D0002F910F900FBE0F901F9018950296A11D9B
:1008E000B11DD4CFCF93DF93CDB7DEB72E970FB620
:1008F000F894DEBF0FBECDBF789483B7836083BF0B
:1009000089B7816089BF82E08EBD8EB581608EBD62
:100910008FB581608FBD85B5846085BD85B58064E8
:1009200085BD86E886B91AB8E9E6F0E02491E2E5EB
:10093000F0E084918823C9F090E0880F991FFC01B2
:10094000E05DFF4F45915491FC01EA5DFF4FA59199
:10095000B4919FB7F894FA013081822F8095832358
:100960008083EC91E22BEC939FBF8091C0008111BA
:1009700045C01092B2001092B1008FEF8093B50085
:100980008093B6008093B7008093B8008093B9003D
:100990008093BA0081E08093BB001092BD0010925A
:1009A000BC001092B4001092B3008091D2009091DC
:1009B000D300892B31F48FEA90E09093D300809399
:1009C000D200E091AD00F091AE00309721F08FEAB7
:1009D00090E0958384838FEA90E09093AE008093BB
:1009E000AD001092BF001092BE008AE790E0909395
:1009F000B0008093AF0081E08093C000BB9A85EF88
:100A000090E09093B2008093B1008CE190E09093DD
:100A1000BD008093BC008091520190915301A09140
:100A20005401B0915501843CF9E09F07A105B1053F
:100A300020F484EC99E0A0E0B0E080935201909320
:100A40005301A0935401B093550182E380934F0169
:100A50001FBA1EBAE09A8DB380935F018CE1282EF5
:100A6000312C9CE1492E512C612C712C812C912C24
:100A700054018A9403E0F02E1092610110916101FB
:100A8000809160011817B0F527DB892B09F022C18E
:100A90006EE170E080E090E076DB1EDB892B09F0F0
:100AA00019C180915F018F5F80935F0110925E0199
:100AB00010925D0110925C0182E380934F0181E00E
:100AC00080934E0180934D012FB7F8948091C80018
:100AD0009091C900A091CA00B091CB002FBF809324
:100AE000490190934A01A0934B01B0934C01F4DA71
:100AF000892BE9F380914D01813029F52FB7F894C6
:100B00008091C8009091C900A091CA00B091CB001B
:100B10002FBF4091490150914A0160914B01709162
:100B20004C01841B950BA60BB70B80339547A10591
:100B3000B10548F01FBA1EBA80915F018DBBE29AE1
:100B4000E19A10924D0180915F016FEF70E0882370
:100B500031F0813009F0C7C060E070E880E008DE65
:100B60008FEF80936001E0904F018091520190914E
:100B70005301A0915401B0915501892B8A2B8B2BE5
:100B8000D1F0DBDA0091D4001091D5002091D6008D
:100B90003091D700601B710B820B930B00915201B7
:100BA0001091530120915401309155016017710744
:100BB00082079307D0F2C1DA6093D4007093D50016
:100BC0008093D6009093D700E0915A01F0915B0199
:100BD000309759F04091560150915701609158015A
:100BE000709159018E2D0995E82EC090D200D090B9
:100BF000D3004E2D50E070E060E04B875C876D873E
:100C00007E87C114D10409F425C6D6011C96BC9177
:100C1000B88780915001909151018436910510F46C
:100C2000F6011486D601ED91FC91428153815A87D9
:100C3000498719821A821B82EE20A1F186010A5F80
:100C40001F4FF0E0E0E0D8012D918D01222331F11A
:100C50001296BC91BC83BB2309F130E050E040E028
:100C60002F5F3F4F4F4F5F4F6B857C858D859E85F6
:100C700059D79B01AC016C81862F90E0B0E0A0E0D9
:100C8000BC01CD016F5F7F4F8F4F9F4F4BD7A1E0CE
:100C9000B0E0AC0FBD1FAE0FBF1F8C933196E33099
:100CA000F10589F609811A812B81D6011D964D9196
:100CB0005C911E9712966D917C91C601E985FA852B
:100CC0000995E885D6011C96EC931C971496CD9057
:100CD000DC9097CF65E070E080E090E054DA1F5F31
:100CE00010936101CBCE823021F460E070E08FEF91
:100CF00036CF833021F460E870E080E830CF6FEFCA
:100D000070E0843021F0853099F460E070E880E094
:100D10002FDD80915E0180934F018233A9F491E031
:100D200090935C0190915C01911121C28F5F20C270
:100D3000863021F460E070E08FEFEACF873049F42D
:100D400060E870E080E8E4CF8111ECCF10925C01A4
:100D5000E9CF883009F091C030915E01E5EFF0E015
:100D6000A32F50E040E0B5E5EB2E60E00AEA1FE07B
:100D7000D12E9A2F990F990F990F292F7E2D279FEA
:100D8000020E20E0211D1124822F2A2F2074BA2F59
:100D9000B072A7FD53C021113FC0B11106C0982FFA
:100DA0009095A82F892F90E004C0A5E5A80F90E0AA
:100DB0008BEA262F1D2D112329F0119F212D11249F
:100DC00011112F5FB22FB095782F1B2F719F070E37
:100DD00070E0711D872F7A2F719F070E70E0711DD3
:100DE000A72F792F719F070E70E0711D972F112487
:100DF000820F8083A20FA183920F92834C5D564F86
:100E00003396A32FA50F403F8FEF580709F0B1CFBE
:100E1000365F30935E01AEC1B1110BC0292F209F08
:100E2000020E20E0211D11249BEA921BAAEAA80FC2
:100E3000B9CFA82FA095982F80E0BBCF211111C06A
:100E4000B1110BC0292F209F020E20E0211D11247B
:100E5000ABEAA21B95E5920FEFCF982F9095A0E0FB
:100E6000A8CFB11106C025E5280F9BEA981B822F59
:100E7000F6CF2AEA280F9E2DF9CF893081F560E060
:100E800070E08FEF75DC20915E01822F90E0049678
:100E9000322F4FEFE32FF0E08E179F07A4F0BF0132
:100EA0003C3158F4660F771FE60FF71FEB50FF4FEA
:100EB0004083418312823F5FEDCF6C517109FB018A
:100EC000EE0FFF1FF1CF3093F4002C3119F4109284
:100ED0005E0103C02F5F20935E018FE042CE8A3017
:100EE00031F580915E01811103C060E070E040DC6B
:100EF0006AD56C837D838E839F8365D5A301920120
:100F0000B7D58B01000F111F060F171F0B501F4F76
:100F1000D8011C9211961C926C817D818E819F81DB
:100F2000A5019401A5D5F80162838AE01ACE8B3021
:100F300059F480915E01811103C060E070E018DC1B
:100F400081E080935E01D4CF8C3009F056C0E5EF8C
:100F5000F0E08DE1815029F01082118212823396E7
:100F6000F9CF80915E01982F282F30E0A9014F5FC3
:100F70005F4FAFEF692F70E09F5F461757075CF038
:100F8000FB01EE0FFF1FE60FF71FEB50FF4F108224
:100F90001182A283EFCF9BE1981B49E150E0421BF5
:100FA000530B9A017FEF492F50E06FEF690F241721
:100FB000350764F4FA01EE0FFF1FE40FF51FEB5045
:100FC000FF4F108211827283962FEDCF9093F40021
:100FD0008C3061F491E090935C0190915C019111EF
:100FE0000AC08F5F80935E0184E1BBCD8111F5CF94
:100FF00010925C01F2CF8150F5CF8D3009F0BCC06A
:1010000080914E01813069F460E070E08FEFB0DBD9
:101010008CE180935D0110925E0110925C01109250
:101020004E0190915D019F3FA1F4E5EFF0E08DE16D
:10103000815029F09083918312823396F9CF8CE10D
:101040008093F40081E080935C0110925D018BE15C
:101050008FC09C31B1F4E5EFF0E08DE19FEF81505E
:1010600029F01082118292833396F9CF8CE180931C
:10107000F40010925C018BE180935D0110925E019F
:1010800079C080915E0120915C01981334C0E5EF36
:10109000F0E090E03FEF89130FC08F9DF001112425
:1010A000EB50FF4F382F4FEF3C3160F440834183CA
:1010B00012823F5F3396F8CF1082118232839F5F96
:1010C0003396E9CF3093F400211104C091509093EE
:1010D0005D01D4CF282F30E0F901EE0FFF1FE20FA2
:1010E000F31FEB50FF4F108211828FEF82839F5FBF
:1010F00090935D01ACCF21111BC0E5EFF0E09FEFB5
:10110000821731F01082118292832F5F3396F8CFCD
:101110008093F400282F30E0F901EE0FFF1FE20F5B
:10112000F31FEB50FF4F9FEF908391831282FECD10
:10113000E6E4F1E09BE12FEF891730F4208321836F
:10114000128291503397F8CF982F8C3108F09BE1A1
:101150009093F400282F30E0F901EE0FFF1FE20F0B
:10116000F31FEB50FF4F108211829FEF928381504B
:1011700080935E0185E0F5CC8E3041F560915E0193
:10118000E5EFF0E030E020E0462F50E0CA01820FAA
:10119000931F8C319105B8F082599F4FDC018C91DF
:1011A0001082118282832F5F3F4F33962C3131059D
:1011B00069F78CE18093F4006B3109F488CE6F5F9E
:1011C00060935E018ACE86579F4FE8CF8F3091F4AF
:1011D00080914E01882319F0BCDA10924E0182E012
:1011E000E6DA80915E018B3109F471CE8F5F8093D6
:1011F0005E0173CE803109F06EC280914E0188236A
:1012000019F0A7DA10924E0180915D01811117C08B
:1012100080915E01E6E4F1E09BE12FEF891730F465
:1012200010822183128291503397F8CF8C3108F0CD
:101230008BE18093F40081E080935D0148CE8130A2
:1012400081F580915E01E6E4F1E09BE12FEF8917E3
:1012500010F1982F8C3108F09BE1282F30E05FEFE0
:10126000F901E91BF109E852FF4F40819F9DF00110
:101270001124EB50FF4F108251834283915080F72D
:101280009093F4008B3109F0B1CF10925E0182E0AF
:1012900080935D0122CE1082218312829150339778
:1012A000D6CF823069F580915E01A82FB0E0A852B8
:1012B000BF4FE6E4F1E09BE13FEF8917D0F0982FB4
:1012C0008C3108F09BE12FEF9F9DF0011124EB5032
:1012D000FF4F1082218322839150B0F79093F40046
:1012E0008B3109F083CF10925E01B3E0B0935D01C2
:1012F000F4CD2D9110823183228391503397DDCF2D
:101300008330A9F580915E01E6E4F1E09BE12FEFE7
:101310008917E8F0E82F8C3108F0EBE12BE130E0A1
:10132000281B310928523F4F4FEF9FEF9E0F9E3FE2
:10133000A1F0D901AE0FB11D5C91EF9DF001112418
:10134000EB50FF4F108251834283E92FEECF108282
:101350002183228391503397DBCF9FEF9093F4004A
:101360008B3109F043CF10925E0184E091CF84303D
:1013700061F580915E01D101A81BB109A852BF4F50
:10138000E6E4F1E09BE12FEF8917C0F0982F8C3154
:1013900008F09BE12FEF9F9DF0011124EB50FF4FD0
:1013A0001082118222839150B0F79093F4008B3118
:1013B00009F01CCF10925E0185E06ACF3E91108249
:1013C0003183228391503397DFCF8530A1F580910F
:1013D0005E0125EF30E09BE14FEF23503109891783
:1013E00000F1982F8C3108F09BE1282F30E04FEF6F
:1013F0009F9DF0011124EB50FF4FD901A91BB109AA
:10140000A852BF4F5C91508311824283915080F764
:101410009093F4008B3109F0E9CE10925E0186E0E2
:1014200037CFF901EC5AFF4F108231961082319676
:1014300040839150D2CF863081F580915E01A82FF4
:10144000B0E0A852BF4FE6E4F1E09BE12FEF89172F
:1014500098F0E82F8C3108F0EBE12FEF9FEF9E0F13
:101460009E3F89F0EF9DF0011124EB50FF4F208348
:1014700011822283E92FF2CF3D91308311822283A2
:1014800091503397E4CF9FEF9093F4008B3109F0A4
:10149000ADCE10925E0187E0FBCE873081F5809162
:1014A0005E01E6E4F1E09BE12FEF891710F1982F40
:1014B0008C3108F09BE12BE130E0281B31092852E8
:1014C0003F4F5FEFF901E90FF11D40819F9DF00152
:1014D0001124EB50FF4F508311824283915090F7BB
:1014E0009093F4008B3109F081CE10925E0188E078
:1014F000CFCE20831182228391503397D6CF88306C
:1015000061F580915E01D101A81BB109A852BF4FBE
:10151000E6E4F1E09BE13FEF8917C0F0982F8C31B2
:1015200008F09BE12FEF9F9DF0011124EB50FF4F3E
:101530002083118212829150B0F79093F4008B3186
:1015400009F054CE10925E0189E0A2CE2E91308334
:101550001182228391503397DFCF893071F58091CA
:101560005E01E6E4F1E09BE12FEF891700F1982F8F
:101570008C3108F09BE1282F30E05FEFF901E91B87
:10158000F109E852FF4F40819F9DF0011124EB507B
:10159000FF4F508341831282915080F79093F40063
:1015A0008B3109F023CE10925E018AE071CE208348
:1015B0001182128291503397D8CF8A3059F5809199
:1015C0005E01A82FB0E0A852BF4FE6E4F1E09BE136
:1015D0003FEF8917C0F0982F8C3108F09BE12FEF77
:1015E0009F9DF0011124EB50FF4F20832183128235
:1015F0009150B0F79093F4008B3109F0F7CD109231
:101600005E018BE045CE2D91308321831282915073
:101610003397DFCF8B3081F580915E01E6E4F1E016
:101620009BE12FEF891710F1982F8C3108F09BE187
:101630002BE130E0281B310928523F4F4FEF9F9D8F
:10164000F0011124EB50FF4FD901A90FB11D5C919E
:10165000508341831282915090F79093F4008B3124
:1016600009F0C4CD10925E018CE012CE208321835C
:10167000128291503397D6CF8C3009F02ECC8091C6
:101680005E01D101A81BB109A852BF4FE6E4F1E009
:101690009BE12FEF8917C0F0982F8C3108F09BE168
:1016A0002FEF9F9DF0011124EB50FF4F10822183FB
:1016B00012829150B0F79093F4008B3109F096CDDF
:1016C00010925E0181E0E4CD3E913083218312824D
:1016D00091503397DFCF8131A9F5E8EDF0E08DE14E
:1016E000815011F01192FCCF8FEF8093D80080933E
:1016F000D9008093DA008093DB008093DC00809334
:10170000DD008093DE008093E6008093E700809305
:10171000E8008093E9008093EA008093EB008093D7
:10172000EC0085E18093F40081E041D880915E0176
:10173000882321F010925E0180E513CA87E0809330
:101740005E01FACF8231E1F4E8EDF0E08DE1815005
:1017500011F01192FCCF8CE18093F4008FEF809315
:10176000D8008093D9008093DA008093DB008093C7
:10177000E6008093E7008093E8008093E9002FCD96
:10178000833161F5E8EDF0E08DE1815011F01192C7
:10179000FCCF8CE18093F4008FEF8093F300809373
:1017A000F2008093F1008093F00081E000D88091F6
:1017B0005E01883161F491E090935C0190915C014D
:1017C00091110AC08F5F80935E0188E0CAC98111C0
:1017D000F5CF10925C01F2CF8150F5CF8431B9F58D
:1017E000E8EDF0E08DE1815011F01192FCCF8CE139
:1017F0008093F4008FEF8093F3008093F200809346
:10180000F1008093F00080E0D2D790915E0180914A
:101810005D019B31C1F410925E01883069F491E062
:1018200090935C0190915C0191110BC08F5F80934C
:101830005D0180915D0195C98130A1F710925C0135
:10184000F1CF8150F4CF9F5F90935E01F2CF109261
:101850005F0189C98091D0009091D1009C012F5FD8
:101860003F4F3093D1002093D00049970CF44BC0E8
:101870008FB7F8940091C8001091C9002091CA0058
:101880003091CB008FBF8091CC009091CD00A09182
:10189000CE00B091CF00A9019801281B390B4A0B4B
:1018A0005B0B21F421E030E040E050E0E091D0001B
:1018B000F091D10088EE93E0E89FB001E99F700DB0
:1018C000F89F700D1124072E000C880B990BFCD08B
:1018D00030935101209350011092D1001092D0000A
:1018E0002FB7F8948091C8009091C900A091CA00C8
:1018F000B091CB002FBF8093CC009093CD00A093EC
:10190000CE00B093CF0080E090E0892B09F4B4C8FA
:1019100077D3B0C8EFE4F1E08FEF808312821182B9
:10192000148613868FEF9FEFDC0187839087A18752
:10193000B28708958F929F92AF92BF92CF92DF921B
:10194000EF92FF92CF93DF93EC01688179818A81D6
:101950009B81611571058105910521F464E279EDA2
:101960008BE597E02DE133EF41E050E081D0490174
:101970005A019B01AC01A7EAB1E496D06B017C014E
:10198000ACEEB4EFA50194019BD0C60ED71EE81EA5
:10199000F91EF7FE06C081E0C81AD108E10880E808
:1019A000F80AC882D982EA82FB82C701B6019F7712
:1019B000DF91CF91FF90EF90DF90CF90BF90AF90ED
:1019C0009F908F9008958F929F92AF92BF92CF92E7
:1019D000DF92EF92FF9260916000709161008091C0
:1019E000620090916300611571058105910521F4F4
:1019F00064E279ED8BE597E02DE133EF41E050E0D3
:101A000037D049015A019B01AC01A7EAB1E44CD09F
:101A10006B017C01ACEEB4EFA501940151D0C60E70
:101A2000D71EE81EF91EF7FE06C081E0C81AD108CD
:101A3000E10880E8F80AC0926000D0926100E0926C
:101A40006200F0926300C701B6019F77FF90EF90AC
:101A5000DF90CF90BF90AF909F908F90089560934C
:101A6000600070936100809362009093630008951A
:101A7000052E97FB16F400940FD057FD05D024D007
:101A800007FC02D046F408C050954095309521954A
:101A90003F4F4F4F5F4F089590958095709561959A
:101AA0007F4F8F4F9F4F089531D0A59F900DB49FCA
:101AB000900DA49F800D911D11240895B7FFF4CFC0
:101AC000F3DF821B930B0895A1E21A2EAA1BBB1B06
:101AD000FD010DC0AA1FBB1FEE1FFF1FA217B307FA
:101AE000E407F50720F0A21BB30BE40BF50B661F10
:101AF000771F881F991F1A9469F7609570958095D4
:101B000090959B01AC01BD01CF010895A29FB0014A
:101B1000B39FC001A39F01D0B29F700D811D1124FE
:101B2000911D0895DB018F939F93BEDFBF91AF910D
:101B3000A29F800D911DA39F900DB29F900D112427
:101B4000089597FB072E16F4009406D077FD08D071
:101B500011D007FC05D03EF4909581959F4F0895D4
:101B6000709561957F4F0895D1DFB7FF0895821B6F
:101B7000930B0895AA1BBB1B51E107C0AA1FBB1FF3
:101B8000A617B70710F0A61BB70B881F991F5A9509
:101B9000A9F780959095BC01CD010895EE0FFF1F28
:101BA0000590F491E02D099481E090E0F89400C054
:041BB000F894FFCFD7
:101BB4000100000000000000270427042704060495
:101BC40002040703FF030000000067030C030A0379
:101BD4000604020407039A002F01122436485A6CA3
:101BE4007E90A2B4C6D8EAFCEAD8C6B4A2907E6CB1
:061BF4005A4836241212CB
:00000001FF
