:1000000045C069C068C067C066C065C064C063C0E1
:1000100062C00DC460C05FC05EC05DC05CC05BC03C
:100020005AC059C058C000000000380035003200E6
:1000300000000000370034003100000000003600EE
:100040003300300004040404040404040202020225
:100050000202030303030303020203010204081064
:1000600020408001020408102001020408102040F2
:1000700080400000000000000000000405070000B0
:1000800000000000000000000000120C11241FBE40
:10009000CFE5D4E0DEBFCDBF10E0A0E6B0E0E4ECF9
:1000A000FAE102C005900D92A63AB107D9F721E016
:1000B000A6EAB0E001C01D92A136B207E1F710E058
:1000C000C6E4D0E003C02197FE01F0DCC534D107BF
:1000D000D1F7F7D3F5CC94CFE0E8F0E08491E9E6EE
:1000E000F0E09491E2E5F0E0E491EE2301F1882361
:1000F00049F08530A9F08730B1F0843019F48FB51C
:100100008F778FBDF0E0EE0FFF1FE65CFF4FA591EC
:10011000B491EC91E92381E090E059F480E00895F6
:100120008FB58F7DEECF85B58F7D85BDEBCF80E020
:1001300090E0089580E991E008953FB7F8948091A8
:10014000A9009091AA00A091AB00B091AC0022B799
:1001500008B600FE05C02F3F19F00196A11DB11D84
:100160003FBFBA2FA92F982F8827BC01CD01620F5E
:10017000711D811D911D43E0660F771F881F991F18
:100180004A95D1F708958F929F92AF92BF92CF92E6
:10019000DF92EF92FF924B015C01CFDF6B017C019C
:1001A000CCDF6C197D098E099F09683E734081057B
:1001B0009105B0F321E0821A9108A108B10888EEF8
:1001C000C80E83E0D81EE11CF11C81149104A10427
:1001D000B10431F7FF90EF90DF90CF90BF90AF90D8
:1001E0009F908F9008950F931F93CF93DF9320914B
:1001F000A7002F5F322F37703093A70020FF2AC04F
:1002000020E831FD2064347009F02062205FFC0199
:10021000EC01239600E011E06485662321F070E094
:10022000C80117DC6F5F6187322F369F030E30E005
:10023000311D1124311110C01682662311F0615056
:1002400061873196EC17FD0739F7DF91CF911F9148
:100250000F91089520E0D5CF31503683EECF4F92E5
:100260005F927F928F929F92AF92BF92CF92DF92D6
:10027000EF92FF920F931F93CF93DF932C01EB012B
:100280005CDFF20127853089621B730B6A307105D0
:10029000B8F3F8948A819B81181619060CF040C1B6
:1002A000E881F98168B3862E689483F838B3377F84
:1002B00038BBDA848F812D2D281B822F2F834F8509
:1002C000042E000C550BAA81BB817D85FC84EE8435
:1002D0007F5FF394E3949E819884B984AB84118109
:1002E000C12C6C2D0C2D2C2D2181112788942111CE
:1002F000280F08F42FEF8195889470FD120F179541
:10030000889471FD120F1795889472FD120F17953E
:10031000889473FD120F1795889474FD120F17952A
:10032000889475FD120F1795889476FD120F179516
:10033000889477FD120F17958894622F7111612FA1
:100340008D0D162F002C88BA17FF38BB2081662729
:10035000889438BB2111290F88BA16FF38BB08F4DE
:100360002FEF9195889438BBF0FC620F88BA15FF87
:1003700038BB67958894F1FC620F38BB6795889409
:1003800088BA14FF38BBF2FC620F6795889438BBBB
:10039000F3FC620F88BA13FF38BB67958894F4FCAE
:1003A000620F38BB6795889488BA12FF38BBF5FC9A
:1003B000620F6795889438BBF6FC620F88BA11FF0C
:1003C00038BB67958894F7FC620F38BB67958894B3
:1003D00088BA10FF38BB122FF110162F9B0D38BBB7
:1003E00000C088BA17FF38BB22816627889438BBC3
:1003F0002111290D88BA16FF38BB08F42FEFE40F3E
:10040000F51F38BBE0FC620F88BA15FF38BB679553
:100410008894E1FC620F38BB6795889488BA14FF12
:1004200038BBE2FC620F6795889438BBE3FC620F2F
:1004300088BA13FF38BB67958894E4FC620F38BB19
:100440006795889488BA12FF38BBE5FC620F679500
:10045000889438BBE6FC620F88BA11FF38BB6795F9
:100460008894E7FC620F38BB6795889488BA10FFC0
:1004700038BB122FE110162F919438BB9A0C002C28
:1004800088BA17FF38BB21816627889438BB2111B1
:10049000280F88BA16FF38BB08F42FEF819588948F
:1004A00038BB70FD620F88BA15FF38BB679588941A
:1004B00071FD620F38BB6795889488BA14FF38BB0A
:1004C00072FD620F6795889438BB73FD620F88BA1E
:1004D00013FF38BB6795889474FD620F38BB67952E
:1004E000889488BA12FF38BB75FD620F67958894AF
:1004F00038BB76FD620F88BA11FF38BB67958894C8
:1005000077FD620F38BB6795889488BA10FF38BBB7
:10051000122F7111162F8D0D38BB119709F013CFC3
:10052000EA81FB8120EF30E0DF01A6DA6B017C017C
:10053000A3E0F694E794D794C794AA95D1F730E056
:1005400020E0A9018AE9E89F0E0E411DF89F400DA9
:10055000511D11244F0F511DCA01B0E0A0E0880FBA
:10056000991FAA1FBB1F8C0D9D1DAE1DBF1D893E6F
:1005700043E09407A105B10508F434C0885E9340B8
:10058000A109B10942E0B695A795979587954A9537
:10059000D1F747E0849F080E211D949F200D311D47
:1005A0001124290F311D6091A60070E0860F971F5E
:1005B000820F931F4091C8005091C9006091CA00FA
:1005C0007091CB00292F3327420F531F611D711DDE
:1005D0004093C8005093C9006093CA007093CB0049
:1005E0008093A6007894A9DDF201708B6787DF9174
:1005F000CF911F910F91FF90EF90DF90CF90BF9020
:10060000AF909F908F907F905F904F90089581E082
:1006100090E00895BB9A08956F927F928F92CF9247
:10062000DF92EF92FF920F931F93CF93DF93CDB79B
:10063000DEB762970FB6F894DEBF0FBECDBF6C0178
:100640007A013801822EDC011C962C91CA0157FFD9
:1006500004C088279927841B950B7A8369839C8320
:100660008B839E838D836D867E868F86213041F5B8
:10067000CE010196B8DD83E0888B1A8A198AF7FECD
:1006800002C08DEF888BD601ED91FC910684F78531
:10069000E02DBE016F5F7F4FC601099562960FB6D0
:1006A000F894DEBF0FBECDBFDF91CF911F910F91A8
:1006B000FF90EF90DF90CF908F907F906F90089594
:1006C0001C861B861A86198618861F82D4CFEF9245
:1006D000FF920F931F93CF93DF93CDB7DEB762974F
:1006E0000FB6F894DEBF0FBECDBF7C01DC011C96B7
:1006F0008C917A8369835C834B835E834D830D8702
:100700001E872F878130F1F4CE0101966CDD188AA7
:100710001A8A198AD701ED91FC910684F785E02D9C
:10072000BE016F5F7F4FC701099562960FB6F894BF
:10073000DEBF0FBECDBFDF91CF911F910F91FF9014
:10074000EF9008951C861B861A86198618861F82CC
:10075000DECF10923E01EEE3F1E08191875F80836E
:1007600081E0E935F807C9F70895E8EDF0E0619315
:100770007193819391E0EC32F907C9F70895509194
:100780005E0160915A0170915B01A8EDB0E020E03C
:10079000E52FE20FEC3110F0EC51FCCFE60FF72F14
:1007A000F11D9081882341F08130A1F03FEF82302C
:1007B00021F4392F40E010C030E040E09C931196C6
:1007C0004C93119712963C9312972F5F13962C31EE
:1007D000F9F60895492F30E090E0F0CF90E080E006
:1007E0000895FC018585968508950F931F93CF93F7
:1007F000DF9300D01F92CDB7DEB7AB0119821A820A
:100800001B82DC01ED91FC910190F081E02D00E074
:1008100010E020E0BE016F5F7F4F09950F900F90B1
:100820000F90DF91CF911F910F91089545D91F929D
:100830000F920FB60F9211242F933F938F939F9394
:10084000AF93BF938091C8009091C900A091CA0056
:10085000B091CB003091A80026E0230F2D3768F12E
:1008600029E8230F0396A11DB11D2093A8008093B2
:10087000C8009093C900A093CA00B093CB008091A8
:10088000A9009091AA00A091AB00B091AC00019694
:10089000A11DB11D8093A9009093AA00A093AB0065
:1008A000B093AC00BF91AF919F918F913F912F91E9
:1008B0000F900FBE0F901F9018950296A11DB11DAD
:1008C000D4CFCF93DF93CDB7DEB729970FB6F89487
:1008D000DEBF0FBECDBF789483B7836083BF89B777
:1008E000816089BF82E08EBD8EB581608EBD8FB57F
:1008F00081608FBD85B5846085BD85B5806485BD0B
:1009000086E886B91AB8E9E6F0E02491E2E5F0E07D
:1009100084918823C9F090E0880F991FFC01E05D65
:10092000FF4F45915491FC01EA5DFF4FA591B491B1
:100930009FB7F894FA013081822F809583238083BA
:10094000EC91E22BEC939FBF8091C000811145C0D8
:100950001092B2001092B1008FEF8093B500809397
:10096000B6008093B7008093B8008093B90080935D
:10097000BA0081E08093BB001092BD001092BC00D1
:100980001092B4001092B3008091D2009091D300E5
:10099000892B31F48FEA90E09093D3008093D200BA
:1009A000E091AD00F091AE00309721F08FEA90E039
:1009B000958384838FEA90E09093AE008093AD009E
:1009C0001092BF001092BE0086E990E09093B000B4
:1009D0008093AF0081E08093C000BB9A88ED90E0E7
:1009E0009093B2008093B1008CE190E09093BD00B1
:1009F0008093BC008091340190913501A091360123
:100A0000B0913701843CF9E09F07A105B10520F4BE
:100A100084EC99E0A0E0B0E080933401909335013C
:100A2000A0933601B093370182E3809331011FBA5E
:100A30001EBAE09A8DB380935F019CE1A92EB12C80
:100A40002CE1422E512C612C712C0BE1202E312CEB
:100A50008BEA882E10E0809160011817D0F53CDBFE
:100A6000892B09F07CC06EE170E080E090E08BDBC8
:100A700033DB892B09F073C080915F018F5F809316
:100A80005F0110925E0110925D0110925C010EE315
:100A900011E010935B0100935A0182E380933101CE
:100AA00081E0809330012FB7F8948091C800909135
:100AB000C900A091CA00B091CB002FBF80932C0138
:100AC00090932D01A0932E01B0932F0105DB892B6C
:100AD000E9F380913001813029F52FB7F8948091A6
:100AE000C8009091C900A091CA00B091CB002FBF5F
:100AF00040912C0150912D0160912E0170912F0198
:100B0000841B950BA60BB70B80339547A105B10548
:100B100048F01FBA1EBA80915F018DBBE29AE19A3C
:100B20001092300180915F01843078F56FEF70E0B2
:100B3000882329F08130D1F460E070E880E015DE90
:100B400080915E01809331018233D1F491E09093E2
:100B50005C0190915C019111CCC28F5FCBC265E0CA
:100B600070E080E090E00FDB1F5F75CF823021F4F2
:100B700060E070E08FEFE3CF60E870E080E8DFCF07
:100B80008111E7CF10925C01E4CF6FEF70E0843009
:100B900021F0853031F460E070E880E0E6DD8FEF31
:100BA000ACC2863021F460E070E08FEFF7CF873081
:100BB00021F460E870E080E8F1CF883009F044C1AA
:100BC00030915E01E8EDF0E0A32F50E040E0B5E5A4
:100BD000FB2E70E01AEAE12E6FE09A2F990F990F21
:100BE000990F292F0F2D209F020E20E0211D112487
:100BF000822F2A2F2074BA2FB072A7FD05C12111B0
:100C0000F0C0B11106C0982F9095A82F892F90E0C1
:100C100004C0A5E5A80F90E08BEA272F662329F0F2
:100C2000669F212D112461112F5FB22FB095182FCF
:100C30000B2F109F010E10E0111D812F1A2F109FF6
:100C4000010E10E0111DA12F192F109F010E10E0B1
:100C5000111D912F1124820F8083A20FA183920F67
:100C600092834C5D564F3396A32FA50F403F2FEF35
:100C7000520709F0B2CF365F30935E016093600196
:100C8000D09031018091340190913501A0913601CD
:100C9000B0913701892B8A2B8B2BD1F04EDA009142
:100CA000D4001091D5002091D6003091D700601B60
:100CB000710B820B930B009134011091350120913F
:100CC0003601309137016017710782079307D0F220
:100CD00034DA6093D4007093D5008093D60090935B
:100CE000D700E0913C01F0913D01309759F04091DF
:100CF00038015091390160913A0170913B018D2D7D
:100D00000995D82EE090D200F090D3000D2D10E080
:100D100030E020E00E831F8328873987E114F10437
:100D200009F420C5D7011C96CC901C978091320104
:100D3000909133018436910510F41C961C92D701D2
:100D4000ED91FC91028113811D830C8319821A821B
:100D50001B82DD2079F1F701369610E000E0219149
:100D6000222319F19280992001F130E050E040E017
:100D70002F5F3F4F4F4F5F4F6E817F8188859985F1
:100D800059D69B01AC01892D90E0B0E0A0E0BC01F8
:100D9000CD016F5F7F4F8F4F9F4F4CD6A1E0B0E0EA
:100DA000AC0FBD1FA00FB11F8C930F5F1F4F0330FF
:100DB0001105A9F609811A812B81D7011D964D9144
:100DC0005C911E9712966D917C91C701EC81FD811B
:100DD0000995D7011C96CC921C971496ED90FC9027
:100DE0009DCFB1110CC0292F1E2D219F020E20E096
:100DF000211D1124982D921BAAEAA80F07CFA82F16
:100E0000A095982F80E009CF211112C0B1110CC01C
:100E1000292F0E2D209F020E20E0211D1124A82D28
:100E2000A21B95E5920FEECF982F9095A0E0F5CEFE
:100E3000B11106C025E5280F982D981B822FF6CFFB
:100E40002AEA280F9F2DF9CF893071F560E070E014
:100E50008FEF8BDC20915E01822F90E00496322F81
:100E60004FEFE32FF0E08E179F07A4F0BF013C3156
:100E700058F4660F771FE60FF71FE852FF4F4083C5
:100E8000418312823F5FEDCF6C517109FB01EE0F80
:100E9000FF1FF1CF2C3119F410925E0103C02F5FB8
:100EA00020935E018FE029C18A3021F580915E0197
:100EB000811103C060E070E058DC0DD56B017C014E
:100EC0000AD5A30192015CD58B01000F111F060FFB
:100ED000171F08521F4FD8011C9211961C92C70170
:100EE000B6012FEF30E040E050E04AD5F8016283D0
:100EF0008AE003C18B3059F480915E01811103C0F7
:100F000060E070E032DC81E080935E01D6CF8C300F
:100F100009F052C0E8EDF0E010821182128233969F
:100F200001E0EC32F007C1F780915E01982F282F85
:100F300030E0A9014F5F5F4FAFEF692F70E04617B8
:100F4000570764F0FB01EE0FFF1FE60FF71FE85293
:100F5000FF4F10821182A2839F5FEFCF9BE1981B0E
:100F600049E150E0421B530B9A016FEF492F50E0CB
:100F70002417350764F4FA01EE0FFF1FE40FF51F85
:100F8000E852FF4F1082118262839150EFCF8C3074
:100F900061F491E090935C0190915C0191110AC021
:100FA0008F5F80935E0184E1A8C08111F5CF10921C
:100FB0005C01F2CF8150F5CF8D3009F0A1C0909146
:100FC0005D019F3F99F4E8EDF0E08FEF808381832E
:100FD00012823396ACE2B1E0AE17BF07B9F781E0F9
:100FE00080935C0110925D018BE184C09C31A1F47F
:100FF000E8EDF0E08FEF10821182828333960CE2ED
:1010000011E00E171F07B9F710925C018BE1809376
:101010005D0110925E0170C080915E0120915C01C3
:10102000981333C0E8EDF0E090E03FEF891310C073
:1010300013E0819FF0011124E852FF4F382F4FEF4A
:101040003C3161F04083418312823F5F3396F8CF99
:101050001082118232839F5F3396E8CF211104C042
:10106000915090935D01D5CF282F30E0F901EE0F1C
:10107000FF1FE20FF31FE852FF4F108211828FEF24
:1010800082839F5F90935D01AFCF222361F0E9E2FD
:10109000F1E09BE12FEF8917F8F42083218312827E
:1010A00091503397F8CFE8EDF0E09FEF821731F0E1
:1010B0001082118292832F5F3396F8CF282F30E071
:1010C000F901EE0FFF1FE20FF31FE852FF4F9FEFF2
:1010D00090839183128241CD282F30E0F901EE0FE9
:1010E000FF1FE20FF31FE852FF4F108211829FEFA4
:1010F0009283815080935E0185E080936001C0CD32
:101100008E3041F420E630E030935B0120935A01A9
:1011100082E003C38F3011F41CDBFACF803109F079
:1011200043C217DB80915D01811112C020915E01E5
:10113000E9E2F1E08BE19FEF281730F41082918310
:10114000128281503397F8CF81E080935D01A4CE65
:10115000813079F580915E01E9E2F1E09BE12FEFCA
:10116000891708F1982F8C3108F09BE1282F30E087
:1011700053E04FEFF901E91BF109E25CFE4F60819A
:10118000959FF0011124E852FF4F10824183628342
:10119000915080F78B3109F0C6C210925E0182E057
:1011A00080935D017FCE108221831282915033970C
:1011B000D7CF823059F580915E01A82FB0E0A25CB4
:1011C000BE4FE9E2F1E09BE13FEF891738F42D9142
:1011D00010823183228391503397F7CF982F8C312F
:1011E00008F09BE123E03FEF929FF0011124E852C9
:1011F000FF4F1082318332839150B0F78B3109F069
:1012000092C210925E0120935D014CCE833071F545
:1012100080915E01E9E2F1E09BE12FEF891700F197
:10122000982F8C3108F09BE19101281B3109225C39
:101230003E4F63E04FEFF901E90FF11D5081969F9A
:10124000F0011124E852FF4F1082518342839150E4
:1012500090F78B3109F067C210925E0184E0A0CF55
:1012600010822183228391503397D8CF843059F54F
:1012700080915E01D501A81BB109A25CBE4FE9E2D5
:10128000F1E09BE12FEF891738F43E911082318312
:10129000228391503397F7CF982F8C3108F09BE140
:1012A00033E02FEF939FF0011124E852FF4F10829B
:1012B000118222839150B0F78B3109F034C2109221
:1012C0005E0185E06DCF853069F580915E01E9E2D0
:1012D000F1E09BE12FEF8917F8F0982F8C3108F09F
:1012E0009BE163E0482F50E02FEF969FF00111241F
:1012F000E852FF4FDA01A91BB109A25CBE4F3C9135
:10130000308311822283915080F78B3109F00BC218
:1013100010925E0186E044CF1082118222839150A8
:101320003397D9CF863051F580915E01A82FB0E078
:10133000A25CBE4FE9E2F1E09BE12FEF891738F4A0
:101340003D9130831182228391503397F7CF982FAC
:101350008C3108F09BE133E02FEF939FF0011124D3
:10136000E852FF4F2083118222839150B0F78B31D6
:1013700009F0D9C110925E0187E012CF873071F574
:1013800080915E01E9E2F1E09BE12FEF891700F126
:10139000982F8C3108F09BE19101281B3109225CC8
:1013A0003E4F63E05FEFF901E90FF11D4081969F29
:1013B000F0011124E852FF4F508311824283915073
:1013C00090F78B3109F0AFC110925E0188E0E8CE52
:1013D00020831182228391503397D8CF883059F5DA
:1013E00080915E01D501A81BB109A25CBE4FE9E264
:1013F000F1E09BE13FEF891738F42E9130831182A1
:10140000228391503397F7CF982F8C3108F09BE1CE
:1014100033E02FEF939FF0011124E852FF4F208318
:10142000118212829150B0F78B3109F07CC1109279
:101430005E0189E0B5CE893069F580915E01E9E20F
:10144000F1E09BE12FEF8917F8F0982F8C3108F02D
:101450009BE1282F30E053E04FEFF901E91BF10940
:10146000E25CFE4F6081959FF0011124E852FF4F2E
:10147000408361831282915080F78B3109F053C110
:1014800010925E018AE08CCE2083118212829150EC
:101490003397D9CF8A3051F580915E01A82FB0E003
:1014A000A25CBE4FE9E2F1E09BE13FEF891738F41F
:1014B0002D9130832183128291503397F7CF982F4B
:1014C0008C3108F09BE133E02FEF939FF001112462
:1014D000E852FF4F2083218312829150B0F78B3165
:1014E00009F021C110925E018BE05ACE8B3071F56C
:1014F00080915E01E9E2F1E09BE12FEF891700F1B5
:10150000982F8C3108F09BE163E09101281B310991
:10151000225C3E4F4FEF969FF0011124E852FF4F9F
:10152000D901A90FB11D5C91508341831282915062
:1015300090F78B3109F0F7C010925E018CE030CE4D
:1015400020832183128291503397D8CF8C3009F0B9
:10155000A9CC80915E01D501A81BB109A25CBE4F48
:10156000E9E2F1E09BE12FEF891738F43E913083F7
:101570002183128291503397F7CF982F8C3108F046
:101580009BE133E02FEF939FF0011124E852FF4FCE
:101590001082218312829150B0F78B3109F0C3C0C1
:1015A00010925E0181E0FCCD813191F5EEE3F1E036
:1015B000119231E0EA35F307D9F78FEF80933E01BE
:1015C00080933F01809340018093410180934201C9
:1015D000809343018093440180934C0180934D019B
:1015E00080934E0180934F0180935001809351016D
:1015F0008093520181E0C3D880915E01811104C0C3
:1016000087E080935E0102C010925E0180E575CD97
:101610008231C9F4EEE3F1E0119241E0EA35F407DA
:10162000D9F78FEF80933E0180933F018093400173
:101630008093410180934C0180934D0180934E0132
:1016400080934F0165CD833149F5EEE3F1E01192CE
:1016500051E0EA35F507D9F78FEF80935901809370
:101660005801809357018093560181E088D880917A
:101670005E01883161F491E090935C0190915C018E
:1016800091110AC08F5F80935E0188E036CD811191
:10169000F5CF10925C01F2CF8150F5CF8431A1F5E6
:1016A000EEE3F1E0119271E0EA35F707D9F78FEF39
:1016B000809359018093580180935701809356017C
:1016C00080E05DD880915E018B31D1F480915D0125
:1016D00010925E01883069F491E090935C019091E2
:1016E0005C0191110BC08F5F80935D0180915D0162
:1016F00004CD8130A1F710925C01F1CF8150F4CF7D
:101700008F5F80935E01F2CF853189F480E690E0AF
:1017100090935B0180935A0183E031D880915E0100
:101720008B3109F4B9CB8F5F80935E01BBCB8631DF
:10173000B1F4EEE3F1E060E250E440E630E820EAA4
:1017400090EC80EE608351834283338324839583BE
:1017500086833796A1E0EA35FA07A1F7D9CC109233
:101760005F018ECA8091D0009091D1009C012F5FC3
:101770003F4F3093D1002093D00049970CF44BC0D9
:101780008FB7F8940091C8001091C9002091CA0049
:101790003091CB008FBF8091CC009091CD00A09173
:1017A000CE00B091CF00A9019801281B390B4A0B3C
:1017B0005B0B21F421E030E040E050E0E091D0000C
:1017C000F091D10088EE93E0E89FB001E99F700DA1
:1017D000F89F700D1124072E000C880B990BFCD07C
:1017E00030933301209332011092D1001092D00037
:1017F0002FB7F8948091C8009091C900A091CA00B9
:10180000B091CB002FBF8093CC009093CD00A093DC
:10181000CE00B093CF0080E090E0892B09F41AC984
:10182000EFD313C9E1E3F1E08FEF808312821182DD
:10183000148613868FEF9FEFDC0187839087A18743
:10184000B28708958F929F92AF92BF92CF92DF920C
:10185000EF92FF92CF93DF93EC01688179818A81C7
:101860009B81611571058105910521F464E279ED93
:101870008BE597E02DE133EF41E050E081D0490165
:101880005A019B01AC01A7EAB1E496D06B017C013F
:10189000ACEEB4EFA50194019BD0C60ED71EE81E96
:1018A000F91EF7FE06C081E0C81AD108E10880E8F9
:1018B000F80AC882D982EA82FB82C701B6019F7703
:1018C000DF91CF91FF90EF90DF90CF90BF90AF90DE
:1018D0009F908F9008958F929F92AF92BF92CF92D8
:1018E000DF92EF92FF9260917C0070917D00809179
:1018F0007E0090917F00611571058105910521F4AD
:1019000064E279ED8BE597E02DE133EF41E050E0C3
:1019100037D049015A019B01AC01A7EAB1E44CD090
:101920006B017C01ACEEB4EFA501940151D0C60E61
:10193000D71EE81EF91EF7FE06C081E0C81AD108BE
:10194000E10880E8F80AC0927C00D0927D00E09225
:101950007E00F0927F00C701B6019F77FF90EF9065
:10196000DF90CF90BF90AF909F908F90089560933D
:101970007C0070937D0080937E0090937F0008959B
:10198000052E97FB16F400940FD057FD05D024D0F8
:1019900007FC02D046F408C050954095309521953B
:1019A0003F4F4F4F5F4F089590958095709561958B
:1019B0007F4F8F4F9F4F089531D0A59F900DB49FBB
:1019C000900DA49F800D911D11240895B7FFF4CFB1
:1019D000F3DF821B930B0895A1E21A2EAA1BBB1BF7
:1019E000FD010DC0AA1FBB1FEE1FFF1FA217B307EB
:1019F000E407F50720F0A21BB30BE40BF50B661F01
:101A0000771F881F991F1A9469F7609570958095C4
:101A100090959B01AC01BD01CF010895A29FB0013B
:101A2000B39FC001A39F01D0B29F700D811D1124EF
:101A3000911D0895DB018F939F93BEDFBF91AF91FE
:101A4000A29F800D911DA39F900DB29F900D112418
:101A5000089597FB072E16F4009406D077FD08D062
:101A600011D007FC05D03EF4909581959F4F0895C5
:101A7000709561957F4F0895D1DFB7FF0895821B60
:101A8000930B0895AA1BBB1B51E107C0AA1FBB1FE4
:101A9000A617B70710F0A61BB70B881F991F5A95FA
:101AA000A9F780959095BC01CD010895EE0FFF1F19
:101AB0000590F491E02D099481E090E0F89400C045
:041AC000F894FFCFC8
:101AC400122436485A6C7E90A2B4C6D8EAFCEAD8EE
:101AD400C6B4A2907E6C5A4836241212010000004B
:101AE40000000000160416041604F503F1030703AE
:101AF400EE030000000067030C030A03F503F1037F
:061B040007039A002F0107
:00000001FF
